{"project/contracts/TestPayable.sol":{"TestPayable":{"abi":[{"anonymous":false,"inputs":[{"indexed":false,"internalType":"uint256","name":"value","type":"uint256"},{"indexed":false,"internalType":"uint256","name":"minimum","type":"uint256"},{"indexed":false,"internalType":"bool","name":"result","type":"bool"}],"name":"MinimumCheck","type":"event"},{"anonymous":false,"inputs":[{"indexed":false,"internalType":"uint256","name":"value","type":"uint256"},{"indexed":false,"internalType":"address","name":"sender","type":"address"}],"name":"ValueReceived","type":"event"},{"inputs":[],"name":"MINIMUM","outputs":[{"internalType":"uint256","name":"","type":"uint256"}],"stateMutability":"view","type":"function"},{"inputs":[],"name":"getLastValue","outputs":[{"internalType":"uint256","name":"","type":"uint256"},{"internalType":"address","name":"","type":"address"}],"stateMutability":"view","type":"function"},{"inputs":[],"name":"lastSender","outputs":[{"internalType":"address","name":"","type":"address"}],"stateMutability":"view","type":"function"},{"inputs":[],"name":"lastValue","outputs":[{"internalType":"uint256","name":"","type":"uint256"}],"stateMutability":"view","type":"function"},{"inputs":[],"name":"testPayable","outputs":[],"stateMutability":"payable","type":"function"},{"stateMutability":"payable","type":"receive"}],"evm":{"bytecode":{"linkReferences":{},"object":"608060405234801561000f575f80fd5b5061024c8061001d5f395ff3fe60806040526004361061004c575f3560e01c806313788332146100b9578063256fec88146100ec5780633a78523814610123578063431838341461012d5780639c484b5c1461014f575f80fd5b366100b557345f819055600180546001600160a01b031916339081179091556040517f6e5e6be2642a3f6e27efe1bb1e3fbb1ecc0350216f5ea2719fc378effd473b69926100ab929082526001600160a01b0316602082015260400190565b60405180910390a1005b5f80fd5b3480156100c4575f80fd5b505f54600154604080519283526001600160a01b039091166020830152015b60405180910390f35b3480156100f7575f80fd5b5060015461010b906001600160a01b031681565b6040516001600160a01b0390911681526020016100e3565b61012b610169565b005b348015610138575f80fd5b506101415f5481565b6040519081526020016100e3565b34801561015a575f80fd5b50610141662386f26fc1000081565b345f819055600180546001600160a01b031916339081179091556040517f6e5e6be2642a3f6e27efe1bb1e3fbb1ecc0350216f5ea2719fc378effd473b69926101c3929082526001600160a01b0316602082015260400190565b60405180910390a16040805134808252662386f26fc100006020830181905211158183015290517fbc86d765d77854c609b77d0bc1d14c76292e9fcb1f479fe3ac7c0e656f1afb6a9181900360600190a156fea2646970667358221220c8cad4bf637a24173162a713cceed32eac764391833b174c0f39d5cbc26e015064736f6c63430008140033","opcodes":"PUSH1 0x80 PUSH1 0x40 MSTORE CALLVALUE DUP1 ISZERO PUSH2 0xF JUMPI PUSH0 DUP1 REVERT JUMPDEST POP PUSH2 0x24C DUP1 PUSH2 0x1D PUSH0 CODECOPY PUSH0 RETURN INVALID PUSH1 0x80 PUSH1 0x40 MSTORE PUSH1 0x4 CALLDATASIZE LT PUSH2 0x4C JUMPI PUSH0 CALLDATALOAD PUSH1 0xE0 SHR DUP1 PUSH4 0x13788332 EQ PUSH2 0xB9 JUMPI DUP1 PUSH4 0x256FEC88 EQ PUSH2 0xEC JUMPI DUP1 PUSH4 0x3A785238 EQ PUSH2 0x123 JUMPI DUP1 PUSH4 0x43183834 EQ PUSH2 0x12D JUMPI DUP1 PUSH4 0x9C484B5C EQ PUSH2 0x14F JUMPI PUSH0 DUP1 REVERT JUMPDEST CALLDATASIZE PUSH2 0xB5 JUMPI CALLVALUE PUSH0 DUP2 SWAP1 SSTORE PUSH1 0x1 DUP1 SLOAD PUSH1 0x1 PUSH1 0x1 PUSH1 0xA0 SHL SUB NOT AND CALLER SWAP1 DUP2 OR SWAP1 SWAP2 SSTORE PUSH1 0x40 MLOAD PUSH32 0x6E5E6BE2642A3F6E27EFE1BB1E3FBB1ECC0350216F5EA2719FC378EFFD473B69 SWAP3 PUSH2 0xAB SWAP3 SWAP1 DUP3 MSTORE PUSH1 0x1 PUSH1 0x1 PUSH1 0xA0 SHL SUB AND PUSH1 0x20 DUP3 ADD MSTORE PUSH1 0x40 ADD SWAP1 JUMP JUMPDEST PUSH1 0x40 MLOAD DUP1 SWAP2 SUB SWAP1 LOG1 STOP JUMPDEST PUSH0 DUP1 REVERT JUMPDEST CALLVALUE DUP1 ISZERO PUSH2 0xC4 JUMPI PUSH0 DUP1 REVERT JUMPDEST POP PUSH0 SLOAD PUSH1 0x1 SLOAD PUSH1 0x40 DUP1 MLOAD SWAP3 DUP4 MSTORE PUSH1 0x1 PUSH1 0x1 PUSH1 0xA0 SHL SUB SWAP1 SWAP2 AND PUSH1 0x20 DUP4 ADD MSTORE ADD JUMPDEST PUSH1 0x40 MLOAD DUP1 SWAP2 SUB SWAP1 RETURN JUMPDEST CALLVALUE DUP1 ISZERO PUSH2 0xF7 JUMPI PUSH0 DUP1 REVERT JUMPDEST POP PUSH1 0x1 SLOAD PUSH2 0x10B SWAP1 PUSH1 0x1 PUSH1 0x1 PUSH1 0xA0 SHL SUB AND DUP2 JUMP JUMPDEST PUSH1 0x40 MLOAD PUSH1 0x1 PUSH1 0x1 PUSH1 0xA0 SHL SUB SWAP1 SWAP2 AND DUP2 MSTORE PUSH1 0x20 ADD PUSH2 0xE3 JUMP JUMPDEST PUSH2 0x12B PUSH2 0x169 JUMP JUMPDEST STOP JUMPDEST CALLVALUE DUP1 ISZERO PUSH2 0x138 JUMPI PUSH0 DUP1 REVERT JUMPDEST POP PUSH2 0x141 PUSH0 SLOAD DUP2 JUMP JUMPDEST PUSH1 0x40 MLOAD SWAP1 DUP2 MSTORE PUSH1 0x20 ADD PUSH2 0xE3 JUMP JUMPDEST CALLVALUE DUP1 ISZERO PUSH2 0x15A JUMPI PUSH0 DUP1 REVERT JUMPDEST POP PUSH2 0x141 PUSH7 0x2386F26FC10000 DUP2 JUMP JUMPDEST CALLVALUE PUSH0 DUP2 SWAP1 SSTORE PUSH1 0x1 DUP1 SLOAD PUSH1 0x1 PUSH1 0x1 PUSH1 0xA0 SHL SUB NOT AND CALLER SWAP1 DUP2 OR SWAP1 SWAP2 SSTORE PUSH1 0x40 MLOAD PUSH32 0x6E5E6BE2642A3F6E27EFE1BB1E3FBB1ECC0350216F5EA2719FC378EFFD473B69 SWAP3 PUSH2 0x1C3 SWAP3 SWAP1 DUP3 MSTORE PUSH1 0x1 PUSH1 0x1 PUSH1 0xA0 SHL SUB AND PUSH1 0x20 DUP3 ADD MSTORE PUSH1 0x40 ADD SWAP1 JUMP JUMPDEST PUSH1 0x40 MLOAD DUP1 SWAP2 SUB SWAP1 LOG1 PUSH1 0x40 DUP1 MLOAD CALLVALUE DUP1 DUP3 MSTORE PUSH7 0x2386F26FC10000 PUSH1 0x20 DUP4 ADD DUP2 SWAP1 MSTORE GT ISZERO DUP2 DUP4 ADD MSTORE SWAP1 MLOAD PUSH32 0xBC86D765D77854C609B77D0BC1D14C76292E9FCB1F479FE3AC7C0E656F1AFB6A SWAP2 DUP2 SWAP1 SUB PUSH1 0x60 ADD SWAP1 LOG1 JUMP INVALID LOG2 PUSH5 0x6970667358 0x22 SLT KECCAK256 0xC8 0xCA 0xD4 0xBF PUSH4 0x7A241731 PUSH3 0xA713CC 0xEE 0xD3 0x2E 0xAC PUSH23 0x4391833B174C0F39D5CBC26E015064736F6C6343000814 STOP CALLER "},"methodIdentifiers":{"MINIMUM()":"9c484b5c","getLastValue()":"13788332","lastSender()":"256fec88","lastValue()":"43183834","testPayable()":"3a785238"}}}}}