{"project/contracts/PredictionMarket.sol":{"PredictionMarket":{"abi":[{"inputs":[{"internalType":"bytes32","name":"_id","type":"bytes32"},{"internalType":"string","name":"_question","type":"string"},{"internalType":"address","name":"_creator","type":"address"},{"internalType":"uint256","name":"_endTime","type":"uint256"},{"internalType":"address","name":"_collateral","type":"address"},{"internalType":"address","name":"_adminManager","type":"address"},{"internalType":"address","name":"_treasury","type":"address"},{"internalType":"address","name":"_betNFT","type":"address"},{"internalType":"uint256","name":"_protocolFeeRate","type":"uint256"}],"stateMutability":"nonpayable","type":"constructor"},{"anonymous":false,"inputs":[{"indexed":false,"internalType":"enum PredictionMarket.Outcome","name":"outcome","type":"uint8"},{"indexed":false,"internalType":"uint256","name":"confidenceScore","type":"uint256"},{"indexed":false,"internalType":"uint256","name":"timestamp","type":"uint256"}],"name":"FinalResolution","type":"event"},{"anonymous":false,"inputs":[{"indexed":false,"internalType":"enum PredictionMarket.Outcome","name":"outcome","type":"uint8"},{"indexed":false,"internalType":"uint256","name":"timestamp","type":"uint256"}],"name":"PreliminaryResolution","type":"event"},{"anonymous":false,"inputs":[{"indexed":false,"internalType":"uint256","name":"oldRate","type":"uint256"},{"indexed":false,"internalType":"uint256","name":"newRate","type":"uint256"},{"indexed":false,"internalType":"address","name":"changedBy","type":"address"}],"name":"ProtocolFeeRateChanged","type":"event"},{"inputs":[],"name":"adminManager","outputs":[{"internalType":"contract AdminManager","name":"","type":"address"}],"stateMutability":"view","type":"function"},{"inputs":[],"name":"approveMarket","outputs":[],"stateMutability":"nonpayable","type":"function"},{"inputs":[],"name":"betNFT","outputs":[{"internalType":"contract BetNFT","name":"","type":"address"}],"stateMutability":"view","type":"function"},{"inputs":[{"internalType":"uint256","name":"shares","type":"uint256"}],"name":"buyNo","outputs":[],"stateMutability":"nonpayable","type":"function"},{"inputs":[{"internalType":"uint256","name":"shares","type":"uint256"}],"name":"buyYes","outputs":[],"stateMutability":"nonpayable","type":"function"},{"inputs":[],"name":"cancelMarket","outputs":[],"stateMutability":"nonpayable","type":"function"},{"inputs":[],"name":"collateral","outputs":[{"internalType":"contract IERC20","name":"","type":"address"}],"stateMutability":"view","type":"function"},{"inputs":[],"name":"confidenceScore","outputs":[{"internalType":"uint256","name":"","type":"uint256"}],"stateMutability":"view","type":"function"},{"inputs":[],"name":"factory","outputs":[{"internalType":"contract IPredictionMarketFactory","name":"","type":"address"}],"stateMutability":"view","type":"function"},{"inputs":[{"internalType":"enum PredictionMarket.Outcome","name":"outcome","type":"uint8"},{"internalType":"uint256","name":"_confidenceScore","type":"uint256"}],"name":"finalResolve","outputs":[],"stateMutability":"nonpayable","type":"function"},{"inputs":[],"name":"getConfidenceScore","outputs":[{"internalType":"uint256","name":"","type":"uint256"}],"stateMutability":"view","type":"function"},{"inputs":[],"name":"getCurrentPrice","outputs":[{"internalType":"uint256","name":"priceYes","type":"uint256"},{"internalType":"uint256","name":"priceNo","type":"uint256"}],"stateMutability":"view","type":"function"},{"inputs":[],"name":"getMarketInfo","outputs":[{"components":[{"internalType":"bytes32","name":"id","type":"bytes32"},{"internalType":"string","name":"question","type":"string"},{"internalType":"address","name":"creator","type":"address"},{"internalType":"uint256","name":"endTime","type":"uint256"},{"internalType":"enum PredictionMarket.MarketStatus","name":"status","type":"uint8"}],"internalType":"struct PredictionMarket.MarketInfo","name":"","type":"tuple"}],"stateMutability":"view","type":"function"},{"inputs":[],"name":"getPreliminaryOutcome","outputs":[{"internalType":"enum PredictionMarket.Outcome","name":"","type":"uint8"}],"stateMutability":"view","type":"function"},{"inputs":[{"internalType":"uint256","name":"sharesToBuy","type":"uint256"}],"name":"getPriceNo","outputs":[{"internalType":"uint256","name":"","type":"uint256"}],"stateMutability":"view","type":"function"},{"inputs":[{"internalType":"uint256","name":"sharesToBuy","type":"uint256"}],"name":"getPriceYes","outputs":[{"internalType":"uint256","name":"","type":"uint256"}],"stateMutability":"view","type":"function"},{"inputs":[],"name":"getProbabilities","outputs":[{"internalType":"uint256","name":"probYes","type":"uint256"},{"internalType":"uint256","name":"probNo","type":"uint256"}],"stateMutability":"view","type":"function"},{"inputs":[],"name":"getProtocolFeeRate","outputs":[{"internalType":"uint256","name":"","type":"uint256"}],"stateMutability":"view","type":"function"},{"inputs":[],"name":"isPendingResolution","outputs":[{"internalType":"bool","name":"","type":"bool"}],"stateMutability":"view","type":"function"},{"inputs":[],"name":"marketInfo","outputs":[{"internalType":"bytes32","name":"id","type":"bytes32"},{"internalType":"string","name":"question","type":"string"},{"internalType":"address","name":"creator","type":"address"},{"internalType":"uint256","name":"endTime","type":"uint256"},{"internalType":"enum PredictionMarket.MarketStatus","name":"status","type":"uint8"}],"stateMutability":"view","type":"function"},{"inputs":[{"internalType":"address","name":"","type":"address"}],"name":"noBalance","outputs":[{"internalType":"uint256","name":"","type":"uint256"}],"stateMutability":"view","type":"function"},{"inputs":[],"name":"noShares","outputs":[{"internalType":"uint256","name":"","type":"uint256"}],"stateMutability":"view","type":"function"},{"inputs":[],"name":"preliminaryOutcome","outputs":[{"internalType":"enum PredictionMarket.Outcome","name":"","type":"uint8"}],"stateMutability":"view","type":"function"},{"inputs":[{"internalType":"enum PredictionMarket.Outcome","name":"outcome","type":"uint8"}],"name":"preliminaryResolve","outputs":[],"stateMutability":"nonpayable","type":"function"},{"inputs":[],"name":"preliminaryResolveTime","outputs":[{"internalType":"uint256","name":"","type":"uint256"}],"stateMutability":"view","type":"function"},{"inputs":[],"name":"protocolFeeRate","outputs":[{"internalType":"uint256","name":"","type":"uint256"}],"stateMutability":"view","type":"function"},{"inputs":[],"name":"redeem","outputs":[],"stateMutability":"nonpayable","type":"function"},{"inputs":[],"name":"reserve","outputs":[{"internalType":"uint256","name":"","type":"uint256"}],"stateMutability":"view","type":"function"},{"inputs":[{"internalType":"enum PredictionMarket.Outcome","name":"outcome","type":"uint8"}],"name":"resolveMarket","outputs":[],"stateMutability":"nonpayable","type":"function"},{"inputs":[],"name":"resolvedOutcome","outputs":[{"internalType":"enum PredictionMarket.Outcome","name":"","type":"uint8"}],"stateMutability":"view","type":"function"},{"inputs":[{"internalType":"address","name":"_newBetNFT","type":"address"}],"name":"setBetNFT","outputs":[],"stateMutability":"nonpayable","type":"function"},{"inputs":[{"internalType":"uint256","name":"_newFeeRate","type":"uint256"}],"name":"setProtocolFeeRate","outputs":[],"stateMutability":"nonpayable","type":"function"},{"inputs":[{"internalType":"address","name":"from","type":"address"},{"internalType":"address","name":"to","type":"address"},{"internalType":"uint256","name":"shares","type":"uint256"},{"internalType":"bool","name":"isYes","type":"bool"}],"name":"transferShares","outputs":[],"stateMutability":"nonpayable","type":"function"},{"inputs":[],"name":"treasury","outputs":[{"internalType":"contract Treasury","name":"","type":"address"}],"stateMutability":"view","type":"function"},{"inputs":[{"internalType":"address","name":"","type":"address"}],"name":"yesBalance","outputs":[{"internalType":"uint256","name":"","type":"uint256"}],"stateMutability":"view","type":"function"},{"inputs":[],"name":"yesShares","outputs":[{"internalType":"uint256","name":"","type":"uint256"}],"stateMutability":"view","type":"function"}],"evm":{"bytecode":{"linkReferences":{},"object":"608060405260c8600d5534801562000015575f80fd5b5060405162002551380380620025518339810160408190526200003891620001ef565b6040518060a001604052808a8152602001898152602001886001600160a01b031681526020018781526020015f600481111562000079576200007962000338565b905280515f9081556020820151600190620000959082620003d8565b5060408201516002820180546001600160a01b0319166001600160a01b0390921691909117905560608201516003820155608082015160048083018054909160ff19909116906001908490811115620000f257620000f262000338565b021790555050600580546001600160a01b038089166001600160a01b0319928316179092556006805488841690831617905560078054878416908316179055600880548216331790556009805492861692909116919091179055506103e8811115620001985760405162461bcd60e51b815260206004820152601160248201527008ccaca40e4c2e8ca40e8dede40d0d2ced607b1b604482015260640160405180910390fd5b600d555050670de0b6b3a7640000600a819055600b5550505f600c5550620004a092505050565b634e487b7160e01b5f52604160045260245ffd5b80516001600160a01b0381168114620001ea575f80fd5b919050565b5f805f805f805f805f6101208a8c03121562000209575f80fd5b895160208b01519099506001600160401b038082111562000228575f80fd5b818c0191508c601f8301126200023c575f80fd5b815181811115620002515762000251620001bf565b604051601f8201601f19908116603f011681019083821181831017156200027c576200027c620001bf565b816040528281528f602084870101111562000295575f80fd5b5f93505b82841015620002bc57602084860101516020858301015260208401935062000299565b5f60208483010152809c505050505050620002da60408b01620001d3565b965060608a01519550620002f160808b01620001d3565b94506200030160a08b01620001d3565b93506200031160c08b01620001d3565b92506200032160e08b01620001d3565b91506101008a015190509295985092959850929598565b634e487b7160e01b5f52602160045260245ffd5b600181811c908216806200036157607f821691505b6020821081036200038057634e487b7160e01b5f52602260045260245ffd5b50919050565b601f821115620003d3575f81815260208120601f850160051c81016020861015620003ae5750805b601f850160051c820191505b81811015620003cf57828155600101620003ba565b5050505b505050565b81516001600160401b03811115620003f457620003f4620001bf565b6200040c816200040584546200034c565b8462000386565b602080601f83116001811462000442575f84156200042a5750858301515b5f19600386901b1c1916600185901b178555620003cf565b5f85815260208120601f198616915b82811015620004725788860151825594840194600190910190840162000451565b50858210156200049057878501515f19600388901b60f8161c191681555b5050505050600190811b01905550565b6120a380620004ae5f395ff3fe608060405234801561000f575f80fd5b5060043610610213575f3560e01c80636bfefd6b1161011f578063d46a7721116100a9578063e47218b611610079578063e47218b61461045c578063eb91d37e1461046e578063f21ffa6b14610476578063f488c99914610489578063f7fab94f1461049c575f80fd5b8063d46a772114610410578063d8dfeb4514610423578063de62967d14610436578063e030663814610449575f80fd5b8063b13aa2d6116100ef578063b13aa2d6146103d1578063be040fb0146103e4578063c2560f2a146103ec578063c45a0155146103f4578063cd3293de14610407575f80fd5b80636bfefd6b1461039a5780638154b6c6146103a257806390b1bfc1146103ab578063a210b6a4146103be575f80fd5b806327c7ff61116101a05780635b883917116101705780635b8839171461032c57806361d027b31461034b5780636920f52b1461037657806369ff32c3146103895780636b6d8dcd14610391575f80fd5b806327c7ff61146102f45780634daaac3d146102fd57806358c36e5c1461031057806358f8588014610323575f80fd5b80630ffa9bed116101e65780630ffa9bed1461028457806316953f02146102b15780631c371e2b146102ba5780632284a82f146102c757806323341a05146102df575f80fd5b8063031bee0014610217578063061dd98d14610239578063062f7b8c1461024e5780630e71d8d71461026b575b5f80fd5b61021f6104a4565b604051610230959493929190611d00565b60405180910390f35b61024c610247366004611d47565b610559565b005b61025661078d565b60408051928352602083019190915201610230565b601054610100900460ff165b6040516102309190611d6e565b6102a3610292366004611d99565b600f6020525f908152604090205481565b604051908152602001610230565b6102a3600a5481565b6010546102779060ff1681565b6102cf6107cd565b6040519015158152602001610230565b6102e76107ed565b6040516102309190611dbb565b6102a3600b5481565b61024c61030b366004611d99565b610913565b61024c61031e366004611d47565b6109bb565b6102a3600d5481565b6102a361033a366004611d99565b600e6020525f908152604090205481565b60075461035e906001600160a01b031681565b6040516001600160a01b039091168152602001610230565b60095461035e906001600160a01b031681565b6011546102a3565b6102a360115481565b61024c610b65565b6102a360125481565b61024c6103b9366004611e25565b610c60565b60065461035e906001600160a01b031681565b61024c6103df366004611d47565b610e81565b61024c610fd8565b61024c61121a565b60085461035e906001600160a01b031681565b6102a3600c5481565b6102a361041e366004611d47565b611313565b60055461035e906001600160a01b031681565b6102a3610444366004611d47565b6113d5565b61024c610457366004611e88565b611438565b60105461027790610100900460ff1681565b61025661179b565b61024c610484366004611eb0565b6117fe565b61024c610497366004611eb0565b611afe565b600d546102a3565b5f8054600180549192916104b790611ec9565b80601f01602080910402602001604051908101604052809291908181526020018280546104e390611ec9565b801561052e5780601f106105055761010080835404028352916020019161052e565b820191905f5260205f20905b81548152906001019060200180831161051157829003601f168201915b505050506002830154600384015460049094015492936001600160a01b039091169290915060ff1685565b60016004805460ff169081111561057257610572611cd8565b146105985760405162461bcd60e51b815260040161058f90611f01565b60405180910390fd5b60035442106105d95760405162461bcd60e51b815260206004820152600d60248201526c13585c9ad95d0818db1bdcd959609a1b604482015260640161058f565b5f6105e382611313565b90505f81116106235760405162461bcd60e51b815260206004820152600c60248201526b125b9d985b1a590818dbdcdd60a21b604482015260640161058f565b6005546040516323b872dd60e01b8152336004820152306024820152604481018390526001600160a01b03909116906323b872dd906064016020604051808303815f875af1158015610677573d5f803e3d5ffd5b505050506040513d601f19601f8201168201806040525081019061069b9190611f2a565b6106b75760405162461bcd60e51b815260040161058f90611f45565b81600a5f8282546106c89190611f82565b9250508190555080600c5f8282546106e09190611f82565b9091555050335f908152600e602052604081208054849290610703908490611f82565b90915550506009546040516324d79a4360e01b815233600482015230602482015260448101849052600160648201526001600160a01b03909116906324d79a43906084015b6020604051808303815f875af1158015610764573d5f803e3d5ffd5b505050506040513d601f19601f820116820180604052508101906107889190611f95565b505050565b5f805f61079861179b565b509050670de0b6b3a76400006107af826064611fac565b6107b99190611fc3565b92506107c6836064611fe2565b9150509091565b5f60026004805460ff16908111156107e7576107e7611cd8565b14905090565b61081c6040805160a0810182525f80825260606020830181905292820181905291810182905290608082015290565b6040805160a081019091525f805482526001805460208401919061083f90611ec9565b80601f016020809104026020016040519081016040528092919081815260200182805461086b90611ec9565b80156108b65780601f1061088d576101008083540402835291602001916108b6565b820191905f5260205f20905b81548152906001019060200180831161089957829003601f168201915b505050918352505060028201546001600160a01b031660208201526003820154604082015260048083015460609092019160ff16908111156108fa576108fa611cd8565b600481111561090b5761090b611cd8565b905250919050565b600654604051630935e01b60e21b81523360048201526001600160a01b03909116906324d7806c90602401602060405180830381865afa158015610959573d5f803e3d5ffd5b505050506040513d601f19601f8201168201806040525081019061097d9190611f2a565b6109995760405162461bcd60e51b815260040161058f90611ff5565b600980546001600160a01b0319166001600160a01b0392909216919091179055565b60016004805460ff16908111156109d4576109d4611cd8565b146109f15760405162461bcd60e51b815260040161058f90611f01565b6003544210610a325760405162461bcd60e51b815260206004820152600d60248201526c13585c9ad95d0818db1bdcd959609a1b604482015260640161058f565b5f610a3c826113d5565b6005546040516323b872dd60e01b8152336004820152306024820152604481018390529192506001600160a01b0316906323b872dd906064016020604051808303815f875af1158015610a91573d5f803e3d5ffd5b505050506040513d601f19601f82011682018060405250810190610ab59190611f2a565b610ad15760405162461bcd60e51b815260040161058f90611f45565b81600b5f828254610ae29190611f82565b9250508190555080600c5f828254610afa9190611f82565b9091555050335f908152600f602052604081208054849290610b1d908490611f82565b90915550506009546040516324d79a4360e01b8152336004820152306024820152604481018490525f60648201526001600160a01b03909116906324d79a4390608401610748565b600654604051630935e01b60e21b81523360048201526001600160a01b03909116906324d7806c90602401602060405180830381865afa158015610bab573d5f803e3d5ffd5b505050506040513d601f19601f82011682018060405250810190610bcf9190611f2a565b610beb5760405162461bcd60e51b815260040161058f90611ff5565b5f6004805460ff1690811115610c0357610c03611cd8565b14610c4b5760405162461bcd60e51b815260206004820152601860248201527713585c9ad95d081b5d5cdd081899481cdd589b5a5d1d195960421b604482015260640161058f565b60048054819060ff19166001825b0217905550565b6009546001600160a01b03163314610cba5760405162461bcd60e51b815260206004820152601f60248201527f4f6e6c79204265744e46542063616e207472616e736665722073686172657300604482015260640161058f565b60016004805460ff1690811115610cd357610cd3611cd8565b14610cf05760405162461bcd60e51b815260040161058f90611f01565b8015610dbb576001600160a01b0384165f908152600e6020526040902054821115610d5d5760405162461bcd60e51b815260206004820152601860248201527f496e73756666696369656e74205945532062616c616e63650000000000000000604482015260640161058f565b6001600160a01b0384165f908152600e602052604081208054849290610d84908490611fe2565b90915550506001600160a01b0383165f908152600e602052604081208054849290610db0908490611f82565b90915550610e7b9050565b6001600160a01b0384165f908152600f6020526040902054821115610e225760405162461bcd60e51b815260206004820152601760248201527f496e73756666696369656e74204e4f2062616c616e6365000000000000000000604482015260640161058f565b6001600160a01b0384165f908152600f602052604081208054849290610e49908490611fe2565b90915550506001600160a01b0383165f908152600f602052604081208054849290610e75908490611f82565b90915550505b50505050565b60065f9054906101000a90046001600160a01b03166001600160a01b03166329575f6a6040518163ffffffff1660e01b8152600401602060405180830381865afa158015610ed1573d5f803e3d5ffd5b505050506040513d601f19601f82011682018060405250810190610ef59190612018565b6001600160a01b0316336001600160a01b031614610f475760405162461bcd60e51b815260206004820152600f60248201526e2737ba1039bab832b91030b236b4b760891b604482015260640161058f565b6103e8811115610f8d5760405162461bcd60e51b815260206004820152601160248201527008ccaca40e4c2e8ca40e8dede40d0d2ced607b1b604482015260640161058f565b600d8054908290556040805182815260208101849052338183015290517f4248da20612241eb3bd94c12b3dca31834a452e019bd91f94de1e1bec0eec7d79181900360600190a15050565b60036004805460ff1690811115610ff157610ff1611cd8565b1461102d5760405162461bcd60e51b815260206004820152600c60248201526b139bdd081c995cdbdb1d995960a21b604482015260640161058f565b5f80600160105460ff16600281111561104857611048611cd8565b0361106c575050335f908152600e602052604081208054600a5492909155906110a5565b600260105460ff16600281111561108557611085611cd8565b036110a5575050335f908152600f602052604081208054600b5492909155905b5f82116110e85760405162461bcd60e51b81526020600482015260116024820152704e6f7468696e6720746f2072656465656d60781b604482015260640161058f565b5f811161112b5760405162461bcd60e51b81526020600482015260116024820152704e6f2077696e6e696e672073686172657360781b604482015260640161058f565b5f81600c548461113b9190611fac565b6111459190611fc3565b90505f811161118c5760405162461bcd60e51b81526020600482015260136024820152724e6f207061796f757420617661696c61626c6560681b604482015260640161058f565b60055460405163a9059cbb60e01b8152336004820152602481018390526001600160a01b039091169063a9059cbb906044016020604051808303815f875af11580156111da573d5f803e3d5ffd5b505050506040513d601f19601f820116820180604052508101906111fe9190611f2a565b6107885760405162461bcd60e51b815260040161058f90611f45565b600654604051630935e01b60e21b81523360048201526001600160a01b03909116906324d7806c90602401602060405180830381865afa158015611260573d5f803e3d5ffd5b505050506040513d601f19601f820116820180604052508101906112849190611f2a565b6112a05760405162461bcd60e51b815260040161058f90611ff5565b5f6004805460ff16908111156112b8576112b8611cd8565b146113005760405162461bcd60e51b815260206004820152601860248201527713585c9ad95d081b5d5cdd081899481cdd589b5a5d1d195960421b604482015260640161058f565b600480546001919060ff19168280610c59565b5f815f0361132257505f919050565b5f600b54600a546113339190611f82565b90505f6113408483611f82565b90505f82600a54670de0b6b3a764000061135a9190611fac565b6113649190611fc3565b90505f8286600a546113769190611f82565b61138890670de0b6b3a7640000611fac565b6113929190611fc3565b90505f60026113a18385611f82565b6113ab9190611fc3565b9050670de0b6b3a76400006113c08883611fac565b6113ca9190611fc3565b979650505050505050565b5f815f036113e457505f919050565b5f600b54600a546113f59190611f82565b90505f6114028483611f82565b90505f82600b54670de0b6b3a764000061141c9190611fac565b6114269190611fc3565b90505f8286600b546113769190611f82565b600654604051630935e01b60e21b81523360048201526001600160a01b03909116906324d7806c90602401602060405180830381865afa15801561147e573d5f803e3d5ffd5b505050506040513d601f19601f820116820180604052508101906114a29190611f2a565b6114be5760405162461bcd60e51b815260040161058f90611ff5565b60026004805460ff16908111156114d7576114d7611cd8565b146115245760405162461bcd60e51b815260206004820152601d60248201527f4d75737420626520696e2070656e64696e67207265736f6c7574696f6e000000604482015260640161058f565b60648111156115755760405162461bcd60e51b815260206004820152601f60248201527f436f6e666964656e63652073636f7265206d757374206265203c3d2031303000604482015260640161058f565b6004805460ff199081166003179091556010805484921660018360028111156115a0576115a0611cd8565b02179055506011819055600c54600d545f90612710906115c09084611fac565b6115ca9190611fc3565b905080156116fe5760055460075460405163095ea7b360e01b81526001600160a01b0391821660048201526024810184905291169063095ea7b3906044016020604051808303815f875af1158015611624573d5f803e3d5ffd5b505050506040513d601f19601f820116820180604052508101906116489190611f2a565b6116865760405162461bcd60e51b815260206004820152600f60248201526e105c1c1c9bdd985b0819985a5b1959608a1b604482015260640161058f565b600754600554604051622c4a6960e21b81526001600160a01b0391821660048201526024810184905291169062b129a4906044015f604051808303815f87803b1580156116d1575f80fd5b505af11580156116e3573d5f803e3d5ffd5b5050505080600c5f8282546116f89190611fe2565b90915550505b60085460025460405163033d304360e51b81526001600160a01b0391821660048201529116906367a60860906024015f604051808303815f87803b158015611744575f80fd5b505af1158015611756573d5f803e3d5ffd5b505050507fa8ed14be3023745d71c725ff422efc433f40c534e195516b037e08b840428d8984844260405161178d93929190612033565b60405180910390a150505050565b5f805f600b54600a546117ae9190611f82565b9050805f036117c957506706f05b59d3b20000928392509050565b80600a54670de0b6b3a76400006117e09190611fac565b6117ea9190611fc3565b92506107c683670de0b6b3a7640000611fe2565b600654604051630935e01b60e21b81523360048201526001600160a01b03909116906324d7806c90602401602060405180830381865afa158015611844573d5f803e3d5ffd5b505050506040513d601f19601f820116820180604052508101906118689190611f2a565b6118845760405162461bcd60e51b815260040161058f90611ff5565b6003544210156118c25760405162461bcd60e51b8152602060048201526009602482015268546f6f206561726c7960b81b604482015260640161058f565b60016004805460ff16908111156118db576118db611cd8565b146119195760405162461bcd60e51b815260206004820152600e60248201526d496e76616c69642073746174757360901b604482015260640161058f565b6004805460ff1990811660031790915560108054839216600183600281111561194457611944611cd8565b0217905550600c54600d545f906127109061195f9084611fac565b6119699190611fc3565b90508015611a9d5760055460075460405163095ea7b360e01b81526001600160a01b0391821660048201526024810184905291169063095ea7b3906044016020604051808303815f875af11580156119c3573d5f803e3d5ffd5b505050506040513d601f19601f820116820180604052508101906119e79190611f2a565b611a255760405162461bcd60e51b815260206004820152600f60248201526e105c1c1c9bdd985b0819985a5b1959608a1b604482015260640161058f565b600754600554604051622c4a6960e21b81526001600160a01b0391821660048201526024810184905291169062b129a4906044015f604051808303815f87803b158015611a70575f80fd5b505af1158015611a82573d5f803e3d5ffd5b5050505080600c5f828254611a979190611fe2565b90915550505b60085460025460405163033d304360e51b81526001600160a01b0391821660048201529116906367a60860906024015f604051808303815f87803b158015611ae3575f80fd5b505af1158015611af5573d5f803e3d5ffd5b50505050505050565b600654604051630935e01b60e21b81523360048201526001600160a01b03909116906324d7806c90602401602060405180830381865afa158015611b44573d5f803e3d5ffd5b505050506040513d601f19601f82011682018060405250810190611b689190611f2a565b611b845760405162461bcd60e51b815260040161058f90611ff5565b600354421015611bc25760405162461bcd60e51b8152602060048201526009602482015268546f6f206561726c7960b81b604482015260640161058f565b60016004805460ff1690811115611bdb57611bdb611cd8565b14611c195760405162461bcd60e51b815260206004820152600e60248201526d496e76616c69642073746174757360901b604482015260640161058f565b600480546002919060ff191660018302179055506010805482919061ff001916610100836002811115611c4e57611c4e611cd8565b02179055504260128190556040517f5302b11a955c3c6b08397d6d74bfee6754ae7e504d5c618eb07d6290e4970bcd91611c8a91849190612052565b60405180910390a150565b5f81518084525f5b81811015611cb957602081850181015186830182015201611c9d565b505f602082860101526020601f19601f83011685010191505092915050565b634e487b7160e01b5f52602160045260245ffd5b60058110611cfc57611cfc611cd8565b9052565b85815260a060208201525f611d1860a0830187611c95565b6001600160a01b0386166040840152606083018590529050611d3d6080830184611cec565b9695505050505050565b5f60208284031215611d57575f80fd5b5035919050565b60038110611cfc57611cfc611cd8565b60208101611d7c8284611d5e565b92915050565b6001600160a01b0381168114611d96575f80fd5b50565b5f60208284031215611da9575f80fd5b8135611db481611d82565b9392505050565b60208152815160208201525f602083015160a06040840152611de060c0840182611c95565b905060018060a01b036040850151166060840152606084015160808401526080840151611e1060a0850182611cec565b509392505050565b8015158114611d96575f80fd5b5f805f8060808587031215611e38575f80fd5b8435611e4381611d82565b93506020850135611e5381611d82565b9250604085013591506060850135611e6a81611e18565b939692955090935050565b803560038110611e83575f80fd5b919050565b5f8060408385031215611e99575f80fd5b611ea283611e75565b946020939093013593505050565b5f60208284031215611ec0575f80fd5b611db482611e75565b600181811c90821680611edd57607f821691505b602082108103611efb57634e487b7160e01b5f52602260045260245ffd5b50919050565b6020808252600f908201526e26b0b935b2ba103737ba1037b832b760891b604082015260600190565b5f60208284031215611f3a575f80fd5b8151611db481611e18565b6020808252600f908201526e151c985b9cd9995c8819985a5b1959608a1b604082015260600190565b634e487b7160e01b5f52601160045260245ffd5b80820180821115611d7c57611d7c611f6e565b5f60208284031215611fa5575f80fd5b5051919050565b8082028115828204841417611d7c57611d7c611f6e565b5f82611fdd57634e487b7160e01b5f52601260045260245ffd5b500490565b81810381811115611d7c57611d7c611f6e565b6020808252600990820152682737ba1030b236b4b760b91b604082015260600190565b5f60208284031215612028575f80fd5b8151611db481611d82565b606081016120418286611d5e565b602082019390935260400152919050565b604081016120608285611d5e565b826020830152939250505056fea26469706673582212201cba8100ccb51db9b2276f017dd910baadb1b58b65a5d33a7390c3bd28d183a864736f6c63430008140033","opcodes":"PUSH1 0x80 PUSH1 0x40 MSTORE PUSH1 0xC8 PUSH1 0xD SSTORE CALLVALUE DUP1 ISZERO PUSH3 0x15 JUMPI PUSH0 DUP1 REVERT JUMPDEST POP PUSH1 0x40 MLOAD PUSH3 0x2551 CODESIZE SUB DUP1 PUSH3 0x2551 DUP4 CODECOPY DUP2 ADD PUSH1 0x40 DUP2 SWAP1 MSTORE PUSH3 0x38 SWAP2 PUSH3 0x1EF JUMP JUMPDEST PUSH1 0x40 MLOAD DUP1 PUSH1 0xA0 ADD PUSH1 0x40 MSTORE DUP1 DUP11 DUP2 MSTORE PUSH1 0x20 ADD DUP10 DUP2 MSTORE PUSH1 0x20 ADD DUP9 PUSH1 0x1 PUSH1 0x1 PUSH1 0xA0 SHL SUB AND DUP2 MSTORE PUSH1 0x20 ADD DUP8 DUP2 MSTORE PUSH1 0x20 ADD PUSH0 PUSH1 0x4 DUP2 GT ISZERO PUSH3 0x79 JUMPI PUSH3 0x79 PUSH3 0x338 JUMP JUMPDEST SWAP1 MSTORE DUP1 MLOAD PUSH0 SWAP1 DUP2 SSTORE PUSH1 0x20 DUP3 ADD MLOAD PUSH1 0x1 SWAP1 PUSH3 0x95 SWAP1 DUP3 PUSH3 0x3D8 JUMP JUMPDEST POP PUSH1 0x40 DUP3 ADD MLOAD PUSH1 0x2 DUP3 ADD DUP1 SLOAD PUSH1 0x1 PUSH1 0x1 PUSH1 0xA0 SHL SUB NOT AND PUSH1 0x1 PUSH1 0x1 PUSH1 0xA0 SHL SUB SWAP1 SWAP3 AND SWAP2 SWAP1 SWAP2 OR SWAP1 SSTORE PUSH1 0x60 DUP3 ADD MLOAD PUSH1 0x3 DUP3 ADD SSTORE PUSH1 0x80 DUP3 ADD MLOAD PUSH1 0x4 DUP1 DUP4 ADD DUP1 SLOAD SWAP1 SWAP2 PUSH1 0xFF NOT SWAP1 SWAP2 AND SWAP1 PUSH1 0x1 SWAP1 DUP5 SWAP1 DUP2 GT ISZERO PUSH3 0xF2 JUMPI PUSH3 0xF2 PUSH3 0x338 JUMP JUMPDEST MUL OR SWAP1 SSTORE POP POP PUSH1 0x5 DUP1 SLOAD PUSH1 0x1 PUSH1 0x1 PUSH1 0xA0 SHL SUB DUP1 DUP10 AND PUSH1 0x1 PUSH1 0x1 PUSH1 0xA0 SHL SUB NOT SWAP3 DUP4 AND OR SWAP1 SWAP3 SSTORE PUSH1 0x6 DUP1 SLOAD DUP9 DUP5 AND SWAP1 DUP4 AND OR SWAP1 SSTORE PUSH1 0x7 DUP1 SLOAD DUP8 DUP5 AND SWAP1 DUP4 AND OR SWAP1 SSTORE PUSH1 0x8 DUP1 SLOAD DUP3 AND CALLER OR SWAP1 SSTORE PUSH1 0x9 DUP1 SLOAD SWAP3 DUP7 AND SWAP3 SWAP1 SWAP2 AND SWAP2 SWAP1 SWAP2 OR SWAP1 SSTORE POP PUSH2 0x3E8 DUP2 GT ISZERO PUSH3 0x198 JUMPI PUSH1 0x40 MLOAD PUSH3 0x461BCD PUSH1 0xE5 SHL DUP2 MSTORE PUSH1 0x20 PUSH1 0x4 DUP3 ADD MSTORE PUSH1 0x11 PUSH1 0x24 DUP3 ADD MSTORE PUSH17 0x8CCACA40E4C2E8CA40E8DEDE40D0D2CED PUSH1 0x7B SHL PUSH1 0x44 DUP3 ADD MSTORE PUSH1 0x64 ADD PUSH1 0x40 MLOAD DUP1 SWAP2 SUB SWAP1 REVERT JUMPDEST PUSH1 0xD SSTORE POP POP PUSH8 0xDE0B6B3A7640000 PUSH1 0xA DUP2 SWAP1 SSTORE PUSH1 0xB SSTORE POP POP PUSH0 PUSH1 0xC SSTORE POP PUSH3 0x4A0 SWAP3 POP POP POP JUMP JUMPDEST PUSH4 0x4E487B71 PUSH1 0xE0 SHL PUSH0 MSTORE PUSH1 0x41 PUSH1 0x4 MSTORE PUSH1 0x24 PUSH0 REVERT JUMPDEST DUP1 MLOAD PUSH1 0x1 PUSH1 0x1 PUSH1 0xA0 SHL SUB DUP2 AND DUP2 EQ PUSH3 0x1EA JUMPI PUSH0 DUP1 REVERT JUMPDEST SWAP2 SWAP1 POP JUMP JUMPDEST PUSH0 DUP1 PUSH0 DUP1 PUSH0 DUP1 PUSH0 DUP1 PUSH0 PUSH2 0x120 DUP11 DUP13 SUB SLT ISZERO PUSH3 0x209 JUMPI PUSH0 DUP1 REVERT JUMPDEST DUP10 MLOAD PUSH1 0x20 DUP12 ADD MLOAD SWAP1 SWAP10 POP PUSH1 0x1 PUSH1 0x1 PUSH1 0x40 SHL SUB DUP1 DUP3 GT ISZERO PUSH3 0x228 JUMPI PUSH0 DUP1 REVERT JUMPDEST DUP2 DUP13 ADD SWAP2 POP DUP13 PUSH1 0x1F DUP4 ADD SLT PUSH3 0x23C JUMPI PUSH0 DUP1 REVERT JUMPDEST DUP2 MLOAD DUP2 DUP2 GT ISZERO PUSH3 0x251 JUMPI PUSH3 0x251 PUSH3 0x1BF JUMP JUMPDEST PUSH1 0x40 MLOAD PUSH1 0x1F DUP3 ADD PUSH1 0x1F NOT SWAP1 DUP2 AND PUSH1 0x3F ADD AND DUP2 ADD SWAP1 DUP4 DUP3 GT DUP2 DUP4 LT OR ISZERO PUSH3 0x27C JUMPI PUSH3 0x27C PUSH3 0x1BF JUMP JUMPDEST DUP2 PUSH1 0x40 MSTORE DUP3 DUP2 MSTORE DUP16 PUSH1 0x20 DUP5 DUP8 ADD ADD GT ISZERO PUSH3 0x295 JUMPI PUSH0 DUP1 REVERT JUMPDEST PUSH0 SWAP4 POP JUMPDEST DUP3 DUP5 LT ISZERO PUSH3 0x2BC JUMPI PUSH1 0x20 DUP5 DUP7 ADD ADD MLOAD PUSH1 0x20 DUP6 DUP4 ADD ADD MSTORE PUSH1 0x20 DUP5 ADD SWAP4 POP PUSH3 0x299 JUMP JUMPDEST PUSH0 PUSH1 0x20 DUP5 DUP4 ADD ADD MSTORE DUP1 SWAP13 POP POP POP POP POP POP PUSH3 0x2DA PUSH1 0x40 DUP12 ADD PUSH3 0x1D3 JUMP JUMPDEST SWAP7 POP PUSH1 0x60 DUP11 ADD MLOAD SWAP6 POP PUSH3 0x2F1 PUSH1 0x80 DUP12 ADD PUSH3 0x1D3 JUMP JUMPDEST SWAP5 POP PUSH3 0x301 PUSH1 0xA0 DUP12 ADD PUSH3 0x1D3 JUMP JUMPDEST SWAP4 POP PUSH3 0x311 PUSH1 0xC0 DUP12 ADD PUSH3 0x1D3 JUMP JUMPDEST SWAP3 POP PUSH3 0x321 PUSH1 0xE0 DUP12 ADD PUSH3 0x1D3 JUMP JUMPDEST SWAP2 POP PUSH2 0x100 DUP11 ADD MLOAD SWAP1 POP SWAP3 SWAP6 SWAP9 POP SWAP3 SWAP6 SWAP9 POP SWAP3 SWAP6 SWAP9 JUMP JUMPDEST PUSH4 0x4E487B71 PUSH1 0xE0 SHL PUSH0 MSTORE PUSH1 0x21 PUSH1 0x4 MSTORE PUSH1 0x24 PUSH0 REVERT JUMPDEST PUSH1 0x1 DUP2 DUP2 SHR SWAP1 DUP3 AND DUP1 PUSH3 0x361 JUMPI PUSH1 0x7F DUP3 AND SWAP2 POP JUMPDEST PUSH1 0x20 DUP3 LT DUP2 SUB PUSH3 0x380 JUMPI PUSH4 0x4E487B71 PUSH1 0xE0 SHL PUSH0 MSTORE PUSH1 0x22 PUSH1 0x4 MSTORE PUSH1 0x24 PUSH0 REVERT JUMPDEST POP SWAP2 SWAP1 POP JUMP JUMPDEST PUSH1 0x1F DUP3 GT ISZERO PUSH3 0x3D3 JUMPI PUSH0 DUP2 DUP2 MSTORE PUSH1 0x20 DUP2 KECCAK256 PUSH1 0x1F DUP6 ADD PUSH1 0x5 SHR DUP2 ADD PUSH1 0x20 DUP7 LT ISZERO PUSH3 0x3AE JUMPI POP DUP1 JUMPDEST PUSH1 0x1F DUP6 ADD PUSH1 0x5 SHR DUP3 ADD SWAP2 POP JUMPDEST DUP2 DUP2 LT ISZERO PUSH3 0x3CF JUMPI DUP3 DUP2 SSTORE PUSH1 0x1 ADD PUSH3 0x3BA JUMP JUMPDEST POP POP POP JUMPDEST POP POP POP JUMP JUMPDEST DUP2 MLOAD PUSH1 0x1 PUSH1 0x1 PUSH1 0x40 SHL SUB DUP2 GT ISZERO PUSH3 0x3F4 JUMPI PUSH3 0x3F4 PUSH3 0x1BF JUMP JUMPDEST PUSH3 0x40C DUP2 PUSH3 0x405 DUP5 SLOAD PUSH3 0x34C JUMP JUMPDEST DUP5 PUSH3 0x386 JUMP JUMPDEST PUSH1 0x20 DUP1 PUSH1 0x1F DUP4 GT PUSH1 0x1 DUP2 EQ PUSH3 0x442 JUMPI PUSH0 DUP5 ISZERO PUSH3 0x42A JUMPI POP DUP6 DUP4 ADD MLOAD JUMPDEST PUSH0 NOT PUSH1 0x3 DUP7 SWAP1 SHL SHR NOT AND PUSH1 0x1 DUP6 SWAP1 SHL OR DUP6 SSTORE PUSH3 0x3CF JUMP JUMPDEST PUSH0 DUP6 DUP2 MSTORE PUSH1 0x20 DUP2 KECCAK256 PUSH1 0x1F NOT DUP7 AND SWAP2 JUMPDEST DUP3 DUP2 LT ISZERO PUSH3 0x472 JUMPI DUP9 DUP7 ADD MLOAD DUP3 SSTORE SWAP5 DUP5 ADD SWAP5 PUSH1 0x1 SWAP1 SWAP2 ADD SWAP1 DUP5 ADD PUSH3 0x451 JUMP JUMPDEST POP DUP6 DUP3 LT ISZERO PUSH3 0x490 JUMPI DUP8 DUP6 ADD MLOAD PUSH0 NOT PUSH1 0x3 DUP9 SWAP1 SHL PUSH1 0xF8 AND SHR NOT AND DUP2 SSTORE JUMPDEST POP POP POP POP POP PUSH1 0x1 SWAP1 DUP2 SHL ADD SWAP1 SSTORE POP JUMP JUMPDEST PUSH2 0x20A3 DUP1 PUSH3 0x4AE PUSH0 CODECOPY PUSH0 RETURN INVALID PUSH1 0x80 PUSH1 0x40 MSTORE CALLVALUE DUP1 ISZERO PUSH2 0xF JUMPI PUSH0 DUP1 REVERT JUMPDEST POP PUSH1 0x4 CALLDATASIZE LT PUSH2 0x213 JUMPI PUSH0 CALLDATALOAD PUSH1 0xE0 SHR DUP1 PUSH4 0x6BFEFD6B GT PUSH2 0x11F JUMPI DUP1 PUSH4 0xD46A7721 GT PUSH2 0xA9 JUMPI DUP1 PUSH4 0xE47218B6 GT PUSH2 0x79 JUMPI DUP1 PUSH4 0xE47218B6 EQ PUSH2 0x45C JUMPI DUP1 PUSH4 0xEB91D37E EQ PUSH2 0x46E JUMPI DUP1 PUSH4 0xF21FFA6B EQ PUSH2 0x476 JUMPI DUP1 PUSH4 0xF488C999 EQ PUSH2 0x489 JUMPI DUP1 PUSH4 0xF7FAB94F EQ PUSH2 0x49C JUMPI PUSH0 DUP1 REVERT JUMPDEST DUP1 PUSH4 0xD46A7721 EQ PUSH2 0x410 JUMPI DUP1 PUSH4 0xD8DFEB45 EQ PUSH2 0x423 JUMPI DUP1 PUSH4 0xDE62967D EQ PUSH2 0x436 JUMPI DUP1 PUSH4 0xE0306638 EQ PUSH2 0x449 JUMPI PUSH0 DUP1 REVERT JUMPDEST DUP1 PUSH4 0xB13AA2D6 GT PUSH2 0xEF JUMPI DUP1 PUSH4 0xB13AA2D6 EQ PUSH2 0x3D1 JUMPI DUP1 PUSH4 0xBE040FB0 EQ PUSH2 0x3E4 JUMPI DUP1 PUSH4 0xC2560F2A EQ PUSH2 0x3EC JUMPI DUP1 PUSH4 0xC45A0155 EQ PUSH2 0x3F4 JUMPI DUP1 PUSH4 0xCD3293DE EQ PUSH2 0x407 JUMPI PUSH0 DUP1 REVERT JUMPDEST DUP1 PUSH4 0x6BFEFD6B EQ PUSH2 0x39A JUMPI DUP1 PUSH4 0x8154B6C6 EQ PUSH2 0x3A2 JUMPI DUP1 PUSH4 0x90B1BFC1 EQ PUSH2 0x3AB JUMPI DUP1 PUSH4 0xA210B6A4 EQ PUSH2 0x3BE JUMPI PUSH0 DUP1 REVERT JUMPDEST DUP1 PUSH4 0x27C7FF61 GT PUSH2 0x1A0 JUMPI DUP1 PUSH4 0x5B883917 GT PUSH2 0x170 JUMPI DUP1 PUSH4 0x5B883917 EQ PUSH2 0x32C JUMPI DUP1 PUSH4 0x61D027B3 EQ PUSH2 0x34B JUMPI DUP1 PUSH4 0x6920F52B EQ PUSH2 0x376 JUMPI DUP1 PUSH4 0x69FF32C3 EQ PUSH2 0x389 JUMPI DUP1 PUSH4 0x6B6D8DCD EQ PUSH2 0x391 JUMPI PUSH0 DUP1 REVERT JUMPDEST DUP1 PUSH4 0x27C7FF61 EQ PUSH2 0x2F4 JUMPI DUP1 PUSH4 0x4DAAAC3D EQ PUSH2 0x2FD JUMPI DUP1 PUSH4 0x58C36E5C EQ PUSH2 0x310 JUMPI DUP1 PUSH4 0x58F85880 EQ PUSH2 0x323 JUMPI PUSH0 DUP1 REVERT JUMPDEST DUP1 PUSH4 0xFFA9BED GT PUSH2 0x1E6 JUMPI DUP1 PUSH4 0xFFA9BED EQ PUSH2 0x284 JUMPI DUP1 PUSH4 0x16953F02 EQ PUSH2 0x2B1 JUMPI DUP1 PUSH4 0x1C371E2B EQ PUSH2 0x2BA JUMPI DUP1 PUSH4 0x2284A82F EQ PUSH2 0x2C7 JUMPI DUP1 PUSH4 0x23341A05 EQ PUSH2 0x2DF JUMPI PUSH0 DUP1 REVERT JUMPDEST DUP1 PUSH4 0x31BEE00 EQ PUSH2 0x217 JUMPI DUP1 PUSH4 0x61DD98D EQ PUSH2 0x239 JUMPI DUP1 PUSH4 0x62F7B8C EQ PUSH2 0x24E JUMPI DUP1 PUSH4 0xE71D8D7 EQ PUSH2 0x26B JUMPI JUMPDEST PUSH0 DUP1 REVERT JUMPDEST PUSH2 0x21F PUSH2 0x4A4 JUMP JUMPDEST PUSH1 0x40 MLOAD PUSH2 0x230 SWAP6 SWAP5 SWAP4 SWAP3 SWAP2 SWAP1 PUSH2 0x1D00 JUMP JUMPDEST PUSH1 0x40 MLOAD DUP1 SWAP2 SUB SWAP1 RETURN JUMPDEST PUSH2 0x24C PUSH2 0x247 CALLDATASIZE PUSH1 0x4 PUSH2 0x1D47 JUMP JUMPDEST PUSH2 0x559 JUMP JUMPDEST STOP JUMPDEST PUSH2 0x256 PUSH2 0x78D JUMP JUMPDEST PUSH1 0x40 DUP1 MLOAD SWAP3 DUP4 MSTORE PUSH1 0x20 DUP4 ADD SWAP2 SWAP1 SWAP2 MSTORE ADD PUSH2 0x230 JUMP JUMPDEST PUSH1 0x10 SLOAD PUSH2 0x100 SWAP1 DIV PUSH1 0xFF AND JUMPDEST PUSH1 0x40 MLOAD PUSH2 0x230 SWAP2 SWAP1 PUSH2 0x1D6E JUMP JUMPDEST PUSH2 0x2A3 PUSH2 0x292 CALLDATASIZE PUSH1 0x4 PUSH2 0x1D99 JUMP JUMPDEST PUSH1 0xF PUSH1 0x20 MSTORE PUSH0 SWAP1 DUP2 MSTORE PUSH1 0x40 SWAP1 KECCAK256 SLOAD DUP2 JUMP JUMPDEST PUSH1 0x40 MLOAD SWAP1 DUP2 MSTORE PUSH1 0x20 ADD PUSH2 0x230 JUMP JUMPDEST PUSH2 0x2A3 PUSH1 0xA SLOAD DUP2 JUMP JUMPDEST PUSH1 0x10 SLOAD PUSH2 0x277 SWAP1 PUSH1 0xFF AND DUP2 JUMP JUMPDEST PUSH2 0x2CF PUSH2 0x7CD JUMP JUMPDEST PUSH1 0x40 MLOAD SWAP1 ISZERO ISZERO DUP2 MSTORE PUSH1 0x20 ADD PUSH2 0x230 JUMP JUMPDEST PUSH2 0x2E7 PUSH2 0x7ED JUMP JUMPDEST PUSH1 0x40 MLOAD PUSH2 0x230 SWAP2 SWAP1 PUSH2 0x1DBB JUMP JUMPDEST PUSH2 0x2A3 PUSH1 0xB SLOAD DUP2 JUMP JUMPDEST PUSH2 0x24C PUSH2 0x30B CALLDATASIZE PUSH1 0x4 PUSH2 0x1D99 JUMP JUMPDEST PUSH2 0x913 JUMP JUMPDEST PUSH2 0x24C PUSH2 0x31E CALLDATASIZE PUSH1 0x4 PUSH2 0x1D47 JUMP JUMPDEST PUSH2 0x9BB JUMP JUMPDEST PUSH2 0x2A3 PUSH1 0xD SLOAD DUP2 JUMP JUMPDEST PUSH2 0x2A3 PUSH2 0x33A CALLDATASIZE PUSH1 0x4 PUSH2 0x1D99 JUMP JUMPDEST PUSH1 0xE PUSH1 0x20 MSTORE PUSH0 SWAP1 DUP2 MSTORE PUSH1 0x40 SWAP1 KECCAK256 SLOAD DUP2 JUMP JUMPDEST PUSH1 0x7 SLOAD PUSH2 0x35E SWAP1 PUSH1 0x1 PUSH1 0x1 PUSH1 0xA0 SHL SUB AND DUP2 JUMP JUMPDEST PUSH1 0x40 MLOAD PUSH1 0x1 PUSH1 0x1 PUSH1 0xA0 SHL SUB SWAP1 SWAP2 AND DUP2 MSTORE PUSH1 0x20 ADD PUSH2 0x230 JUMP JUMPDEST PUSH1 0x9 SLOAD PUSH2 0x35E SWAP1 PUSH1 0x1 PUSH1 0x1 PUSH1 0xA0 SHL SUB AND DUP2 JUMP JUMPDEST PUSH1 0x11 SLOAD PUSH2 0x2A3 JUMP JUMPDEST PUSH2 0x2A3 PUSH1 0x11 SLOAD DUP2 JUMP JUMPDEST PUSH2 0x24C PUSH2 0xB65 JUMP JUMPDEST PUSH2 0x2A3 PUSH1 0x12 SLOAD DUP2 JUMP JUMPDEST PUSH2 0x24C PUSH2 0x3B9 CALLDATASIZE PUSH1 0x4 PUSH2 0x1E25 JUMP JUMPDEST PUSH2 0xC60 JUMP JUMPDEST PUSH1 0x6 SLOAD PUSH2 0x35E SWAP1 PUSH1 0x1 PUSH1 0x1 PUSH1 0xA0 SHL SUB AND DUP2 JUMP JUMPDEST PUSH2 0x24C PUSH2 0x3DF CALLDATASIZE PUSH1 0x4 PUSH2 0x1D47 JUMP JUMPDEST PUSH2 0xE81 JUMP JUMPDEST PUSH2 0x24C PUSH2 0xFD8 JUMP JUMPDEST PUSH2 0x24C PUSH2 0x121A JUMP JUMPDEST PUSH1 0x8 SLOAD PUSH2 0x35E SWAP1 PUSH1 0x1 PUSH1 0x1 PUSH1 0xA0 SHL SUB AND DUP2 JUMP JUMPDEST PUSH2 0x2A3 PUSH1 0xC SLOAD DUP2 JUMP JUMPDEST PUSH2 0x2A3 PUSH2 0x41E CALLDATASIZE PUSH1 0x4 PUSH2 0x1D47 JUMP JUMPDEST PUSH2 0x1313 JUMP JUMPDEST PUSH1 0x5 SLOAD PUSH2 0x35E SWAP1 PUSH1 0x1 PUSH1 0x1 PUSH1 0xA0 SHL SUB AND DUP2 JUMP JUMPDEST PUSH2 0x2A3 PUSH2 0x444 CALLDATASIZE PUSH1 0x4 PUSH2 0x1D47 JUMP JUMPDEST PUSH2 0x13D5 JUMP JUMPDEST PUSH2 0x24C PUSH2 0x457 CALLDATASIZE PUSH1 0x4 PUSH2 0x1E88 JUMP JUMPDEST PUSH2 0x1438 JUMP JUMPDEST PUSH1 0x10 SLOAD PUSH2 0x277 SWAP1 PUSH2 0x100 SWAP1 DIV PUSH1 0xFF AND DUP2 JUMP JUMPDEST PUSH2 0x256 PUSH2 0x179B JUMP JUMPDEST PUSH2 0x24C PUSH2 0x484 CALLDATASIZE PUSH1 0x4 PUSH2 0x1EB0 JUMP JUMPDEST PUSH2 0x17FE JUMP JUMPDEST PUSH2 0x24C PUSH2 0x497 CALLDATASIZE PUSH1 0x4 PUSH2 0x1EB0 JUMP JUMPDEST PUSH2 0x1AFE JUMP JUMPDEST PUSH1 0xD SLOAD PUSH2 0x2A3 JUMP JUMPDEST PUSH0 DUP1 SLOAD PUSH1 0x1 DUP1 SLOAD SWAP2 SWAP3 SWAP2 PUSH2 0x4B7 SWAP1 PUSH2 0x1EC9 JUMP JUMPDEST DUP1 PUSH1 0x1F ADD PUSH1 0x20 DUP1 SWAP2 DIV MUL PUSH1 0x20 ADD PUSH1 0x40 MLOAD SWAP1 DUP2 ADD PUSH1 0x40 MSTORE DUP1 SWAP3 SWAP2 SWAP1 DUP2 DUP2 MSTORE PUSH1 0x20 ADD DUP3 DUP1 SLOAD PUSH2 0x4E3 SWAP1 PUSH2 0x1EC9 JUMP JUMPDEST DUP1 ISZERO PUSH2 0x52E JUMPI DUP1 PUSH1 0x1F LT PUSH2 0x505 JUMPI PUSH2 0x100 DUP1 DUP4 SLOAD DIV MUL DUP4 MSTORE SWAP2 PUSH1 0x20 ADD SWAP2 PUSH2 0x52E JUMP JUMPDEST DUP3 ADD SWAP2 SWAP1 PUSH0 MSTORE PUSH1 0x20 PUSH0 KECCAK256 SWAP1 JUMPDEST DUP2 SLOAD DUP2 MSTORE SWAP1 PUSH1 0x1 ADD SWAP1 PUSH1 0x20 ADD DUP1 DUP4 GT PUSH2 0x511 JUMPI DUP3 SWAP1 SUB PUSH1 0x1F AND DUP3 ADD SWAP2 JUMPDEST POP POP POP POP PUSH1 0x2 DUP4 ADD SLOAD PUSH1 0x3 DUP5 ADD SLOAD PUSH1 0x4 SWAP1 SWAP5 ADD SLOAD SWAP3 SWAP4 PUSH1 0x1 PUSH1 0x1 PUSH1 0xA0 SHL SUB SWAP1 SWAP2 AND SWAP3 SWAP1 SWAP2 POP PUSH1 0xFF AND DUP6 JUMP JUMPDEST PUSH1 0x1 PUSH1 0x4 DUP1 SLOAD PUSH1 0xFF AND SWAP1 DUP2 GT ISZERO PUSH2 0x572 JUMPI PUSH2 0x572 PUSH2 0x1CD8 JUMP JUMPDEST EQ PUSH2 0x598 JUMPI PUSH1 0x40 MLOAD PUSH3 0x461BCD PUSH1 0xE5 SHL DUP2 MSTORE PUSH1 0x4 ADD PUSH2 0x58F SWAP1 PUSH2 0x1F01 JUMP JUMPDEST PUSH1 0x40 MLOAD DUP1 SWAP2 SUB SWAP1 REVERT JUMPDEST PUSH1 0x3 SLOAD TIMESTAMP LT PUSH2 0x5D9 JUMPI PUSH1 0x40 MLOAD PUSH3 0x461BCD PUSH1 0xE5 SHL DUP2 MSTORE PUSH1 0x20 PUSH1 0x4 DUP3 ADD MSTORE PUSH1 0xD PUSH1 0x24 DUP3 ADD MSTORE PUSH13 0x13585C9AD95D0818DB1BDCD959 PUSH1 0x9A SHL PUSH1 0x44 DUP3 ADD MSTORE PUSH1 0x64 ADD PUSH2 0x58F JUMP JUMPDEST PUSH0 PUSH2 0x5E3 DUP3 PUSH2 0x1313 JUMP JUMPDEST SWAP1 POP PUSH0 DUP2 GT PUSH2 0x623 JUMPI PUSH1 0x40 MLOAD PUSH3 0x461BCD PUSH1 0xE5 SHL DUP2 MSTORE PUSH1 0x20 PUSH1 0x4 DUP3 ADD MSTORE PUSH1 0xC PUSH1 0x24 DUP3 ADD MSTORE PUSH12 0x125B9D985B1A590818DBDCDD PUSH1 0xA2 SHL PUSH1 0x44 DUP3 ADD MSTORE PUSH1 0x64 ADD PUSH2 0x58F JUMP JUMPDEST PUSH1 0x5 SLOAD PUSH1 0x40 MLOAD PUSH4 0x23B872DD PUSH1 0xE0 SHL DUP2 MSTORE CALLER PUSH1 0x4 DUP3 ADD MSTORE ADDRESS PUSH1 0x24 DUP3 ADD MSTORE PUSH1 0x44 DUP2 ADD DUP4 SWAP1 MSTORE PUSH1 0x1 PUSH1 0x1 PUSH1 0xA0 SHL SUB SWAP1 SWAP2 AND SWAP1 PUSH4 0x23B872DD SWAP1 PUSH1 0x64 ADD PUSH1 0x20 PUSH1 0x40 MLOAD DUP1 DUP4 SUB DUP2 PUSH0 DUP8 GAS CALL ISZERO DUP1 ISZERO PUSH2 0x677 JUMPI RETURNDATASIZE PUSH0 DUP1 RETURNDATACOPY RETURNDATASIZE PUSH0 REVERT JUMPDEST POP POP POP POP PUSH1 0x40 MLOAD RETURNDATASIZE PUSH1 0x1F NOT PUSH1 0x1F DUP3 ADD AND DUP3 ADD DUP1 PUSH1 0x40 MSTORE POP DUP2 ADD SWAP1 PUSH2 0x69B SWAP2 SWAP1 PUSH2 0x1F2A JUMP JUMPDEST PUSH2 0x6B7 JUMPI PUSH1 0x40 MLOAD PUSH3 0x461BCD PUSH1 0xE5 SHL DUP2 MSTORE PUSH1 0x4 ADD PUSH2 0x58F SWAP1 PUSH2 0x1F45 JUMP JUMPDEST DUP2 PUSH1 0xA PUSH0 DUP3 DUP3 SLOAD PUSH2 0x6C8 SWAP2 SWAP1 PUSH2 0x1F82 JUMP JUMPDEST SWAP3 POP POP DUP2 SWAP1 SSTORE POP DUP1 PUSH1 0xC PUSH0 DUP3 DUP3 SLOAD PUSH2 0x6E0 SWAP2 SWAP1 PUSH2 0x1F82 JUMP JUMPDEST SWAP1 SWAP2 SSTORE POP POP CALLER PUSH0 SWAP1 DUP2 MSTORE PUSH1 0xE PUSH1 0x20 MSTORE PUSH1 0x40 DUP2 KECCAK256 DUP1 SLOAD DUP5 SWAP3 SWAP1 PUSH2 0x703 SWAP1 DUP5 SWAP1 PUSH2 0x1F82 JUMP JUMPDEST SWAP1 SWAP2 SSTORE POP POP PUSH1 0x9 SLOAD PUSH1 0x40 MLOAD PUSH4 0x24D79A43 PUSH1 0xE0 SHL DUP2 MSTORE CALLER PUSH1 0x4 DUP3 ADD MSTORE ADDRESS PUSH1 0x24 DUP3 ADD MSTORE PUSH1 0x44 DUP2 ADD DUP5 SWAP1 MSTORE PUSH1 0x1 PUSH1 0x64 DUP3 ADD MSTORE PUSH1 0x1 PUSH1 0x1 PUSH1 0xA0 SHL SUB SWAP1 SWAP2 AND SWAP1 PUSH4 0x24D79A43 SWAP1 PUSH1 0x84 ADD JUMPDEST PUSH1 0x20 PUSH1 0x40 MLOAD DUP1 DUP4 SUB DUP2 PUSH0 DUP8 GAS CALL ISZERO DUP1 ISZERO PUSH2 0x764 JUMPI RETURNDATASIZE PUSH0 DUP1 RETURNDATACOPY RETURNDATASIZE PUSH0 REVERT JUMPDEST POP POP POP POP PUSH1 0x40 MLOAD RETURNDATASIZE PUSH1 0x1F NOT PUSH1 0x1F DUP3 ADD AND DUP3 ADD DUP1 PUSH1 0x40 MSTORE POP DUP2 ADD SWAP1 PUSH2 0x788 SWAP2 SWAP1 PUSH2 0x1F95 JUMP JUMPDEST POP POP POP JUMP JUMPDEST PUSH0 DUP1 PUSH0 PUSH2 0x798 PUSH2 0x179B JUMP JUMPDEST POP SWAP1 POP PUSH8 0xDE0B6B3A7640000 PUSH2 0x7AF DUP3 PUSH1 0x64 PUSH2 0x1FAC JUMP JUMPDEST PUSH2 0x7B9 SWAP2 SWAP1 PUSH2 0x1FC3 JUMP JUMPDEST SWAP3 POP PUSH2 0x7C6 DUP4 PUSH1 0x64 PUSH2 0x1FE2 JUMP JUMPDEST SWAP2 POP POP SWAP1 SWAP2 JUMP JUMPDEST PUSH0 PUSH1 0x2 PUSH1 0x4 DUP1 SLOAD PUSH1 0xFF AND SWAP1 DUP2 GT ISZERO PUSH2 0x7E7 JUMPI PUSH2 0x7E7 PUSH2 0x1CD8 JUMP JUMPDEST EQ SWAP1 POP SWAP1 JUMP JUMPDEST PUSH2 0x81C PUSH1 0x40 DUP1 MLOAD PUSH1 0xA0 DUP2 ADD DUP3 MSTORE PUSH0 DUP1 DUP3 MSTORE PUSH1 0x60 PUSH1 0x20 DUP4 ADD DUP2 SWAP1 MSTORE SWAP3 DUP3 ADD DUP2 SWAP1 MSTORE SWAP2 DUP2 ADD DUP3 SWAP1 MSTORE SWAP1 PUSH1 0x80 DUP3 ADD MSTORE SWAP1 JUMP JUMPDEST PUSH1 0x40 DUP1 MLOAD PUSH1 0xA0 DUP2 ADD SWAP1 SWAP2 MSTORE PUSH0 DUP1 SLOAD DUP3 MSTORE PUSH1 0x1 DUP1 SLOAD PUSH1 0x20 DUP5 ADD SWAP2 SWAP1 PUSH2 0x83F SWAP1 PUSH2 0x1EC9 JUMP JUMPDEST DUP1 PUSH1 0x1F ADD PUSH1 0x20 DUP1 SWAP2 DIV MUL PUSH1 0x20 ADD PUSH1 0x40 MLOAD SWAP1 DUP2 ADD PUSH1 0x40 MSTORE DUP1 SWAP3 SWAP2 SWAP1 DUP2 DUP2 MSTORE PUSH1 0x20 ADD DUP3 DUP1 SLOAD PUSH2 0x86B SWAP1 PUSH2 0x1EC9 JUMP JUMPDEST DUP1 ISZERO PUSH2 0x8B6 JUMPI DUP1 PUSH1 0x1F LT PUSH2 0x88D JUMPI PUSH2 0x100 DUP1 DUP4 SLOAD DIV MUL DUP4 MSTORE SWAP2 PUSH1 0x20 ADD SWAP2 PUSH2 0x8B6 JUMP JUMPDEST DUP3 ADD SWAP2 SWAP1 PUSH0 MSTORE PUSH1 0x20 PUSH0 KECCAK256 SWAP1 JUMPDEST DUP2 SLOAD DUP2 MSTORE SWAP1 PUSH1 0x1 ADD SWAP1 PUSH1 0x20 ADD DUP1 DUP4 GT PUSH2 0x899 JUMPI DUP3 SWAP1 SUB PUSH1 0x1F AND DUP3 ADD SWAP2 JUMPDEST POP POP POP SWAP2 DUP4 MSTORE POP POP PUSH1 0x2 DUP3 ADD SLOAD PUSH1 0x1 PUSH1 0x1 PUSH1 0xA0 SHL SUB AND PUSH1 0x20 DUP3 ADD MSTORE PUSH1 0x3 DUP3 ADD SLOAD PUSH1 0x40 DUP3 ADD MSTORE PUSH1 0x4 DUP1 DUP4 ADD SLOAD PUSH1 0x60 SWAP1 SWAP3 ADD SWAP2 PUSH1 0xFF AND SWAP1 DUP2 GT ISZERO PUSH2 0x8FA JUMPI PUSH2 0x8FA PUSH2 0x1CD8 JUMP JUMPDEST PUSH1 0x4 DUP2 GT ISZERO PUSH2 0x90B JUMPI PUSH2 0x90B PUSH2 0x1CD8 JUMP JUMPDEST SWAP1 MSTORE POP SWAP2 SWAP1 POP JUMP JUMPDEST PUSH1 0x6 SLOAD PUSH1 0x40 MLOAD PUSH4 0x935E01B PUSH1 0xE2 SHL DUP2 MSTORE CALLER PUSH1 0x4 DUP3 ADD MSTORE PUSH1 0x1 PUSH1 0x1 PUSH1 0xA0 SHL SUB SWAP1 SWAP2 AND SWAP1 PUSH4 0x24D7806C SWAP1 PUSH1 0x24 ADD PUSH1 0x20 PUSH1 0x40 MLOAD DUP1 DUP4 SUB DUP2 DUP7 GAS STATICCALL ISZERO DUP1 ISZERO PUSH2 0x959 JUMPI RETURNDATASIZE PUSH0 DUP1 RETURNDATACOPY RETURNDATASIZE PUSH0 REVERT JUMPDEST POP POP POP POP PUSH1 0x40 MLOAD RETURNDATASIZE PUSH1 0x1F NOT PUSH1 0x1F DUP3 ADD AND DUP3 ADD DUP1 PUSH1 0x40 MSTORE POP DUP2 ADD SWAP1 PUSH2 0x97D SWAP2 SWAP1 PUSH2 0x1F2A JUMP JUMPDEST PUSH2 0x999 JUMPI PUSH1 0x40 MLOAD PUSH3 0x461BCD PUSH1 0xE5 SHL DUP2 MSTORE PUSH1 0x4 ADD PUSH2 0x58F SWAP1 PUSH2 0x1FF5 JUMP JUMPDEST PUSH1 0x9 DUP1 SLOAD PUSH1 0x1 PUSH1 0x1 PUSH1 0xA0 SHL SUB NOT AND PUSH1 0x1 PUSH1 0x1 PUSH1 0xA0 SHL SUB SWAP3 SWAP1 SWAP3 AND SWAP2 SWAP1 SWAP2 OR SWAP1 SSTORE JUMP JUMPDEST PUSH1 0x1 PUSH1 0x4 DUP1 SLOAD PUSH1 0xFF AND SWAP1 DUP2 GT ISZERO PUSH2 0x9D4 JUMPI PUSH2 0x9D4 PUSH2 0x1CD8 JUMP JUMPDEST EQ PUSH2 0x9F1 JUMPI PUSH1 0x40 MLOAD PUSH3 0x461BCD PUSH1 0xE5 SHL DUP2 MSTORE PUSH1 0x4 ADD PUSH2 0x58F SWAP1 PUSH2 0x1F01 JUMP JUMPDEST PUSH1 0x3 SLOAD TIMESTAMP LT PUSH2 0xA32 JUMPI PUSH1 0x40 MLOAD PUSH3 0x461BCD PUSH1 0xE5 SHL DUP2 MSTORE PUSH1 0x20 PUSH1 0x4 DUP3 ADD MSTORE PUSH1 0xD PUSH1 0x24 DUP3 ADD MSTORE PUSH13 0x13585C9AD95D0818DB1BDCD959 PUSH1 0x9A SHL PUSH1 0x44 DUP3 ADD MSTORE PUSH1 0x64 ADD PUSH2 0x58F JUMP JUMPDEST PUSH0 PUSH2 0xA3C DUP3 PUSH2 0x13D5 JUMP JUMPDEST PUSH1 0x5 SLOAD PUSH1 0x40 MLOAD PUSH4 0x23B872DD PUSH1 0xE0 SHL DUP2 MSTORE CALLER PUSH1 0x4 DUP3 ADD MSTORE ADDRESS PUSH1 0x24 DUP3 ADD MSTORE PUSH1 0x44 DUP2 ADD DUP4 SWAP1 MSTORE SWAP2 SWAP3 POP PUSH1 0x1 PUSH1 0x1 PUSH1 0xA0 SHL SUB AND SWAP1 PUSH4 0x23B872DD SWAP1 PUSH1 0x64 ADD PUSH1 0x20 PUSH1 0x40 MLOAD DUP1 DUP4 SUB DUP2 PUSH0 DUP8 GAS CALL ISZERO DUP1 ISZERO PUSH2 0xA91 JUMPI RETURNDATASIZE PUSH0 DUP1 RETURNDATACOPY RETURNDATASIZE PUSH0 REVERT JUMPDEST POP POP POP POP PUSH1 0x40 MLOAD RETURNDATASIZE PUSH1 0x1F NOT PUSH1 0x1F DUP3 ADD AND DUP3 ADD DUP1 PUSH1 0x40 MSTORE POP DUP2 ADD SWAP1 PUSH2 0xAB5 SWAP2 SWAP1 PUSH2 0x1F2A JUMP JUMPDEST PUSH2 0xAD1 JUMPI PUSH1 0x40 MLOAD PUSH3 0x461BCD PUSH1 0xE5 SHL DUP2 MSTORE PUSH1 0x4 ADD PUSH2 0x58F SWAP1 PUSH2 0x1F45 JUMP JUMPDEST DUP2 PUSH1 0xB PUSH0 DUP3 DUP3 SLOAD PUSH2 0xAE2 SWAP2 SWAP1 PUSH2 0x1F82 JUMP JUMPDEST SWAP3 POP POP DUP2 SWAP1 SSTORE POP DUP1 PUSH1 0xC PUSH0 DUP3 DUP3 SLOAD PUSH2 0xAFA SWAP2 SWAP1 PUSH2 0x1F82 JUMP JUMPDEST SWAP1 SWAP2 SSTORE POP POP CALLER PUSH0 SWAP1 DUP2 MSTORE PUSH1 0xF PUSH1 0x20 MSTORE PUSH1 0x40 DUP2 KECCAK256 DUP1 SLOAD DUP5 SWAP3 SWAP1 PUSH2 0xB1D SWAP1 DUP5 SWAP1 PUSH2 0x1F82 JUMP JUMPDEST SWAP1 SWAP2 SSTORE POP POP PUSH1 0x9 SLOAD PUSH1 0x40 MLOAD PUSH4 0x24D79A43 PUSH1 0xE0 SHL DUP2 MSTORE CALLER PUSH1 0x4 DUP3 ADD MSTORE ADDRESS PUSH1 0x24 DUP3 ADD MSTORE PUSH1 0x44 DUP2 ADD DUP5 SWAP1 MSTORE PUSH0 PUSH1 0x64 DUP3 ADD MSTORE PUSH1 0x1 PUSH1 0x1 PUSH1 0xA0 SHL SUB SWAP1 SWAP2 AND SWAP1 PUSH4 0x24D79A43 SWAP1 PUSH1 0x84 ADD PUSH2 0x748 JUMP JUMPDEST PUSH1 0x6 SLOAD PUSH1 0x40 MLOAD PUSH4 0x935E01B PUSH1 0xE2 SHL DUP2 MSTORE CALLER PUSH1 0x4 DUP3 ADD MSTORE PUSH1 0x1 PUSH1 0x1 PUSH1 0xA0 SHL SUB SWAP1 SWAP2 AND SWAP1 PUSH4 0x24D7806C SWAP1 PUSH1 0x24 ADD PUSH1 0x20 PUSH1 0x40 MLOAD DUP1 DUP4 SUB DUP2 DUP7 GAS STATICCALL ISZERO DUP1 ISZERO PUSH2 0xBAB JUMPI RETURNDATASIZE PUSH0 DUP1 RETURNDATACOPY RETURNDATASIZE PUSH0 REVERT JUMPDEST POP POP POP POP PUSH1 0x40 MLOAD RETURNDATASIZE PUSH1 0x1F NOT PUSH1 0x1F DUP3 ADD AND DUP3 ADD DUP1 PUSH1 0x40 MSTORE POP DUP2 ADD SWAP1 PUSH2 0xBCF SWAP2 SWAP1 PUSH2 0x1F2A JUMP JUMPDEST PUSH2 0xBEB JUMPI PUSH1 0x40 MLOAD PUSH3 0x461BCD PUSH1 0xE5 SHL DUP2 MSTORE PUSH1 0x4 ADD PUSH2 0x58F SWAP1 PUSH2 0x1FF5 JUMP JUMPDEST PUSH0 PUSH1 0x4 DUP1 SLOAD PUSH1 0xFF AND SWAP1 DUP2 GT ISZERO PUSH2 0xC03 JUMPI PUSH2 0xC03 PUSH2 0x1CD8 JUMP JUMPDEST EQ PUSH2 0xC4B JUMPI PUSH1 0x40 MLOAD PUSH3 0x461BCD PUSH1 0xE5 SHL DUP2 MSTORE PUSH1 0x20 PUSH1 0x4 DUP3 ADD MSTORE PUSH1 0x18 PUSH1 0x24 DUP3 ADD MSTORE PUSH24 0x13585C9AD95D081B5D5CDD081899481CDD589B5A5D1D1959 PUSH1 0x42 SHL PUSH1 0x44 DUP3 ADD MSTORE PUSH1 0x64 ADD PUSH2 0x58F JUMP JUMPDEST PUSH1 0x4 DUP1 SLOAD DUP2 SWAP1 PUSH1 0xFF NOT AND PUSH1 0x1 DUP3 JUMPDEST MUL OR SWAP1 SSTORE POP JUMP JUMPDEST PUSH1 0x9 SLOAD PUSH1 0x1 PUSH1 0x1 PUSH1 0xA0 SHL SUB AND CALLER EQ PUSH2 0xCBA JUMPI PUSH1 0x40 MLOAD PUSH3 0x461BCD PUSH1 0xE5 SHL DUP2 MSTORE PUSH1 0x20 PUSH1 0x4 DUP3 ADD MSTORE PUSH1 0x1F PUSH1 0x24 DUP3 ADD MSTORE PUSH32 0x4F6E6C79204265744E46542063616E207472616E736665722073686172657300 PUSH1 0x44 DUP3 ADD MSTORE PUSH1 0x64 ADD PUSH2 0x58F JUMP JUMPDEST PUSH1 0x1 PUSH1 0x4 DUP1 SLOAD PUSH1 0xFF AND SWAP1 DUP2 GT ISZERO PUSH2 0xCD3 JUMPI PUSH2 0xCD3 PUSH2 0x1CD8 JUMP JUMPDEST EQ PUSH2 0xCF0 JUMPI PUSH1 0x40 MLOAD PUSH3 0x461BCD PUSH1 0xE5 SHL DUP2 MSTORE PUSH1 0x4 ADD PUSH2 0x58F SWAP1 PUSH2 0x1F01 JUMP JUMPDEST DUP1 ISZERO PUSH2 0xDBB JUMPI PUSH1 0x1 PUSH1 0x1 PUSH1 0xA0 SHL SUB DUP5 AND PUSH0 SWAP1 DUP2 MSTORE PUSH1 0xE PUSH1 0x20 MSTORE PUSH1 0x40 SWAP1 KECCAK256 SLOAD DUP3 GT ISZERO PUSH2 0xD5D JUMPI PUSH1 0x40 MLOAD PUSH3 0x461BCD PUSH1 0xE5 SHL DUP2 MSTORE PUSH1 0x20 PUSH1 0x4 DUP3 ADD MSTORE PUSH1 0x18 PUSH1 0x24 DUP3 ADD MSTORE PUSH32 0x496E73756666696369656E74205945532062616C616E63650000000000000000 PUSH1 0x44 DUP3 ADD MSTORE PUSH1 0x64 ADD PUSH2 0x58F JUMP JUMPDEST PUSH1 0x1 PUSH1 0x1 PUSH1 0xA0 SHL SUB DUP5 AND PUSH0 SWAP1 DUP2 MSTORE PUSH1 0xE PUSH1 0x20 MSTORE PUSH1 0x40 DUP2 KECCAK256 DUP1 SLOAD DUP5 SWAP3 SWAP1 PUSH2 0xD84 SWAP1 DUP5 SWAP1 PUSH2 0x1FE2 JUMP JUMPDEST SWAP1 SWAP2 SSTORE POP POP PUSH1 0x1 PUSH1 0x1 PUSH1 0xA0 SHL SUB DUP4 AND PUSH0 SWAP1 DUP2 MSTORE PUSH1 0xE PUSH1 0x20 MSTORE PUSH1 0x40 DUP2 KECCAK256 DUP1 SLOAD DUP5 SWAP3 SWAP1 PUSH2 0xDB0 SWAP1 DUP5 SWAP1 PUSH2 0x1F82 JUMP JUMPDEST SWAP1 SWAP2 SSTORE POP PUSH2 0xE7B SWAP1 POP JUMP JUMPDEST PUSH1 0x1 PUSH1 0x1 PUSH1 0xA0 SHL SUB DUP5 AND PUSH0 SWAP1 DUP2 MSTORE PUSH1 0xF PUSH1 0x20 MSTORE PUSH1 0x40 SWAP1 KECCAK256 SLOAD DUP3 GT ISZERO PUSH2 0xE22 JUMPI PUSH1 0x40 MLOAD PUSH3 0x461BCD PUSH1 0xE5 SHL DUP2 MSTORE PUSH1 0x20 PUSH1 0x4 DUP3 ADD MSTORE PUSH1 0x17 PUSH1 0x24 DUP3 ADD MSTORE PUSH32 0x496E73756666696369656E74204E4F2062616C616E6365000000000000000000 PUSH1 0x44 DUP3 ADD MSTORE PUSH1 0x64 ADD PUSH2 0x58F JUMP JUMPDEST PUSH1 0x1 PUSH1 0x1 PUSH1 0xA0 SHL SUB DUP5 AND PUSH0 SWAP1 DUP2 MSTORE PUSH1 0xF PUSH1 0x20 MSTORE PUSH1 0x40 DUP2 KECCAK256 DUP1 SLOAD DUP5 SWAP3 SWAP1 PUSH2 0xE49 SWAP1 DUP5 SWAP1 PUSH2 0x1FE2 JUMP JUMPDEST SWAP1 SWAP2 SSTORE POP POP PUSH1 0x1 PUSH1 0x1 PUSH1 0xA0 SHL SUB DUP4 AND PUSH0 SWAP1 DUP2 MSTORE PUSH1 0xF PUSH1 0x20 MSTORE PUSH1 0x40 DUP2 KECCAK256 DUP1 SLOAD DUP5 SWAP3 SWAP1 PUSH2 0xE75 SWAP1 DUP5 SWAP1 PUSH2 0x1F82 JUMP JUMPDEST SWAP1 SWAP2 SSTORE POP POP JUMPDEST POP POP POP POP JUMP JUMPDEST PUSH1 0x6 PUSH0 SWAP1 SLOAD SWAP1 PUSH2 0x100 EXP SWAP1 DIV PUSH1 0x1 PUSH1 0x1 PUSH1 0xA0 SHL SUB AND PUSH1 0x1 PUSH1 0x1 PUSH1 0xA0 SHL SUB AND PUSH4 0x29575F6A PUSH1 0x40 MLOAD DUP2 PUSH4 0xFFFFFFFF AND PUSH1 0xE0 SHL DUP2 MSTORE PUSH1 0x4 ADD PUSH1 0x20 PUSH1 0x40 MLOAD DUP1 DUP4 SUB DUP2 DUP7 GAS STATICCALL ISZERO DUP1 ISZERO PUSH2 0xED1 JUMPI RETURNDATASIZE PUSH0 DUP1 RETURNDATACOPY RETURNDATASIZE PUSH0 REVERT JUMPDEST POP POP POP POP PUSH1 0x40 MLOAD RETURNDATASIZE PUSH1 0x1F NOT PUSH1 0x1F DUP3 ADD AND DUP3 ADD DUP1 PUSH1 0x40 MSTORE POP DUP2 ADD SWAP1 PUSH2 0xEF5 SWAP2 SWAP1 PUSH2 0x2018 JUMP JUMPDEST PUSH1 0x1 PUSH1 0x1 PUSH1 0xA0 SHL SUB AND CALLER PUSH1 0x1 PUSH1 0x1 PUSH1 0xA0 SHL SUB AND EQ PUSH2 0xF47 JUMPI PUSH1 0x40 MLOAD PUSH3 0x461BCD PUSH1 0xE5 SHL DUP2 MSTORE PUSH1 0x20 PUSH1 0x4 DUP3 ADD MSTORE PUSH1 0xF PUSH1 0x24 DUP3 ADD MSTORE PUSH15 0x2737BA1039BAB832B91030B236B4B7 PUSH1 0x89 SHL PUSH1 0x44 DUP3 ADD MSTORE PUSH1 0x64 ADD PUSH2 0x58F JUMP JUMPDEST PUSH2 0x3E8 DUP2 GT ISZERO PUSH2 0xF8D JUMPI PUSH1 0x40 MLOAD PUSH3 0x461BCD PUSH1 0xE5 SHL DUP2 MSTORE PUSH1 0x20 PUSH1 0x4 DUP3 ADD MSTORE PUSH1 0x11 PUSH1 0x24 DUP3 ADD MSTORE PUSH17 0x8CCACA40E4C2E8CA40E8DEDE40D0D2CED PUSH1 0x7B SHL PUSH1 0x44 DUP3 ADD MSTORE PUSH1 0x64 ADD PUSH2 0x58F JUMP JUMPDEST PUSH1 0xD DUP1 SLOAD SWAP1 DUP3 SWAP1 SSTORE PUSH1 0x40 DUP1 MLOAD DUP3 DUP2 MSTORE PUSH1 0x20 DUP2 ADD DUP5 SWAP1 MSTORE CALLER DUP2 DUP4 ADD MSTORE SWAP1 MLOAD PUSH32 0x4248DA20612241EB3BD94C12B3DCA31834A452E019BD91F94DE1E1BEC0EEC7D7 SWAP2 DUP2 SWAP1 SUB PUSH1 0x60 ADD SWAP1 LOG1 POP POP JUMP JUMPDEST PUSH1 0x3 PUSH1 0x4 DUP1 SLOAD PUSH1 0xFF AND SWAP1 DUP2 GT ISZERO PUSH2 0xFF1 JUMPI PUSH2 0xFF1 PUSH2 0x1CD8 JUMP JUMPDEST EQ PUSH2 0x102D JUMPI PUSH1 0x40 MLOAD PUSH3 0x461BCD PUSH1 0xE5 SHL DUP2 MSTORE PUSH1 0x20 PUSH1 0x4 DUP3 ADD MSTORE PUSH1 0xC PUSH1 0x24 DUP3 ADD MSTORE PUSH12 0x139BDD081C995CDBDB1D9959 PUSH1 0xA2 SHL PUSH1 0x44 DUP3 ADD MSTORE PUSH1 0x64 ADD PUSH2 0x58F JUMP JUMPDEST PUSH0 DUP1 PUSH1 0x1 PUSH1 0x10 SLOAD PUSH1 0xFF AND PUSH1 0x2 DUP2 GT ISZERO PUSH2 0x1048 JUMPI PUSH2 0x1048 PUSH2 0x1CD8 JUMP JUMPDEST SUB PUSH2 0x106C JUMPI POP POP CALLER PUSH0 SWAP1 DUP2 MSTORE PUSH1 0xE PUSH1 0x20 MSTORE PUSH1 0x40 DUP2 KECCAK256 DUP1 SLOAD PUSH1 0xA SLOAD SWAP3 SWAP1 SWAP2 SSTORE SWAP1 PUSH2 0x10A5 JUMP JUMPDEST PUSH1 0x2 PUSH1 0x10 SLOAD PUSH1 0xFF AND PUSH1 0x2 DUP2 GT ISZERO PUSH2 0x1085 JUMPI PUSH2 0x1085 PUSH2 0x1CD8 JUMP JUMPDEST SUB PUSH2 0x10A5 JUMPI POP POP CALLER PUSH0 SWAP1 DUP2 MSTORE PUSH1 0xF PUSH1 0x20 MSTORE PUSH1 0x40 DUP2 KECCAK256 DUP1 SLOAD PUSH1 0xB SLOAD SWAP3 SWAP1 SWAP2 SSTORE SWAP1 JUMPDEST PUSH0 DUP3 GT PUSH2 0x10E8 JUMPI PUSH1 0x40 MLOAD PUSH3 0x461BCD PUSH1 0xE5 SHL DUP2 MSTORE PUSH1 0x20 PUSH1 0x4 DUP3 ADD MSTORE PUSH1 0x11 PUSH1 0x24 DUP3 ADD MSTORE PUSH17 0x4E6F7468696E6720746F2072656465656D PUSH1 0x78 SHL PUSH1 0x44 DUP3 ADD MSTORE PUSH1 0x64 ADD PUSH2 0x58F JUMP JUMPDEST PUSH0 DUP2 GT PUSH2 0x112B JUMPI PUSH1 0x40 MLOAD PUSH3 0x461BCD PUSH1 0xE5 SHL DUP2 MSTORE PUSH1 0x20 PUSH1 0x4 DUP3 ADD MSTORE PUSH1 0x11 PUSH1 0x24 DUP3 ADD MSTORE PUSH17 0x4E6F2077696E6E696E6720736861726573 PUSH1 0x78 SHL PUSH1 0x44 DUP3 ADD MSTORE PUSH1 0x64 ADD PUSH2 0x58F JUMP JUMPDEST PUSH0 DUP2 PUSH1 0xC SLOAD DUP5 PUSH2 0x113B SWAP2 SWAP1 PUSH2 0x1FAC JUMP JUMPDEST PUSH2 0x1145 SWAP2 SWAP1 PUSH2 0x1FC3 JUMP JUMPDEST SWAP1 POP PUSH0 DUP2 GT PUSH2 0x118C JUMPI PUSH1 0x40 MLOAD PUSH3 0x461BCD PUSH1 0xE5 SHL DUP2 MSTORE PUSH1 0x20 PUSH1 0x4 DUP3 ADD MSTORE PUSH1 0x13 PUSH1 0x24 DUP3 ADD MSTORE PUSH19 0x4E6F207061796F757420617661696C61626C65 PUSH1 0x68 SHL PUSH1 0x44 DUP3 ADD MSTORE PUSH1 0x64 ADD PUSH2 0x58F JUMP JUMPDEST PUSH1 0x5 SLOAD PUSH1 0x40 MLOAD PUSH4 0xA9059CBB PUSH1 0xE0 SHL DUP2 MSTORE CALLER PUSH1 0x4 DUP3 ADD MSTORE PUSH1 0x24 DUP2 ADD DUP4 SWAP1 MSTORE PUSH1 0x1 PUSH1 0x1 PUSH1 0xA0 SHL SUB SWAP1 SWAP2 AND SWAP1 PUSH4 0xA9059CBB SWAP1 PUSH1 0x44 ADD PUSH1 0x20 PUSH1 0x40 MLOAD DUP1 DUP4 SUB DUP2 PUSH0 DUP8 GAS CALL ISZERO DUP1 ISZERO PUSH2 0x11DA JUMPI RETURNDATASIZE PUSH0 DUP1 RETURNDATACOPY RETURNDATASIZE PUSH0 REVERT JUMPDEST POP POP POP POP PUSH1 0x40 MLOAD RETURNDATASIZE PUSH1 0x1F NOT PUSH1 0x1F DUP3 ADD AND DUP3 ADD DUP1 PUSH1 0x40 MSTORE POP DUP2 ADD SWAP1 PUSH2 0x11FE SWAP2 SWAP1 PUSH2 0x1F2A JUMP JUMPDEST PUSH2 0x788 JUMPI PUSH1 0x40 MLOAD PUSH3 0x461BCD PUSH1 0xE5 SHL DUP2 MSTORE PUSH1 0x4 ADD PUSH2 0x58F SWAP1 PUSH2 0x1F45 JUMP JUMPDEST PUSH1 0x6 SLOAD PUSH1 0x40 MLOAD PUSH4 0x935E01B PUSH1 0xE2 SHL DUP2 MSTORE CALLER PUSH1 0x4 DUP3 ADD MSTORE PUSH1 0x1 PUSH1 0x1 PUSH1 0xA0 SHL SUB SWAP1 SWAP2 AND SWAP1 PUSH4 0x24D7806C SWAP1 PUSH1 0x24 ADD PUSH1 0x20 PUSH1 0x40 MLOAD DUP1 DUP4 SUB DUP2 DUP7 GAS STATICCALL ISZERO DUP1 ISZERO PUSH2 0x1260 JUMPI RETURNDATASIZE PUSH0 DUP1 RETURNDATACOPY RETURNDATASIZE PUSH0 REVERT JUMPDEST POP POP POP POP PUSH1 0x40 MLOAD RETURNDATASIZE PUSH1 0x1F NOT PUSH1 0x1F DUP3 ADD AND DUP3 ADD DUP1 PUSH1 0x40 MSTORE POP DUP2 ADD SWAP1 PUSH2 0x1284 SWAP2 SWAP1 PUSH2 0x1F2A JUMP JUMPDEST PUSH2 0x12A0 JUMPI PUSH1 0x40 MLOAD PUSH3 0x461BCD PUSH1 0xE5 SHL DUP2 MSTORE PUSH1 0x4 ADD PUSH2 0x58F SWAP1 PUSH2 0x1FF5 JUMP JUMPDEST PUSH0 PUSH1 0x4 DUP1 SLOAD PUSH1 0xFF AND SWAP1 DUP2 GT ISZERO PUSH2 0x12B8 JUMPI PUSH2 0x12B8 PUSH2 0x1CD8 JUMP JUMPDEST EQ PUSH2 0x1300 JUMPI PUSH1 0x40 MLOAD PUSH3 0x461BCD PUSH1 0xE5 SHL DUP2 MSTORE PUSH1 0x20 PUSH1 0x4 DUP3 ADD MSTORE PUSH1 0x18 PUSH1 0x24 DUP3 ADD MSTORE PUSH24 0x13585C9AD95D081B5D5CDD081899481CDD589B5A5D1D1959 PUSH1 0x42 SHL PUSH1 0x44 DUP3 ADD MSTORE PUSH1 0x64 ADD PUSH2 0x58F JUMP JUMPDEST PUSH1 0x4 DUP1 SLOAD PUSH1 0x1 SWAP2 SWAP1 PUSH1 0xFF NOT AND DUP3 DUP1 PUSH2 0xC59 JUMP JUMPDEST PUSH0 DUP2 PUSH0 SUB PUSH2 0x1322 JUMPI POP PUSH0 SWAP2 SWAP1 POP JUMP JUMPDEST PUSH0 PUSH1 0xB SLOAD PUSH1 0xA SLOAD PUSH2 0x1333 SWAP2 SWAP1 PUSH2 0x1F82 JUMP JUMPDEST SWAP1 POP PUSH0 PUSH2 0x1340 DUP5 DUP4 PUSH2 0x1F82 JUMP JUMPDEST SWAP1 POP PUSH0 DUP3 PUSH1 0xA SLOAD PUSH8 0xDE0B6B3A7640000 PUSH2 0x135A SWAP2 SWAP1 PUSH2 0x1FAC JUMP JUMPDEST PUSH2 0x1364 SWAP2 SWAP1 PUSH2 0x1FC3 JUMP JUMPDEST SWAP1 POP PUSH0 DUP3 DUP7 PUSH1 0xA SLOAD PUSH2 0x1376 SWAP2 SWAP1 PUSH2 0x1F82 JUMP JUMPDEST PUSH2 0x1388 SWAP1 PUSH8 0xDE0B6B3A7640000 PUSH2 0x1FAC JUMP JUMPDEST PUSH2 0x1392 SWAP2 SWAP1 PUSH2 0x1FC3 JUMP JUMPDEST SWAP1 POP PUSH0 PUSH1 0x2 PUSH2 0x13A1 DUP4 DUP6 PUSH2 0x1F82 JUMP JUMPDEST PUSH2 0x13AB SWAP2 SWAP1 PUSH2 0x1FC3 JUMP JUMPDEST SWAP1 POP PUSH8 0xDE0B6B3A7640000 PUSH2 0x13C0 DUP9 DUP4 PUSH2 0x1FAC JUMP JUMPDEST PUSH2 0x13CA SWAP2 SWAP1 PUSH2 0x1FC3 JUMP JUMPDEST SWAP8 SWAP7 POP POP POP POP POP POP POP JUMP JUMPDEST PUSH0 DUP2 PUSH0 SUB PUSH2 0x13E4 JUMPI POP PUSH0 SWAP2 SWAP1 POP JUMP JUMPDEST PUSH0 PUSH1 0xB SLOAD PUSH1 0xA SLOAD PUSH2 0x13F5 SWAP2 SWAP1 PUSH2 0x1F82 JUMP JUMPDEST SWAP1 POP PUSH0 PUSH2 0x1402 DUP5 DUP4 PUSH2 0x1F82 JUMP JUMPDEST SWAP1 POP PUSH0 DUP3 PUSH1 0xB SLOAD PUSH8 0xDE0B6B3A7640000 PUSH2 0x141C SWAP2 SWAP1 PUSH2 0x1FAC JUMP JUMPDEST PUSH2 0x1426 SWAP2 SWAP1 PUSH2 0x1FC3 JUMP JUMPDEST SWAP1 POP PUSH0 DUP3 DUP7 PUSH1 0xB SLOAD PUSH2 0x1376 SWAP2 SWAP1 PUSH2 0x1F82 JUMP JUMPDEST PUSH1 0x6 SLOAD PUSH1 0x40 MLOAD PUSH4 0x935E01B PUSH1 0xE2 SHL DUP2 MSTORE CALLER PUSH1 0x4 DUP3 ADD MSTORE PUSH1 0x1 PUSH1 0x1 PUSH1 0xA0 SHL SUB SWAP1 SWAP2 AND SWAP1 PUSH4 0x24D7806C SWAP1 PUSH1 0x24 ADD PUSH1 0x20 PUSH1 0x40 MLOAD DUP1 DUP4 SUB DUP2 DUP7 GAS STATICCALL ISZERO DUP1 ISZERO PUSH2 0x147E JUMPI RETURNDATASIZE PUSH0 DUP1 RETURNDATACOPY RETURNDATASIZE PUSH0 REVERT JUMPDEST POP POP POP POP PUSH1 0x40 MLOAD RETURNDATASIZE PUSH1 0x1F NOT PUSH1 0x1F DUP3 ADD AND DUP3 ADD DUP1 PUSH1 0x40 MSTORE POP DUP2 ADD SWAP1 PUSH2 0x14A2 SWAP2 SWAP1 PUSH2 0x1F2A JUMP JUMPDEST PUSH2 0x14BE JUMPI PUSH1 0x40 MLOAD PUSH3 0x461BCD PUSH1 0xE5 SHL DUP2 MSTORE PUSH1 0x4 ADD PUSH2 0x58F SWAP1 PUSH2 0x1FF5 JUMP JUMPDEST PUSH1 0x2 PUSH1 0x4 DUP1 SLOAD PUSH1 0xFF AND SWAP1 DUP2 GT ISZERO PUSH2 0x14D7 JUMPI PUSH2 0x14D7 PUSH2 0x1CD8 JUMP JUMPDEST EQ PUSH2 0x1524 JUMPI PUSH1 0x40 MLOAD PUSH3 0x461BCD PUSH1 0xE5 SHL DUP2 MSTORE PUSH1 0x20 PUSH1 0x4 DUP3 ADD MSTORE PUSH1 0x1D PUSH1 0x24 DUP3 ADD MSTORE PUSH32 0x4D75737420626520696E2070656E64696E67207265736F6C7574696F6E000000 PUSH1 0x44 DUP3 ADD MSTORE PUSH1 0x64 ADD PUSH2 0x58F JUMP JUMPDEST PUSH1 0x64 DUP2 GT ISZERO PUSH2 0x1575 JUMPI PUSH1 0x40 MLOAD PUSH3 0x461BCD PUSH1 0xE5 SHL DUP2 MSTORE PUSH1 0x20 PUSH1 0x4 DUP3 ADD MSTORE PUSH1 0x1F PUSH1 0x24 DUP3 ADD MSTORE PUSH32 0x436F6E666964656E63652073636F7265206D757374206265203C3D2031303000 PUSH1 0x44 DUP3 ADD MSTORE PUSH1 0x64 ADD PUSH2 0x58F JUMP JUMPDEST PUSH1 0x4 DUP1 SLOAD PUSH1 0xFF NOT SWAP1 DUP2 AND PUSH1 0x3 OR SWAP1 SWAP2 SSTORE PUSH1 0x10 DUP1 SLOAD DUP5 SWAP3 AND PUSH1 0x1 DUP4 PUSH1 0x2 DUP2 GT ISZERO PUSH2 0x15A0 JUMPI PUSH2 0x15A0 PUSH2 0x1CD8 JUMP JUMPDEST MUL OR SWAP1 SSTORE POP PUSH1 0x11 DUP2 SWAP1 SSTORE PUSH1 0xC SLOAD PUSH1 0xD SLOAD PUSH0 SWAP1 PUSH2 0x2710 SWAP1 PUSH2 0x15C0 SWAP1 DUP5 PUSH2 0x1FAC JUMP JUMPDEST PUSH2 0x15CA SWAP2 SWAP1 PUSH2 0x1FC3 JUMP JUMPDEST SWAP1 POP DUP1 ISZERO PUSH2 0x16FE JUMPI PUSH1 0x5 SLOAD PUSH1 0x7 SLOAD PUSH1 0x40 MLOAD PUSH4 0x95EA7B3 PUSH1 0xE0 SHL DUP2 MSTORE PUSH1 0x1 PUSH1 0x1 PUSH1 0xA0 SHL SUB SWAP2 DUP3 AND PUSH1 0x4 DUP3 ADD MSTORE PUSH1 0x24 DUP2 ADD DUP5 SWAP1 MSTORE SWAP2 AND SWAP1 PUSH4 0x95EA7B3 SWAP1 PUSH1 0x44 ADD PUSH1 0x20 PUSH1 0x40 MLOAD DUP1 DUP4 SUB DUP2 PUSH0 DUP8 GAS CALL ISZERO DUP1 ISZERO PUSH2 0x1624 JUMPI RETURNDATASIZE PUSH0 DUP1 RETURNDATACOPY RETURNDATASIZE PUSH0 REVERT JUMPDEST POP POP POP POP PUSH1 0x40 MLOAD RETURNDATASIZE PUSH1 0x1F NOT PUSH1 0x1F DUP3 ADD AND DUP3 ADD DUP1 PUSH1 0x40 MSTORE POP DUP2 ADD SWAP1 PUSH2 0x1648 SWAP2 SWAP1 PUSH2 0x1F2A JUMP JUMPDEST PUSH2 0x1686 JUMPI PUSH1 0x40 MLOAD PUSH3 0x461BCD PUSH1 0xE5 SHL DUP2 MSTORE PUSH1 0x20 PUSH1 0x4 DUP3 ADD MSTORE PUSH1 0xF PUSH1 0x24 DUP3 ADD MSTORE PUSH15 0x105C1C1C9BDD985B0819985A5B1959 PUSH1 0x8A SHL PUSH1 0x44 DUP3 ADD MSTORE PUSH1 0x64 ADD PUSH2 0x58F JUMP JUMPDEST PUSH1 0x7 SLOAD PUSH1 0x5 SLOAD PUSH1 0x40 MLOAD PUSH3 0x2C4A69 PUSH1 0xE2 SHL DUP2 MSTORE PUSH1 0x1 PUSH1 0x1 PUSH1 0xA0 SHL SUB SWAP2 DUP3 AND PUSH1 0x4 DUP3 ADD MSTORE PUSH1 0x24 DUP2 ADD DUP5 SWAP1 MSTORE SWAP2 AND SWAP1 PUSH3 0xB129A4 SWAP1 PUSH1 0x44 ADD PUSH0 PUSH1 0x40 MLOAD DUP1 DUP4 SUB DUP2 PUSH0 DUP8 DUP1 EXTCODESIZE ISZERO DUP1 ISZERO PUSH2 0x16D1 JUMPI PUSH0 DUP1 REVERT JUMPDEST POP GAS CALL ISZERO DUP1 ISZERO PUSH2 0x16E3 JUMPI RETURNDATASIZE PUSH0 DUP1 RETURNDATACOPY RETURNDATASIZE PUSH0 REVERT JUMPDEST POP POP POP POP DUP1 PUSH1 0xC PUSH0 DUP3 DUP3 SLOAD PUSH2 0x16F8 SWAP2 SWAP1 PUSH2 0x1FE2 JUMP JUMPDEST SWAP1 SWAP2 SSTORE POP POP JUMPDEST PUSH1 0x8 SLOAD PUSH1 0x2 SLOAD PUSH1 0x40 MLOAD PUSH4 0x33D3043 PUSH1 0xE5 SHL DUP2 MSTORE PUSH1 0x1 PUSH1 0x1 PUSH1 0xA0 SHL SUB SWAP2 DUP3 AND PUSH1 0x4 DUP3 ADD MSTORE SWAP2 AND SWAP1 PUSH4 0x67A60860 SWAP1 PUSH1 0x24 ADD PUSH0 PUSH1 0x40 MLOAD DUP1 DUP4 SUB DUP2 PUSH0 DUP8 DUP1 EXTCODESIZE ISZERO DUP1 ISZERO PUSH2 0x1744 JUMPI PUSH0 DUP1 REVERT JUMPDEST POP GAS CALL ISZERO DUP1 ISZERO PUSH2 0x1756 JUMPI RETURNDATASIZE PUSH0 DUP1 RETURNDATACOPY RETURNDATASIZE PUSH0 REVERT JUMPDEST POP POP POP POP PUSH32 0xA8ED14BE3023745D71C725FF422EFC433F40C534E195516B037E08B840428D89 DUP5 DUP5 TIMESTAMP PUSH1 0x40 MLOAD PUSH2 0x178D SWAP4 SWAP3 SWAP2 SWAP1 PUSH2 0x2033 JUMP JUMPDEST PUSH1 0x40 MLOAD DUP1 SWAP2 SUB SWAP1 LOG1 POP POP POP POP JUMP JUMPDEST PUSH0 DUP1 PUSH0 PUSH1 0xB SLOAD PUSH1 0xA SLOAD PUSH2 0x17AE SWAP2 SWAP1 PUSH2 0x1F82 JUMP JUMPDEST SWAP1 POP DUP1 PUSH0 SUB PUSH2 0x17C9 JUMPI POP PUSH8 0x6F05B59D3B20000 SWAP3 DUP4 SWAP3 POP SWAP1 POP JUMP JUMPDEST DUP1 PUSH1 0xA SLOAD PUSH8 0xDE0B6B3A7640000 PUSH2 0x17E0 SWAP2 SWAP1 PUSH2 0x1FAC JUMP JUMPDEST PUSH2 0x17EA SWAP2 SWAP1 PUSH2 0x1FC3 JUMP JUMPDEST SWAP3 POP PUSH2 0x7C6 DUP4 PUSH8 0xDE0B6B3A7640000 PUSH2 0x1FE2 JUMP JUMPDEST PUSH1 0x6 SLOAD PUSH1 0x40 MLOAD PUSH4 0x935E01B PUSH1 0xE2 SHL DUP2 MSTORE CALLER PUSH1 0x4 DUP3 ADD MSTORE PUSH1 0x1 PUSH1 0x1 PUSH1 0xA0 SHL SUB SWAP1 SWAP2 AND SWAP1 PUSH4 0x24D7806C SWAP1 PUSH1 0x24 ADD PUSH1 0x20 PUSH1 0x40 MLOAD DUP1 DUP4 SUB DUP2 DUP7 GAS STATICCALL ISZERO DUP1 ISZERO PUSH2 0x1844 JUMPI RETURNDATASIZE PUSH0 DUP1 RETURNDATACOPY RETURNDATASIZE PUSH0 REVERT JUMPDEST POP POP POP POP PUSH1 0x40 MLOAD RETURNDATASIZE PUSH1 0x1F NOT PUSH1 0x1F DUP3 ADD AND DUP3 ADD DUP1 PUSH1 0x40 MSTORE POP DUP2 ADD SWAP1 PUSH2 0x1868 SWAP2 SWAP1 PUSH2 0x1F2A JUMP JUMPDEST PUSH2 0x1884 JUMPI PUSH1 0x40 MLOAD PUSH3 0x461BCD PUSH1 0xE5 SHL DUP2 MSTORE PUSH1 0x4 ADD PUSH2 0x58F SWAP1 PUSH2 0x1FF5 JUMP JUMPDEST PUSH1 0x3 SLOAD TIMESTAMP LT ISZERO PUSH2 0x18C2 JUMPI PUSH1 0x40 MLOAD PUSH3 0x461BCD PUSH1 0xE5 SHL DUP2 MSTORE PUSH1 0x20 PUSH1 0x4 DUP3 ADD MSTORE PUSH1 0x9 PUSH1 0x24 DUP3 ADD MSTORE PUSH9 0x546F6F206561726C79 PUSH1 0xB8 SHL PUSH1 0x44 DUP3 ADD MSTORE PUSH1 0x64 ADD PUSH2 0x58F JUMP JUMPDEST PUSH1 0x1 PUSH1 0x4 DUP1 SLOAD PUSH1 0xFF AND SWAP1 DUP2 GT ISZERO PUSH2 0x18DB JUMPI PUSH2 0x18DB PUSH2 0x1CD8 JUMP JUMPDEST EQ PUSH2 0x1919 JUMPI PUSH1 0x40 MLOAD PUSH3 0x461BCD PUSH1 0xE5 SHL DUP2 MSTORE PUSH1 0x20 PUSH1 0x4 DUP3 ADD MSTORE PUSH1 0xE PUSH1 0x24 DUP3 ADD MSTORE PUSH14 0x496E76616C696420737461747573 PUSH1 0x90 SHL PUSH1 0x44 DUP3 ADD MSTORE PUSH1 0x64 ADD PUSH2 0x58F JUMP JUMPDEST PUSH1 0x4 DUP1 SLOAD PUSH1 0xFF NOT SWAP1 DUP2 AND PUSH1 0x3 OR SWAP1 SWAP2 SSTORE PUSH1 0x10 DUP1 SLOAD DUP4 SWAP3 AND PUSH1 0x1 DUP4 PUSH1 0x2 DUP2 GT ISZERO PUSH2 0x1944 JUMPI PUSH2 0x1944 PUSH2 0x1CD8 JUMP JUMPDEST MUL OR SWAP1 SSTORE POP PUSH1 0xC SLOAD PUSH1 0xD SLOAD PUSH0 SWAP1 PUSH2 0x2710 SWAP1 PUSH2 0x195F SWAP1 DUP5 PUSH2 0x1FAC JUMP JUMPDEST PUSH2 0x1969 SWAP2 SWAP1 PUSH2 0x1FC3 JUMP JUMPDEST SWAP1 POP DUP1 ISZERO PUSH2 0x1A9D JUMPI PUSH1 0x5 SLOAD PUSH1 0x7 SLOAD PUSH1 0x40 MLOAD PUSH4 0x95EA7B3 PUSH1 0xE0 SHL DUP2 MSTORE PUSH1 0x1 PUSH1 0x1 PUSH1 0xA0 SHL SUB SWAP2 DUP3 AND PUSH1 0x4 DUP3 ADD MSTORE PUSH1 0x24 DUP2 ADD DUP5 SWAP1 MSTORE SWAP2 AND SWAP1 PUSH4 0x95EA7B3 SWAP1 PUSH1 0x44 ADD PUSH1 0x20 PUSH1 0x40 MLOAD DUP1 DUP4 SUB DUP2 PUSH0 DUP8 GAS CALL ISZERO DUP1 ISZERO PUSH2 0x19C3 JUMPI RETURNDATASIZE PUSH0 DUP1 RETURNDATACOPY RETURNDATASIZE PUSH0 REVERT JUMPDEST POP POP POP POP PUSH1 0x40 MLOAD RETURNDATASIZE PUSH1 0x1F NOT PUSH1 0x1F DUP3 ADD AND DUP3 ADD DUP1 PUSH1 0x40 MSTORE POP DUP2 ADD SWAP1 PUSH2 0x19E7 SWAP2 SWAP1 PUSH2 0x1F2A JUMP JUMPDEST PUSH2 0x1A25 JUMPI PUSH1 0x40 MLOAD PUSH3 0x461BCD PUSH1 0xE5 SHL DUP2 MSTORE PUSH1 0x20 PUSH1 0x4 DUP3 ADD MSTORE PUSH1 0xF PUSH1 0x24 DUP3 ADD MSTORE PUSH15 0x105C1C1C9BDD985B0819985A5B1959 PUSH1 0x8A SHL PUSH1 0x44 DUP3 ADD MSTORE PUSH1 0x64 ADD PUSH2 0x58F JUMP JUMPDEST PUSH1 0x7 SLOAD PUSH1 0x5 SLOAD PUSH1 0x40 MLOAD PUSH3 0x2C4A69 PUSH1 0xE2 SHL DUP2 MSTORE PUSH1 0x1 PUSH1 0x1 PUSH1 0xA0 SHL SUB SWAP2 DUP3 AND PUSH1 0x4 DUP3 ADD MSTORE PUSH1 0x24 DUP2 ADD DUP5 SWAP1 MSTORE SWAP2 AND SWAP1 PUSH3 0xB129A4 SWAP1 PUSH1 0x44 ADD PUSH0 PUSH1 0x40 MLOAD DUP1 DUP4 SUB DUP2 PUSH0 DUP8 DUP1 EXTCODESIZE ISZERO DUP1 ISZERO PUSH2 0x1A70 JUMPI PUSH0 DUP1 REVERT JUMPDEST POP GAS CALL ISZERO DUP1 ISZERO PUSH2 0x1A82 JUMPI RETURNDATASIZE PUSH0 DUP1 RETURNDATACOPY RETURNDATASIZE PUSH0 REVERT JUMPDEST POP POP POP POP DUP1 PUSH1 0xC PUSH0 DUP3 DUP3 SLOAD PUSH2 0x1A97 SWAP2 SWAP1 PUSH2 0x1FE2 JUMP JUMPDEST SWAP1 SWAP2 SSTORE POP POP JUMPDEST PUSH1 0x8 SLOAD PUSH1 0x2 SLOAD PUSH1 0x40 MLOAD PUSH4 0x33D3043 PUSH1 0xE5 SHL DUP2 MSTORE PUSH1 0x1 PUSH1 0x1 PUSH1 0xA0 SHL SUB SWAP2 DUP3 AND PUSH1 0x4 DUP3 ADD MSTORE SWAP2 AND SWAP1 PUSH4 0x67A60860 SWAP1 PUSH1 0x24 ADD PUSH0 PUSH1 0x40 MLOAD DUP1 DUP4 SUB DUP2 PUSH0 DUP8 DUP1 EXTCODESIZE ISZERO DUP1 ISZERO PUSH2 0x1AE3 JUMPI PUSH0 DUP1 REVERT JUMPDEST POP GAS CALL ISZERO DUP1 ISZERO PUSH2 0x1AF5 JUMPI RETURNDATASIZE PUSH0 DUP1 RETURNDATACOPY RETURNDATASIZE PUSH0 REVERT JUMPDEST POP POP POP POP POP POP POP JUMP JUMPDEST PUSH1 0x6 SLOAD PUSH1 0x40 MLOAD PUSH4 0x935E01B PUSH1 0xE2 SHL DUP2 MSTORE CALLER PUSH1 0x4 DUP3 ADD MSTORE PUSH1 0x1 PUSH1 0x1 PUSH1 0xA0 SHL SUB SWAP1 SWAP2 AND SWAP1 PUSH4 0x24D7806C SWAP1 PUSH1 0x24 ADD PUSH1 0x20 PUSH1 0x40 MLOAD DUP1 DUP4 SUB DUP2 DUP7 GAS STATICCALL ISZERO DUP1 ISZERO PUSH2 0x1B44 JUMPI RETURNDATASIZE PUSH0 DUP1 RETURNDATACOPY RETURNDATASIZE PUSH0 REVERT JUMPDEST POP POP POP POP PUSH1 0x40 MLOAD RETURNDATASIZE PUSH1 0x1F NOT PUSH1 0x1F DUP3 ADD AND DUP3 ADD DUP1 PUSH1 0x40 MSTORE POP DUP2 ADD SWAP1 PUSH2 0x1B68 SWAP2 SWAP1 PUSH2 0x1F2A JUMP JUMPDEST PUSH2 0x1B84 JUMPI PUSH1 0x40 MLOAD PUSH3 0x461BCD PUSH1 0xE5 SHL DUP2 MSTORE PUSH1 0x4 ADD PUSH2 0x58F SWAP1 PUSH2 0x1FF5 JUMP JUMPDEST PUSH1 0x3 SLOAD TIMESTAMP LT ISZERO PUSH2 0x1BC2 JUMPI PUSH1 0x40 MLOAD PUSH3 0x461BCD PUSH1 0xE5 SHL DUP2 MSTORE PUSH1 0x20 PUSH1 0x4 DUP3 ADD MSTORE PUSH1 0x9 PUSH1 0x24 DUP3 ADD MSTORE PUSH9 0x546F6F206561726C79 PUSH1 0xB8 SHL PUSH1 0x44 DUP3 ADD MSTORE PUSH1 0x64 ADD PUSH2 0x58F JUMP JUMPDEST PUSH1 0x1 PUSH1 0x4 DUP1 SLOAD PUSH1 0xFF AND SWAP1 DUP2 GT ISZERO PUSH2 0x1BDB JUMPI PUSH2 0x1BDB PUSH2 0x1CD8 JUMP JUMPDEST EQ PUSH2 0x1C19 JUMPI PUSH1 0x40 MLOAD PUSH3 0x461BCD PUSH1 0xE5 SHL DUP2 MSTORE PUSH1 0x20 PUSH1 0x4 DUP3 ADD MSTORE PUSH1 0xE PUSH1 0x24 DUP3 ADD MSTORE PUSH14 0x496E76616C696420737461747573 PUSH1 0x90 SHL PUSH1 0x44 DUP3 ADD MSTORE PUSH1 0x64 ADD PUSH2 0x58F JUMP JUMPDEST PUSH1 0x4 DUP1 SLOAD PUSH1 0x2 SWAP2 SWAP1 PUSH1 0xFF NOT AND PUSH1 0x1 DUP4 MUL OR SWAP1 SSTORE POP PUSH1 0x10 DUP1 SLOAD DUP3 SWAP2 SWAP1 PUSH2 0xFF00 NOT AND PUSH2 0x100 DUP4 PUSH1 0x2 DUP2 GT ISZERO PUSH2 0x1C4E JUMPI PUSH2 0x1C4E PUSH2 0x1CD8 JUMP JUMPDEST MUL OR SWAP1 SSTORE POP TIMESTAMP PUSH1 0x12 DUP2 SWAP1 SSTORE PUSH1 0x40 MLOAD PUSH32 0x5302B11A955C3C6B08397D6D74BFEE6754AE7E504D5C618EB07D6290E4970BCD SWAP2 PUSH2 0x1C8A SWAP2 DUP5 SWAP2 SWAP1 PUSH2 0x2052 JUMP JUMPDEST PUSH1 0x40 MLOAD DUP1 SWAP2 SUB SWAP1 LOG1 POP JUMP JUMPDEST PUSH0 DUP2 MLOAD DUP1 DUP5 MSTORE PUSH0 JUMPDEST DUP2 DUP2 LT ISZERO PUSH2 0x1CB9 JUMPI PUSH1 0x20 DUP2 DUP6 ADD DUP2 ADD MLOAD DUP7 DUP4 ADD DUP3 ADD MSTORE ADD PUSH2 0x1C9D JUMP JUMPDEST POP PUSH0 PUSH1 0x20 DUP3 DUP7 ADD ADD MSTORE PUSH1 0x20 PUSH1 0x1F NOT PUSH1 0x1F DUP4 ADD AND DUP6 ADD ADD SWAP2 POP POP SWAP3 SWAP2 POP POP JUMP JUMPDEST PUSH4 0x4E487B71 PUSH1 0xE0 SHL PUSH0 MSTORE PUSH1 0x21 PUSH1 0x4 MSTORE PUSH1 0x24 PUSH0 REVERT JUMPDEST PUSH1 0x5 DUP2 LT PUSH2 0x1CFC JUMPI PUSH2 0x1CFC PUSH2 0x1CD8 JUMP JUMPDEST SWAP1 MSTORE JUMP JUMPDEST DUP6 DUP2 MSTORE PUSH1 0xA0 PUSH1 0x20 DUP3 ADD MSTORE PUSH0 PUSH2 0x1D18 PUSH1 0xA0 DUP4 ADD DUP8 PUSH2 0x1C95 JUMP JUMPDEST PUSH1 0x1 PUSH1 0x1 PUSH1 0xA0 SHL SUB DUP7 AND PUSH1 0x40 DUP5 ADD MSTORE PUSH1 0x60 DUP4 ADD DUP6 SWAP1 MSTORE SWAP1 POP PUSH2 0x1D3D PUSH1 0x80 DUP4 ADD DUP5 PUSH2 0x1CEC JUMP JUMPDEST SWAP7 SWAP6 POP POP POP POP POP POP JUMP JUMPDEST PUSH0 PUSH1 0x20 DUP3 DUP5 SUB SLT ISZERO PUSH2 0x1D57 JUMPI PUSH0 DUP1 REVERT JUMPDEST POP CALLDATALOAD SWAP2 SWAP1 POP JUMP JUMPDEST PUSH1 0x3 DUP2 LT PUSH2 0x1CFC JUMPI PUSH2 0x1CFC PUSH2 0x1CD8 JUMP JUMPDEST PUSH1 0x20 DUP2 ADD PUSH2 0x1D7C DUP3 DUP5 PUSH2 0x1D5E JUMP JUMPDEST SWAP3 SWAP2 POP POP JUMP JUMPDEST PUSH1 0x1 PUSH1 0x1 PUSH1 0xA0 SHL SUB DUP2 AND DUP2 EQ PUSH2 0x1D96 JUMPI PUSH0 DUP1 REVERT JUMPDEST POP JUMP JUMPDEST PUSH0 PUSH1 0x20 DUP3 DUP5 SUB SLT ISZERO PUSH2 0x1DA9 JUMPI PUSH0 DUP1 REVERT JUMPDEST DUP2 CALLDATALOAD PUSH2 0x1DB4 DUP2 PUSH2 0x1D82 JUMP JUMPDEST SWAP4 SWAP3 POP POP POP JUMP JUMPDEST PUSH1 0x20 DUP2 MSTORE DUP2 MLOAD PUSH1 0x20 DUP3 ADD MSTORE PUSH0 PUSH1 0x20 DUP4 ADD MLOAD PUSH1 0xA0 PUSH1 0x40 DUP5 ADD MSTORE PUSH2 0x1DE0 PUSH1 0xC0 DUP5 ADD DUP3 PUSH2 0x1C95 JUMP JUMPDEST SWAP1 POP PUSH1 0x1 DUP1 PUSH1 0xA0 SHL SUB PUSH1 0x40 DUP6 ADD MLOAD AND PUSH1 0x60 DUP5 ADD MSTORE PUSH1 0x60 DUP5 ADD MLOAD PUSH1 0x80 DUP5 ADD MSTORE PUSH1 0x80 DUP5 ADD MLOAD PUSH2 0x1E10 PUSH1 0xA0 DUP6 ADD DUP3 PUSH2 0x1CEC JUMP JUMPDEST POP SWAP4 SWAP3 POP POP POP JUMP JUMPDEST DUP1 ISZERO ISZERO DUP2 EQ PUSH2 0x1D96 JUMPI PUSH0 DUP1 REVERT JUMPDEST PUSH0 DUP1 PUSH0 DUP1 PUSH1 0x80 DUP6 DUP8 SUB SLT ISZERO PUSH2 0x1E38 JUMPI PUSH0 DUP1 REVERT JUMPDEST DUP5 CALLDATALOAD PUSH2 0x1E43 DUP2 PUSH2 0x1D82 JUMP JUMPDEST SWAP4 POP PUSH1 0x20 DUP6 ADD CALLDATALOAD PUSH2 0x1E53 DUP2 PUSH2 0x1D82 JUMP JUMPDEST SWAP3 POP PUSH1 0x40 DUP6 ADD CALLDATALOAD SWAP2 POP PUSH1 0x60 DUP6 ADD CALLDATALOAD PUSH2 0x1E6A DUP2 PUSH2 0x1E18 JUMP JUMPDEST SWAP4 SWAP7 SWAP3 SWAP6 POP SWAP1 SWAP4 POP POP JUMP JUMPDEST DUP1 CALLDATALOAD PUSH1 0x3 DUP2 LT PUSH2 0x1E83 JUMPI PUSH0 DUP1 REVERT JUMPDEST SWAP2 SWAP1 POP JUMP JUMPDEST PUSH0 DUP1 PUSH1 0x40 DUP4 DUP6 SUB SLT ISZERO PUSH2 0x1E99 JUMPI PUSH0 DUP1 REVERT JUMPDEST PUSH2 0x1EA2 DUP4 PUSH2 0x1E75 JUMP JUMPDEST SWAP5 PUSH1 0x20 SWAP4 SWAP1 SWAP4 ADD CALLDATALOAD SWAP4 POP POP POP JUMP JUMPDEST PUSH0 PUSH1 0x20 DUP3 DUP5 SUB SLT ISZERO PUSH2 0x1EC0 JUMPI PUSH0 DUP1 REVERT JUMPDEST PUSH2 0x1DB4 DUP3 PUSH2 0x1E75 JUMP JUMPDEST PUSH1 0x1 DUP2 DUP2 SHR SWAP1 DUP3 AND DUP1 PUSH2 0x1EDD JUMPI PUSH1 0x7F DUP3 AND SWAP2 POP JUMPDEST PUSH1 0x20 DUP3 LT DUP2 SUB PUSH2 0x1EFB JUMPI PUSH4 0x4E487B71 PUSH1 0xE0 SHL PUSH0 MSTORE PUSH1 0x22 PUSH1 0x4 MSTORE PUSH1 0x24 PUSH0 REVERT JUMPDEST POP SWAP2 SWAP1 POP JUMP JUMPDEST PUSH1 0x20 DUP1 DUP3 MSTORE PUSH1 0xF SWAP1 DUP3 ADD MSTORE PUSH15 0x26B0B935B2BA103737BA1037B832B7 PUSH1 0x89 SHL PUSH1 0x40 DUP3 ADD MSTORE PUSH1 0x60 ADD SWAP1 JUMP JUMPDEST PUSH0 PUSH1 0x20 DUP3 DUP5 SUB SLT ISZERO PUSH2 0x1F3A JUMPI PUSH0 DUP1 REVERT JUMPDEST DUP2 MLOAD PUSH2 0x1DB4 DUP2 PUSH2 0x1E18 JUMP JUMPDEST PUSH1 0x20 DUP1 DUP3 MSTORE PUSH1 0xF SWAP1 DUP3 ADD MSTORE PUSH15 0x151C985B9CD9995C8819985A5B1959 PUSH1 0x8A SHL PUSH1 0x40 DUP3 ADD MSTORE PUSH1 0x60 ADD SWAP1 JUMP JUMPDEST PUSH4 0x4E487B71 PUSH1 0xE0 SHL PUSH0 MSTORE PUSH1 0x11 PUSH1 0x4 MSTORE PUSH1 0x24 PUSH0 REVERT JUMPDEST DUP1 DUP3 ADD DUP1 DUP3 GT ISZERO PUSH2 0x1D7C JUMPI PUSH2 0x1D7C PUSH2 0x1F6E JUMP JUMPDEST PUSH0 PUSH1 0x20 DUP3 DUP5 SUB SLT ISZERO PUSH2 0x1FA5 JUMPI PUSH0 DUP1 REVERT JUMPDEST POP MLOAD SWAP2 SWAP1 POP JUMP JUMPDEST DUP1 DUP3 MUL DUP2 ISZERO DUP3 DUP3 DIV DUP5 EQ OR PUSH2 0x1D7C JUMPI PUSH2 0x1D7C PUSH2 0x1F6E JUMP JUMPDEST PUSH0 DUP3 PUSH2 0x1FDD JUMPI PUSH4 0x4E487B71 PUSH1 0xE0 SHL PUSH0 MSTORE PUSH1 0x12 PUSH1 0x4 MSTORE PUSH1 0x24 PUSH0 REVERT JUMPDEST POP DIV SWAP1 JUMP JUMPDEST DUP2 DUP2 SUB DUP2 DUP2 GT ISZERO PUSH2 0x1D7C JUMPI PUSH2 0x1D7C PUSH2 0x1F6E JUMP JUMPDEST PUSH1 0x20 DUP1 DUP3 MSTORE PUSH1 0x9 SWAP1 DUP3 ADD MSTORE PUSH9 0x2737BA1030B236B4B7 PUSH1 0xB9 SHL PUSH1 0x40 DUP3 ADD MSTORE PUSH1 0x60 ADD SWAP1 JUMP JUMPDEST PUSH0 PUSH1 0x20 DUP3 DUP5 SUB SLT ISZERO PUSH2 0x2028 JUMPI PUSH0 DUP1 REVERT JUMPDEST DUP2 MLOAD PUSH2 0x1DB4 DUP2 PUSH2 0x1D82 JUMP JUMPDEST PUSH1 0x60 DUP2 ADD PUSH2 0x2041 DUP3 DUP7 PUSH2 0x1D5E JUMP JUMPDEST PUSH1 0x20 DUP3 ADD SWAP4 SWAP1 SWAP4 MSTORE PUSH1 0x40 ADD MSTORE SWAP2 SWAP1 POP JUMP JUMPDEST PUSH1 0x40 DUP2 ADD PUSH2 0x2060 DUP3 DUP6 PUSH2 0x1D5E JUMP JUMPDEST DUP3 PUSH1 0x20 DUP4 ADD MSTORE SWAP4 SWAP3 POP POP POP JUMP INVALID LOG2 PUSH5 0x6970667358 0x22 SLT KECCAK256 SHR 0xBA DUP2 STOP 0xCC 0xB5 SAR 0xB9 0xB2 0x27 PUSH16 0x17DD910BAADB1B58B65A5D33A7390C3 0xBD 0x28 0xD1 DUP4 0xA8 PUSH5 0x736F6C6343 STOP ADDMOD EQ STOP CALLER "},"methodIdentifiers":{"adminManager()":"a210b6a4","approveMarket()":"c2560f2a","betNFT()":"6920f52b","buyNo(uint256)":"58c36e5c","buyYes(uint256)":"061dd98d","cancelMarket()":"6bfefd6b","collateral()":"d8dfeb45","confidenceScore()":"6b6d8dcd","factory()":"c45a0155","finalResolve(uint8,uint256)":"e0306638","getConfidenceScore()":"69ff32c3","getCurrentPrice()":"eb91d37e","getMarketInfo()":"23341a05","getPreliminaryOutcome()":"0e71d8d7","getPriceNo(uint256)":"de62967d","getPriceYes(uint256)":"d46a7721","getProbabilities()":"062f7b8c","getProtocolFeeRate()":"f7fab94f","isPendingResolution()":"2284a82f","marketInfo()":"031bee00","noBalance(address)":"0ffa9bed","noShares()":"27c7ff61","preliminaryOutcome()":"e47218b6","preliminaryResolve(uint8)":"f488c999","preliminaryResolveTime()":"8154b6c6","protocolFeeRate()":"58f85880","redeem()":"be040fb0","reserve()":"cd3293de","resolveMarket(uint8)":"f21ffa6b","resolvedOutcome()":"1c371e2b","setBetNFT(address)":"4daaac3d","setProtocolFeeRate(uint256)":"b13aa2d6","transferShares(address,address,uint256,bool)":"90b1bfc1","treasury()":"61d027b3","yesBalance(address)":"5b883917","yesShares()":"16953f02"}}}}}