{
  "_format": "hh3-artifact-1",
  "contractName": "BetNFT",
  "sourceName": "contracts/BetNFT.sol",
  "abi": [
    {
      "inputs": [],
      "stateMutability": "nonpayable",
      "type": "constructor"
    },
    {
      "inputs": [],
      "name": "ERC721EnumerableForbiddenBatchMint",
      "type": "error"
    },
    {
      "inputs": [
        {
          "internalType": "address",
          "name": "sender",
          "type": "address"
        },
        {
          "internalType": "uint256",
          "name": "tokenId",
          "type": "uint256"
        },
        {
          "internalType": "address",
          "name": "owner",
          "type": "address"
        }
      ],
      "name": "ERC721IncorrectOwner",
      "type": "error"
    },
    {
      "inputs": [
        {
          "internalType": "address",
          "name": "operator",
          "type": "address"
        },
        {
          "internalType": "uint256",
          "name": "tokenId",
          "type": "uint256"
        }
      ],
      "name": "ERC721InsufficientApproval",
      "type": "error"
    },
    {
      "inputs": [
        {
          "internalType": "address",
          "name": "approver",
          "type": "address"
        }
      ],
      "name": "ERC721InvalidApprover",
      "type": "error"
    },
    {
      "inputs": [
        {
          "internalType": "address",
          "name": "operator",
          "type": "address"
        }
      ],
      "name": "ERC721InvalidOperator",
      "type": "error"
    },
    {
      "inputs": [
        {
          "internalType": "address",
          "name": "owner",
          "type": "address"
        }
      ],
      "name": "ERC721InvalidOwner",
      "type": "error"
    },
    {
      "inputs": [
        {
          "internalType": "address",
          "name": "receiver",
          "type": "address"
        }
      ],
      "name": "ERC721InvalidReceiver",
      "type": "error"
    },
    {
      "inputs": [
        {
          "internalType": "address",
          "name": "sender",
          "type": "address"
        }
      ],
      "name": "ERC721InvalidSender",
      "type": "error"
    },
    {
      "inputs": [
        {
          "internalType": "uint256",
          "name": "tokenId",
          "type": "uint256"
        }
      ],
      "name": "ERC721NonexistentToken",
      "type": "error"
    },
    {
      "inputs": [
        {
          "internalType": "address",
          "name": "owner",
          "type": "address"
        },
        {
          "internalType": "uint256",
          "name": "index",
          "type": "uint256"
        }
      ],
      "name": "ERC721OutOfBoundsIndex",
      "type": "error"
    },
    {
      "inputs": [
        {
          "internalType": "address",
          "name": "owner",
          "type": "address"
        }
      ],
      "name": "OwnableInvalidOwner",
      "type": "error"
    },
    {
      "inputs": [
        {
          "internalType": "address",
          "name": "account",
          "type": "address"
        }
      ],
      "name": "OwnableUnauthorizedAccount",
      "type": "error"
    },
    {
      "inputs": [
        {
          "internalType": "uint256",
          "name": "value",
          "type": "uint256"
        },
        {
          "internalType": "uint256",
          "name": "length",
          "type": "uint256"
        }
      ],
      "name": "StringsInsufficientHexLength",
      "type": "error"
    },
    {
      "anonymous": false,
      "inputs": [
        {
          "indexed": true,
          "internalType": "address",
          "name": "owner",
          "type": "address"
        },
        {
          "indexed": true,
          "internalType": "address",
          "name": "approved",
          "type": "address"
        },
        {
          "indexed": true,
          "internalType": "uint256",
          "name": "tokenId",
          "type": "uint256"
        }
      ],
      "name": "Approval",
      "type": "event"
    },
    {
      "anonymous": false,
      "inputs": [
        {
          "indexed": true,
          "internalType": "address",
          "name": "owner",
          "type": "address"
        },
        {
          "indexed": true,
          "internalType": "address",
          "name": "operator",
          "type": "address"
        },
        {
          "indexed": false,
          "internalType": "bool",
          "name": "approved",
          "type": "bool"
        }
      ],
      "name": "ApprovalForAll",
      "type": "event"
    },
    {
      "anonymous": false,
      "inputs": [
        {
          "indexed": true,
          "internalType": "uint256",
          "name": "tokenId",
          "type": "uint256"
        },
        {
          "indexed": true,
          "internalType": "address",
          "name": "market",
          "type": "address"
        },
        {
          "indexed": true,
          "internalType": "address",
          "name": "owner",
          "type": "address"
        },
        {
          "indexed": false,
          "internalType": "uint256",
          "name": "shares",
          "type": "uint256"
        },
        {
          "indexed": false,
          "internalType": "bool",
          "name": "isYes",
          "type": "bool"
        }
      ],
      "name": "BetNFTMinted",
      "type": "event"
    },
    {
      "anonymous": false,
      "inputs": [
        {
          "indexed": true,
          "internalType": "uint256",
          "name": "tokenId",
          "type": "uint256"
        }
      ],
      "name": "ListingCanceled",
      "type": "event"
    },
    {
      "anonymous": false,
      "inputs": [
        {
          "indexed": true,
          "internalType": "uint256",
          "name": "tokenId",
          "type": "uint256"
        },
        {
          "indexed": true,
          "internalType": "address",
          "name": "seller",
          "type": "address"
        },
        {
          "indexed": false,
          "internalType": "uint256",
          "name": "price",
          "type": "uint256"
        }
      ],
      "name": "NFTListed",
      "type": "event"
    },
    {
      "anonymous": false,
      "inputs": [
        {
          "indexed": true,
          "internalType": "uint256",
          "name": "tokenId",
          "type": "uint256"
        },
        {
          "indexed": true,
          "internalType": "address",
          "name": "seller",
          "type": "address"
        },
        {
          "indexed": true,
          "internalType": "address",
          "name": "buyer",
          "type": "address"
        },
        {
          "indexed": false,
          "internalType": "uint256",
          "name": "price",
          "type": "uint256"
        }
      ],
      "name": "NFTSold",
      "type": "event"
    },
    {
      "anonymous": false,
      "inputs": [
        {
          "indexed": true,
          "internalType": "address",
          "name": "previousOwner",
          "type": "address"
        },
        {
          "indexed": true,
          "internalType": "address",
          "name": "newOwner",
          "type": "address"
        }
      ],
      "name": "OwnershipTransferred",
      "type": "event"
    },
    {
      "anonymous": false,
      "inputs": [
        {
          "indexed": true,
          "internalType": "address",
          "name": "from",
          "type": "address"
        },
        {
          "indexed": true,
          "internalType": "address",
          "name": "to",
          "type": "address"
        },
        {
          "indexed": true,
          "internalType": "uint256",
          "name": "tokenId",
          "type": "uint256"
        }
      ],
      "name": "Transfer",
      "type": "event"
    },
    {
      "inputs": [
        {
          "internalType": "address",
          "name": "to",
          "type": "address"
        },
        {
          "internalType": "uint256",
          "name": "tokenId",
          "type": "uint256"
        }
      ],
      "name": "approve",
      "outputs": [],
      "stateMutability": "nonpayable",
      "type": "function"
    },
    {
      "inputs": [
        {
          "internalType": "address",
          "name": "market",
          "type": "address"
        }
      ],
      "name": "authorizeMarket",
      "outputs": [],
      "stateMutability": "nonpayable",
      "type": "function"
    },
    {
      "inputs": [
        {
          "internalType": "address",
          "name": "",
          "type": "address"
        }
      ],
      "name": "authorizedMarkets",
      "outputs": [
        {
          "internalType": "bool",
          "name": "",
          "type": "bool"
        }
      ],
      "stateMutability": "view",
      "type": "function"
    },
    {
      "inputs": [
        {
          "internalType": "address",
          "name": "owner",
          "type": "address"
        }
      ],
      "name": "balanceOf",
      "outputs": [
        {
          "internalType": "uint256",
          "name": "",
          "type": "uint256"
        }
      ],
      "stateMutability": "view",
      "type": "function"
    },
    {
      "inputs": [
        {
          "internalType": "uint256",
          "name": "",
          "type": "uint256"
        }
      ],
      "name": "betMetadata",
      "outputs": [
        {
          "internalType": "address",
          "name": "market",
          "type": "address"
        },
        {
          "internalType": "uint256",
          "name": "shares",
          "type": "uint256"
        },
        {
          "internalType": "bool",
          "name": "isYes",
          "type": "bool"
        },
        {
          "internalType": "uint256",
          "name": "timestamp",
          "type": "uint256"
        }
      ],
      "stateMutability": "view",
      "type": "function"
    },
    {
      "inputs": [
        {
          "internalType": "uint256",
          "name": "tokenId",
          "type": "uint256"
        }
      ],
      "name": "buyNFT",
      "outputs": [],
      "stateMutability": "payable",
      "type": "function"
    },
    {
      "inputs": [
        {
          "internalType": "uint256",
          "name": "tokenId",
          "type": "uint256"
        }
      ],
      "name": "cancelListing",
      "outputs": [],
      "stateMutability": "nonpayable",
      "type": "function"
    },
    {
      "inputs": [
        {
          "internalType": "uint256",
          "name": "tokenId",
          "type": "uint256"
        }
      ],
      "name": "getApproved",
      "outputs": [
        {
          "internalType": "address",
          "name": "",
          "type": "address"
        }
      ],
      "stateMutability": "view",
      "type": "function"
    },
    {
      "inputs": [
        {
          "internalType": "address",
          "name": "owner",
          "type": "address"
        },
        {
          "internalType": "address",
          "name": "operator",
          "type": "address"
        }
      ],
      "name": "isApprovedForAll",
      "outputs": [
        {
          "internalType": "bool",
          "name": "",
          "type": "bool"
        }
      ],
      "stateMutability": "view",
      "type": "function"
    },
    {
      "inputs": [
        {
          "internalType": "uint256",
          "name": "tokenId",
          "type": "uint256"
        },
        {
          "internalType": "uint256",
          "name": "price",
          "type": "uint256"
        }
      ],
      "name": "listNFT",
      "outputs": [],
      "stateMutability": "nonpayable",
      "type": "function"
    },
    {
      "inputs": [
        {
          "internalType": "uint256",
          "name": "",
          "type": "uint256"
        }
      ],
      "name": "listings",
      "outputs": [
        {
          "internalType": "uint256",
          "name": "tokenId",
          "type": "uint256"
        },
        {
          "internalType": "uint256",
          "name": "price",
          "type": "uint256"
        },
        {
          "internalType": "address",
          "name": "seller",
          "type": "address"
        },
        {
          "internalType": "bool",
          "name": "active",
          "type": "bool"
        }
      ],
      "stateMutability": "view",
      "type": "function"
    },
    {
      "inputs": [
        {
          "internalType": "address",
          "name": "to",
          "type": "address"
        },
        {
          "internalType": "address",
          "name": "market",
          "type": "address"
        },
        {
          "internalType": "uint256",
          "name": "shares",
          "type": "uint256"
        },
        {
          "internalType": "bool",
          "name": "isYes",
          "type": "bool"
        }
      ],
      "name": "mintBetNFT",
      "outputs": [
        {
          "internalType": "uint256",
          "name": "",
          "type": "uint256"
        }
      ],
      "stateMutability": "nonpayable",
      "type": "function"
    },
    {
      "inputs": [],
      "name": "name",
      "outputs": [
        {
          "internalType": "string",
          "name": "",
          "type": "string"
        }
      ],
      "stateMutability": "view",
      "type": "function"
    },
    {
      "inputs": [],
      "name": "owner",
      "outputs": [
        {
          "internalType": "address",
          "name": "",
          "type": "address"
        }
      ],
      "stateMutability": "view",
      "type": "function"
    },
    {
      "inputs": [
        {
          "internalType": "uint256",
          "name": "tokenId",
          "type": "uint256"
        }
      ],
      "name": "ownerOf",
      "outputs": [
        {
          "internalType": "address",
          "name": "",
          "type": "address"
        }
      ],
      "stateMutability": "view",
      "type": "function"
    },
    {
      "inputs": [],
      "name": "renounceOwnership",
      "outputs": [],
      "stateMutability": "nonpayable",
      "type": "function"
    },
    {
      "inputs": [
        {
          "internalType": "address",
          "name": "market",
          "type": "address"
        }
      ],
      "name": "revokeMarket",
      "outputs": [],
      "stateMutability": "nonpayable",
      "type": "function"
    },
    {
      "inputs": [
        {
          "internalType": "address",
          "name": "from",
          "type": "address"
        },
        {
          "internalType": "address",
          "name": "to",
          "type": "address"
        },
        {
          "internalType": "uint256",
          "name": "tokenId",
          "type": "uint256"
        }
      ],
      "name": "safeTransferFrom",
      "outputs": [],
      "stateMutability": "nonpayable",
      "type": "function"
    },
    {
      "inputs": [
        {
          "internalType": "address",
          "name": "from",
          "type": "address"
        },
        {
          "internalType": "address",
          "name": "to",
          "type": "address"
        },
        {
          "internalType": "uint256",
          "name": "tokenId",
          "type": "uint256"
        },
        {
          "internalType": "bytes",
          "name": "data",
          "type": "bytes"
        }
      ],
      "name": "safeTransferFrom",
      "outputs": [],
      "stateMutability": "nonpayable",
      "type": "function"
    },
    {
      "inputs": [
        {
          "internalType": "address",
          "name": "operator",
          "type": "address"
        },
        {
          "internalType": "bool",
          "name": "approved",
          "type": "bool"
        }
      ],
      "name": "setApprovalForAll",
      "outputs": [],
      "stateMutability": "nonpayable",
      "type": "function"
    },
    {
      "inputs": [
        {
          "internalType": "bytes4",
          "name": "interfaceId",
          "type": "bytes4"
        }
      ],
      "name": "supportsInterface",
      "outputs": [
        {
          "internalType": "bool",
          "name": "",
          "type": "bool"
        }
      ],
      "stateMutability": "view",
      "type": "function"
    },
    {
      "inputs": [],
      "name": "symbol",
      "outputs": [
        {
          "internalType": "string",
          "name": "",
          "type": "string"
        }
      ],
      "stateMutability": "view",
      "type": "function"
    },
    {
      "inputs": [
        {
          "internalType": "uint256",
          "name": "index",
          "type": "uint256"
        }
      ],
      "name": "tokenByIndex",
      "outputs": [
        {
          "internalType": "uint256",
          "name": "",
          "type": "uint256"
        }
      ],
      "stateMutability": "view",
      "type": "function"
    },
    {
      "inputs": [
        {
          "internalType": "address",
          "name": "owner",
          "type": "address"
        },
        {
          "internalType": "uint256",
          "name": "index",
          "type": "uint256"
        }
      ],
      "name": "tokenOfOwnerByIndex",
      "outputs": [
        {
          "internalType": "uint256",
          "name": "",
          "type": "uint256"
        }
      ],
      "stateMutability": "view",
      "type": "function"
    },
    {
      "inputs": [
        {
          "internalType": "uint256",
          "name": "tokenId",
          "type": "uint256"
        }
      ],
      "name": "tokenURI",
      "outputs": [
        {
          "internalType": "string",
          "name": "",
          "type": "string"
        }
      ],
      "stateMutability": "view",
      "type": "function"
    },
    {
      "inputs": [],
      "name": "totalSupply",
      "outputs": [
        {
          "internalType": "uint256",
          "name": "",
          "type": "uint256"
        }
      ],
      "stateMutability": "view",
      "type": "function"
    },
    {
      "inputs": [
        {
          "internalType": "address",
          "name": "from",
          "type": "address"
        },
        {
          "internalType": "address",
          "name": "to",
          "type": "address"
        },
        {
          "internalType": "uint256",
          "name": "tokenId",
          "type": "uint256"
        }
      ],
      "name": "transferFrom",
      "outputs": [],
      "stateMutability": "nonpayable",
      "type": "function"
    },
    {
      "inputs": [
        {
          "internalType": "address",
          "name": "newOwner",
          "type": "address"
        }
      ],
      "name": "transferOwnership",
      "outputs": [],
      "stateMutability": "nonpayable",
      "type": "function"
    }
  ],
  "bytecode": "0x60806040526001600e5534801562000015575f80fd5b503360405180604001604052806011815260200170109b1bd8dad0d85cdd0810995d08139195607a1b815250604051806040016040528060058152602001641090d0915560da1b815250815f90816200006f9190620001b2565b5060016200007e8282620001b2565b5050506001600160a01b038116620000af57604051631e4fbdf760e01b81525f600482015260240160405180910390fd5b620000ba81620000c1565b506200027a565b600a80546001600160a01b038381166001600160a01b0319831681179093556040519116919082907f8be0079c531659141344cd1fd0a4f28419497f9722a3daafe3b4186f6b6457e0905f90a35050565b634e487b7160e01b5f52604160045260245ffd5b600181811c908216806200013b57607f821691505b6020821081036200015a57634e487b7160e01b5f52602260045260245ffd5b50919050565b601f821115620001ad575f81815260208120601f850160051c81016020861015620001885750805b601f850160051c820191505b81811015620001a95782815560010162000194565b5050505b505050565b81516001600160401b03811115620001ce57620001ce62000112565b620001e681620001df845462000126565b8462000160565b602080601f8311600181146200021c575f8415620002045750858301515b5f19600386901b1c1916600185901b178555620001a9565b5f85815260208120601f198616915b828110156200024c578886015182559484019460019091019084016200022b565b50858210156200026a57878501515f19600388901b60f8161c191681555b5050505050600190811b01905550565b61280c80620002885f395ff3fe6080604052600436106101af575f3560e01c806351ed8288116100e7578063a22cb46511610087578063de74e57b11610062578063de74e57b14610517578063e985e9c514610597578063f2862e67146105b6578063f2fde38b146105d5575f80fd5b8063a22cb465146104ba578063b88d4fde146104d9578063c87b56dd146104f8575f80fd5b8063715018a6116100c2578063715018a6146104565780638da5cb5b1461046a57806394383f141461048757806395d89b41146104a6575f80fd5b806351ed8288146104055780636352211e1461041857806370a0823114610437575f80fd5b806329527b8211610152578063305a67a81161012d578063305a67a81461037a57806342842e0e146103995780634299b8a2146103b85780634f6ccce7146103e6575f80fd5b806329527b82146102bc5780632a8ab97e146102db5780632f745c591461035b575f80fd5b8063095ea7b31161018d578063095ea7b31461023f57806318160ddd1461026057806323b872dd1461027e57806324d79a431461029d575f80fd5b806301ffc9a7146101b357806306fdde03146101e7578063081812fc14610208575b5f80fd5b3480156101be575f80fd5b506101d26101cd366004612044565b6105f4565b60405190151581526020015b60405180910390f35b3480156101f2575f80fd5b506101fb610604565b6040516101de91906120b3565b348015610213575f80fd5b506102276102223660046120c5565b610693565b6040516001600160a01b0390911681526020016101de565b34801561024a575f80fd5b5061025e6102593660046120f0565b6106ba565b005b34801561026b575f80fd5b506008545b6040519081526020016101de565b348015610289575f80fd5b5061025e61029836600461211a565b6106c9565b3480156102a8575f80fd5b506102706102b736600461216c565b610757565b3480156102c7575f80fd5b5061025e6102d63660046121ba565b6108d5565b3480156102e6575f80fd5b5061032b6102f53660046120c5565b600b6020525f908152604090208054600182015460028301546003909301546001600160a01b0390921692909160ff9091169084565b604080516001600160a01b03909516855260208501939093529015159183019190915260608201526080016101de565b348015610366575f80fd5b506102706103753660046120f0565b6108fd565b348015610385575f80fd5b5061025e6103943660046120c5565b610960565b3480156103a4575f80fd5b5061025e6103b336600461211a565b610a5c565b3480156103c3575f80fd5b506101d26103d23660046121ba565b600d6020525f908152604090205460ff1681565b3480156103f1575f80fd5b506102706104003660046120c5565b610a7b565b61025e6104133660046120c5565b610ad0565b348015610423575f80fd5b506102276104323660046120c5565b610e69565b348015610442575f80fd5b506102706104513660046121ba565b610e73565b348015610461575f80fd5b5061025e610eb8565b348015610475575f80fd5b50600a546001600160a01b0316610227565b348015610492575f80fd5b5061025e6104a13660046121d5565b610ecb565b3480156104b1575f80fd5b506101fb6111ad565b3480156104c5575f80fd5b5061025e6104d43660046121f5565b6111bc565b3480156104e4575f80fd5b5061025e6104f33660046122bd565b6111c7565b348015610503575f80fd5b506101fb6105123660046120c5565b6111df565b348015610522575f80fd5b506105666105313660046120c5565b600c6020525f90815260409020805460018201546002909201549091906001600160a01b03811690600160a01b900460ff1684565b6040516101de949392919093845260208401929092526001600160a01b031660408301521515606082015260800190565b3480156105a2575f80fd5b506101d26105b1366004612365565b611341565b3480156105c1575f80fd5b5061025e6105d03660046121ba565b61136e565b3480156105e0575f80fd5b5061025e6105ef3660046121ba565b611399565b5f6105fe826113d6565b92915050565b60605f80546106129061239c565b80601f016020809104026020016040519081016040528092919081815260200182805461063e9061239c565b80156106895780601f1061066057610100808354040283529160200191610689565b820191905f5260205f20905b81548152906001019060200180831161066c57829003601f168201915b5050505050905090565b5f61069d826113fa565b505f828152600460205260409020546001600160a01b03166105fe565b6106c5828233611432565b5050565b6001600160a01b0382166106f757604051633250574960e11b81525f60048201526024015b60405180910390fd5b5f61070383833361143f565b9050836001600160a01b0316816001600160a01b031614610751576040516364283d7b60e01b81526001600160a01b03808616600483015260248201849052821660448201526064016106ee565b50505050565b335f908152600d602052604081205460ff1661078757335f908152600d60205260409020805460ff191660011790555b335f908152600d602052604090205460ff166107dd5760405162461bcd60e51b8152602060048201526015602482015274139bdd08185d5d1a1bdc9a5e9959081b585c9ad95d605a1b60448201526064016106ee565b600e80545f91826107ed836123e8565b90915550604080516080810182526001600160a01b038881168252602080830189815288151584860190815242606086019081525f888152600b90945295909220935184546001600160a01b0319169316929092178355905160018301555160028201805460ff1916911515919091179055905160039091015590506108738682611453565b856001600160a01b0316856001600160a01b0316827f4dfc771ccc12cce80e2ec2b4e646cab2e750b37db68e7850f4a3179aa9d9284e87876040516108c49291909182521515602082015260400190565b60405180910390a495945050505050565b6108dd6114b4565b6001600160a01b03165f908152600d60205260409020805460ff19169055565b5f61090783610e73565b82106109385760405163295f44f760e21b81526001600160a01b0384166004820152602481018390526044016106ee565b506001600160a01b03919091165f908152600660209081526040808320938352929052205490565b5f818152600c60205260409020600201546001600160a01b031633146109bb5760405162461bcd60e51b815260206004820152601060248201526f4e6f7420796f7572206c697374696e6760801b60448201526064016106ee565b5f818152600c6020526040902060020154600160a01b900460ff16610a175760405162461bcd60e51b81526020600482015260126024820152714c697374696e67206e6f742061637469766560701b60448201526064016106ee565b5f818152600c6020526040808220600201805460ff60a01b191690555182917f5d7a33421ffa4bc07eb8929c5ace6393d3aa5ec3775e4e2f442527876b7dbe8891a250565b610a7683838360405180602001604052805f8152506111c7565b505050565b5f610a8560085490565b8210610aad5760405163295f44f760e21b81525f6004820152602481018390526044016106ee565b60088281548110610ac057610ac0612400565b905f5260205f2001549050919050565b5f818152600c6020908152604091829020825160808101845281548152600182015492810192909252600201546001600160a01b03811692820192909252600160a01b90910460ff16151560608201819052610b635760405162461bcd60e51b81526020600482015260126024820152714c697374696e67206e6f742061637469766560701b60448201526064016106ee565b8060200151341015610bae5760405162461bcd60e51b8152602060048201526014602482015273125b9cdd59999a58da595b9d081c185e5b595b9d60621b60448201526064016106ee565b5f828152600b60209081526040808320815160808101835281546001600160a01b0316808252600183015494820194909452600282015460ff16151581840152600390910154606082015281516323341a0560e01b8152915190939183916323341a059160048082019286929091908290030181865afa158015610c34573d5f803e3d5ffd5b505050506040513d5f823e601f3d908101601f19168201604052610c5b919081019061242d565b9050600181608001516004811115610c7557610c75612501565b14610cb85760405162461bcd60e51b815260206004820152601360248201527226b0b935b2ba1036bab9ba1031329037b832b760691b60448201526064016106ee565b80606001514210610cfa5760405162461bcd60e51b815260206004820152600c60248201526b13585c9ad95d08195b99195960a21b60448201526064016106ee565b6040848101516020808701515f898152600c8352849020600201805460ff60a01b19169055908601518684015193516390b1bfc160e01b81526001600160a01b03808516600483015233602483015260448201929092529315156064850152919290918516906390b1bfc1906084015f604051808303815f87803b158015610d80575f80fd5b505af1158015610d92573d5f803e3d5ffd5b50505050610da18233896114e1565b6040516001600160a01b0383169082156108fc029083905f818181858888f19350505050158015610dd4573d5f803e3d5ffd5b5080341115610e1257336108fc610deb8334612515565b6040518115909202915f818181858888f19350505050158015610e10573d5f803e3d5ffd5b505b336001600160a01b0316826001600160a01b0316887f8562eb94748e30bb0071e932744ce902b460c683474fcb3bfd567ffa16b1afb284604051610e5891815260200190565b60405180910390a450505050505050565b5f6105fe826113fa565b5f6001600160a01b038216610e9d576040516322718ad960e21b81525f60048201526024016106ee565b506001600160a01b03165f9081526003602052604090205490565b610ec06114b4565b610ec95f61158e565b565b33610ed583610e69565b6001600160a01b031614610f175760405162461bcd60e51b81526020600482015260096024820152682737ba1037bbb732b960b91b60448201526064016106ee565b5f8111610f5f5760405162461bcd60e51b81526020600482015260166024820152755072696365206d75737420626520706f73697469766560501b60448201526064016106ee565b5f828152600c6020526040902060020154600160a01b900460ff1615610fb85760405162461bcd60e51b815260206004820152600e60248201526d105b1c9958591e481b1a5cdd195960921b60448201526064016106ee565b5f828152600b60209081526040808320815160808101835281546001600160a01b0316808252600183015494820194909452600282015460ff16151581840152600390910154606082015281516323341a0560e01b8152915190939183916323341a059160048082019286929091908290030181865afa15801561103e573d5f803e3d5ffd5b505050506040513d5f823e601f3d908101601f19168201604052611065919081019061242d565b905060018160800151600481111561107f5761107f612501565b146110c25760405162461bcd60e51b815260206004820152601360248201527226b0b935b2ba1036bab9ba1031329037b832b760691b60448201526064016106ee565b806060015142106111045760405162461bcd60e51b815260206004820152600c60248201526b13585c9ad95d08195b99195960a21b60448201526064016106ee565b604080516080810182528681526020808201878152338385018181526001606086018181525f8d8152600c875288902096518755935190860155516002909401805492511515600160a01b026001600160a81b03199093166001600160a01b0390951694909417919091179092559151868152909187917f5f9c03de076f5063cd3ebcfe8ef7aa8af378e4b35a83c77ba9777e97083879a2910160405180910390a35050505050565b6060600180546106129061239c565b6106c53383836115df565b6111d28484846106c9565b610751338585858561167d565b60605f6111eb83610e69565b6001600160a01b0316036112385760405162461bcd60e51b8152602060048201526014602482015273151bdad95b88191bd95cc81b9bdd08195e1a5cdd60621b60448201526064016106ee565b5f828152600b6020908152604091829020825160808101845281546001600160a01b03168152600182015492810192909252600281015460ff16151592820192909252600390910154606082015261128f836117a5565b81516112a3906001600160a01b0316611835565b6112c3670de0b6b3a764000084602001516112be9190612528565b6117a5565b83604001516112ec57604051806040016040528060028152602001614e4f60f01b815250611309565b6040518060400160405280600381526020016259455360e81b8152505b61131685606001516117a5565b60405160200161132a959493929190612562565b604051602081830303815290604052915050919050565b6001600160a01b039182165f90815260056020908152604080832093909416825291909152205460ff1690565b6113766114b4565b6001600160a01b03165f908152600d60205260409020805460ff19166001179055565b6113a16114b4565b6001600160a01b0381166113ca57604051631e4fbdf760e01b81525f60048201526024016106ee565b6113d38161158e565b50565b5f6001600160e01b0319821663780e9d6360e01b14806105fe57506105fe8261189f565b5f818152600260205260408120546001600160a01b0316806105fe57604051637e27328960e01b8152600481018490526024016106ee565b610a7683838360016118ee565b5f61144b8484846119f2565b949350505050565b6001600160a01b03821661147c57604051633250574960e11b81525f60048201526024016106ee565b5f61148883835f61143f565b90506001600160a01b03811615610a76576040516339e3563760e11b81525f60048201526024016106ee565b600a546001600160a01b03163314610ec95760405163118cdaa760e01b81523360048201526024016106ee565b6001600160a01b03821661150a57604051633250574960e11b81525f60048201526024016106ee565b5f61151683835f61143f565b90506001600160a01b03811661154257604051637e27328960e01b8152600481018390526024016106ee565b836001600160a01b0316816001600160a01b031614610751576040516364283d7b60e01b81526001600160a01b03808616600483015260248201849052821660448201526064016106ee565b600a80546001600160a01b038381166001600160a01b0319831681179093556040519116919082907f8be0079c531659141344cd1fd0a4f28419497f9722a3daafe3b4186f6b6457e0905f90a35050565b6001600160a01b03821661161157604051630b61174360e31b81526001600160a01b03831660048201526024016106ee565b6001600160a01b038381165f81815260056020908152604080832094871680845294825291829020805460ff191686151590811790915591519182527f17307eab39ab6107e8899845ad3d59bd9653f200f220920489ca2b5937696c31910160405180910390a3505050565b6001600160a01b0383163b1561179e57604051630a85bd0160e11b81526001600160a01b0384169063150b7a02906116bf90889088908790879060040161272c565b6020604051808303815f875af19250505080156116f9575060408051601f3d908101601f191682019092526116f691810190612768565b60015b611760573d808015611726576040519150601f19603f3d011682016040523d82523d5f602084013e61172b565b606091505b5080515f0361175857604051633250574960e11b81526001600160a01b03851660048201526024016106ee565b805160208201fd5b6001600160e01b03198116630a85bd0160e11b1461179c57604051633250574960e11b81526001600160a01b03851660048201526024016106ee565b505b5050505050565b60605f6117b183611abd565b60010190505f8167ffffffffffffffff8111156117d0576117d0612228565b6040519080825280601f01601f1916602001820160405280156117fa576020820181803683370190505b5090508181016020015b5f19016f181899199a1a9b1b9c1cb0b131b232b360811b600a86061a8153600a850494508461180457509392505050565b60606105fe82611897845f60076fffffffffffffffffffffffffffffffff8311901b9050600667ffffffffffffffff83831c11901b17600563ffffffff83831c11901b17600461ffff83831c11901b1760ff82821c1160039190911c17919050565b600101611b94565b5f6001600160e01b031982166380ac58cd60e01b14806118cf57506001600160e01b03198216635b5e139f60e01b145b806105fe57506301ffc9a760e01b6001600160e01b03198316146105fe565b808061190257506001600160a01b03821615155b156119c3575f611911846113fa565b90506001600160a01b0383161580159061193d5750826001600160a01b0316816001600160a01b031614155b8015611950575061194e8184611341565b155b156119795760405163a9fbf51f60e01b81526001600160a01b03841660048201526024016106ee565b81156119c15783856001600160a01b0316826001600160a01b03167f8c5be1e5ebec7d5bd14f71427d1e84f3dd0314c0f7b2291e5b200ac8c7c3b92560405160405180910390a45b505b50505f90815260046020526040902080546001600160a01b0319166001600160a01b0392909216919091179055565b5f806119ff858585611d06565b90506001600160a01b038116611a5b57611a5684600880545f838152600960205260408120829055600182018355919091527ff3f7a9fe364faab93b216da50a3214154f22a0a2b415b23a84c8169e8b636ee30155565b611a7e565b846001600160a01b0316816001600160a01b031614611a7e57611a7e8185611df8565b6001600160a01b038516611a9a57611a9584611e75565b61144b565b846001600160a01b0316816001600160a01b03161461144b5761144b8585611f1c565b5f8072184f03e93ff9f4daa797ed6e38ed64bf6a1f0160401b8310611afb5772184f03e93ff9f4daa797ed6e38ed64bf6a1f0160401b830492506040015b6d04ee2d6d415b85acef81000000008310611b27576d04ee2d6d415b85acef8100000000830492506020015b662386f26fc100008310611b4557662386f26fc10000830492506010015b6305f5e1008310611b5d576305f5e100830492506008015b6127108310611b7157612710830492506004015b60648310611b83576064830492506002015b600a83106105fe5760010192915050565b6060825f611ba3846002612783565b611bae90600261279a565b67ffffffffffffffff811115611bc657611bc6612228565b6040519080825280601f01601f191660200182016040528015611bf0576020820181803683370190505b509050600360fc1b815f81518110611c0a57611c0a612400565b60200101906001600160f81b03191690815f1a905350600f60fb1b81600181518110611c3857611c38612400565b60200101906001600160f81b03191690815f1a9053505f611c5a856002612783565b611c6590600161279a565b90505b6001811115611cdc576f181899199a1a9b1b9c1cb0b131b232b360811b83600f1660108110611c9957611c99612400565b1a60f81b828281518110611caf57611caf612400565b60200101906001600160f81b03191690815f1a90535060049290921c91611cd5816127ad565b9050611c68565b50811561144b5760405163e22e27eb60e01b815260048101869052602481018590526044016106ee565b5f828152600260205260408120546001600160a01b0390811690831615611d3257611d32818486611f6a565b6001600160a01b03811615611d6c57611d4d5f855f806118ee565b6001600160a01b0381165f90815260036020526040902080545f190190555b6001600160a01b03851615611d9a576001600160a01b0385165f908152600360205260409020805460010190555b5f8481526002602052604080822080546001600160a01b0319166001600160a01b0389811691821790925591518793918516917fddf252ad1be2c89b69c2b068fc378daa952ba7f163c4a11628f55a4df523b3ef91a4949350505050565b5f611e0283610e73565b5f838152600760209081526040808320546001600160a01b0388168452600690925290912091925090818314611e57575f83815260208281526040808320548584528184208190558352600790915290208290555b5f938452600760209081526040808620869055938552525081205550565b6008545f90611e8690600190612515565b5f8381526009602052604081205460088054939450909284908110611ead57611ead612400565b905f5260205f20015490508060088381548110611ecc57611ecc612400565b5f918252602080832090910192909255828152600990915260408082208490558582528120556008805480611f0357611f036127c2565b600190038181905f5260205f20015f9055905550505050565b5f6001611f2884610e73565b611f329190612515565b6001600160a01b039093165f908152600660209081526040808320868452825280832085905593825260079052919091209190915550565b611f75838383611fce565b610a76576001600160a01b038316611fa357604051637e27328960e01b8152600481018290526024016106ee565b60405163177e802f60e01b81526001600160a01b0383166004820152602481018290526044016106ee565b5f6001600160a01b0383161580159061144b5750826001600160a01b0316846001600160a01b0316148061200757506120078484611341565b8061144b5750505f908152600460205260409020546001600160a01b03908116911614919050565b6001600160e01b0319811681146113d3575f80fd5b5f60208284031215612054575f80fd5b813561205f8161202f565b9392505050565b5f5b83811015612080578181015183820152602001612068565b50505f910152565b5f815180845261209f816020860160208601612066565b601f01601f19169290920160200192915050565b602081525f61205f6020830184612088565b5f602082840312156120d5575f80fd5b5035919050565b6001600160a01b03811681146113d3575f80fd5b5f8060408385031215612101575f80fd5b823561210c816120dc565b946020939093013593505050565b5f805f6060848603121561212c575f80fd5b8335612137816120dc565b92506020840135612147816120dc565b929592945050506040919091013590565b80358015158114612167575f80fd5b919050565b5f805f806080858703121561217f575f80fd5b843561218a816120dc565b9350602085013561219a816120dc565b9250604085013591506121af60608601612158565b905092959194509250565b5f602082840312156121ca575f80fd5b813561205f816120dc565b5f80604083850312156121e6575f80fd5b50508035926020909101359150565b5f8060408385031215612206575f80fd5b8235612211816120dc565b915061221f60208401612158565b90509250929050565b634e487b7160e01b5f52604160045260245ffd5b60405160a0810167ffffffffffffffff8111828210171561225f5761225f612228565b60405290565b604051601f8201601f1916810167ffffffffffffffff8111828210171561228e5761228e612228565b604052919050565b5f67ffffffffffffffff8211156122af576122af612228565b50601f01601f191660200190565b5f805f80608085870312156122d0575f80fd5b84356122db816120dc565b935060208501356122eb816120dc565b925060408501359150606085013567ffffffffffffffff81111561230d575f80fd5b8501601f8101871361231d575f80fd5b803561233061232b82612296565b612265565b818152886020838501011115612344575f80fd5b816020840160208301375f6020838301015280935050505092959194509250565b5f8060408385031215612376575f80fd5b8235612381816120dc565b91506020830135612391816120dc565b809150509250929050565b600181811c908216806123b057607f821691505b6020821081036123ce57634e487b7160e01b5f52602260045260245ffd5b50919050565b634e487b7160e01b5f52601160045260245ffd5b5f600182016123f9576123f96123d4565b5060010190565b634e487b7160e01b5f52603260045260245ffd5b8051612167816120dc565b805160058110612167575f80fd5b5f602080838503121561243e575f80fd5b825167ffffffffffffffff80821115612455575f80fd5b9084019060a08287031215612468575f80fd5b61247061223c565b825181528383015182811115612484575f80fd5b83019150601f82018713612496575f80fd5b81516124a461232b82612296565b81815288868386010111156124b7575f80fd5b6124c682878301888701612066565b82860152506124d760408401612414565b6040820152606083015160608201526124f26080840161241f565b60808201529695505050505050565b634e487b7160e01b5f52602160045260245ffd5b818103818111156105fe576105fe6123d4565b5f8261254257634e487b7160e01b5f52601260045260245ffd5b500490565b5f8151612558818560208601612066565b9290920192915050565b7f646174613a6170706c69636174696f6e2f6a736f6e2c7b226e616d65223a224281526d6c6f636b4361737420426574202360901b60208201525f86516125b081602e850160208b01612066565b7f222c226465736372697074696f6e223a2250726564696374696f6e206d61726b602e918401918201527f657420706f736974696f6e204e4654222c2261747472696275746573223a5b7b604e8201527f2274726169745f74797065223a224d61726b6574222c2276616c7565223a2200606e820152865161263981608d840160208b01612066565b7f227d2c7b2274726169745f74797065223a22536861726573222c2276616c7565608d929091019182015261111d60f11b60ad82015285516126828160af840160208a01612066565b61271f61271061270a6126d36126cd60af868801017f7d2c7b2274726169745f74797065223a22506f736974696f6e222c2276616c7581526332911d1160e11b602082015260240190565b8a612547565b7f227d2c7b2274726169745f74797065223a2254696d657374616d70222c227661815264363ab2911d60d91b602082015260250190565b87612547565b627d5d7d60e81b815260030190565b9998505050505050505050565b6001600160a01b03858116825284166020820152604081018390526080606082018190525f9061275e90830184612088565b9695505050505050565b5f60208284031215612778575f80fd5b815161205f8161202f565b80820281158282048414176105fe576105fe6123d4565b808201808211156105fe576105fe6123d4565b5f816127bb576127bb6123d4565b505f190190565b634e487b7160e01b5f52603160045260245ffdfea26469706673582212200fb2bc2a4f9b5325dcecdb491a757fb90f227b41a1f8e2966e1b4c98867ec8f164736f6c63430008140033",
  "linkReferences": {},
  "deployedLinkReferences": {},
  "immutableReferences": {},
  "inputSourceName": "project/contracts/BetNFT.sol",
  "buildInfoId": "solc-0_8_20-ae6ce6d7e32a32260c0a423de9eeebe654c4232a"
}