{
  "_format": "hh3-artifact-1",
  "contractName": "BetNFT",
  "sourceName": "contracts/BetNFT.sol",
  "abi": [
    {
      "inputs": [],
      "stateMutability": "nonpayable",
      "type": "constructor"
    },
    {
      "inputs": [],
      "name": "ERC721EnumerableForbiddenBatchMint",
      "type": "error"
    },
    {
      "inputs": [
        {
          "internalType": "address",
          "name": "sender",
          "type": "address"
        },
        {
          "internalType": "uint256",
          "name": "tokenId",
          "type": "uint256"
        },
        {
          "internalType": "address",
          "name": "owner",
          "type": "address"
        }
      ],
      "name": "ERC721IncorrectOwner",
      "type": "error"
    },
    {
      "inputs": [
        {
          "internalType": "address",
          "name": "operator",
          "type": "address"
        },
        {
          "internalType": "uint256",
          "name": "tokenId",
          "type": "uint256"
        }
      ],
      "name": "ERC721InsufficientApproval",
      "type": "error"
    },
    {
      "inputs": [
        {
          "internalType": "address",
          "name": "approver",
          "type": "address"
        }
      ],
      "name": "ERC721InvalidApprover",
      "type": "error"
    },
    {
      "inputs": [
        {
          "internalType": "address",
          "name": "operator",
          "type": "address"
        }
      ],
      "name": "ERC721InvalidOperator",
      "type": "error"
    },
    {
      "inputs": [
        {
          "internalType": "address",
          "name": "owner",
          "type": "address"
        }
      ],
      "name": "ERC721InvalidOwner",
      "type": "error"
    },
    {
      "inputs": [
        {
          "internalType": "address",
          "name": "receiver",
          "type": "address"
        }
      ],
      "name": "ERC721InvalidReceiver",
      "type": "error"
    },
    {
      "inputs": [
        {
          "internalType": "address",
          "name": "sender",
          "type": "address"
        }
      ],
      "name": "ERC721InvalidSender",
      "type": "error"
    },
    {
      "inputs": [
        {
          "internalType": "uint256",
          "name": "tokenId",
          "type": "uint256"
        }
      ],
      "name": "ERC721NonexistentToken",
      "type": "error"
    },
    {
      "inputs": [
        {
          "internalType": "address",
          "name": "owner",
          "type": "address"
        },
        {
          "internalType": "uint256",
          "name": "index",
          "type": "uint256"
        }
      ],
      "name": "ERC721OutOfBoundsIndex",
      "type": "error"
    },
    {
      "inputs": [
        {
          "internalType": "address",
          "name": "owner",
          "type": "address"
        }
      ],
      "name": "OwnableInvalidOwner",
      "type": "error"
    },
    {
      "inputs": [
        {
          "internalType": "address",
          "name": "account",
          "type": "address"
        }
      ],
      "name": "OwnableUnauthorizedAccount",
      "type": "error"
    },
    {
      "inputs": [
        {
          "internalType": "uint256",
          "name": "value",
          "type": "uint256"
        },
        {
          "internalType": "uint256",
          "name": "length",
          "type": "uint256"
        }
      ],
      "name": "StringsInsufficientHexLength",
      "type": "error"
    },
    {
      "anonymous": false,
      "inputs": [
        {
          "indexed": true,
          "internalType": "address",
          "name": "owner",
          "type": "address"
        },
        {
          "indexed": true,
          "internalType": "address",
          "name": "approved",
          "type": "address"
        },
        {
          "indexed": true,
          "internalType": "uint256",
          "name": "tokenId",
          "type": "uint256"
        }
      ],
      "name": "Approval",
      "type": "event"
    },
    {
      "anonymous": false,
      "inputs": [
        {
          "indexed": true,
          "internalType": "address",
          "name": "owner",
          "type": "address"
        },
        {
          "indexed": true,
          "internalType": "address",
          "name": "operator",
          "type": "address"
        },
        {
          "indexed": false,
          "internalType": "bool",
          "name": "approved",
          "type": "bool"
        }
      ],
      "name": "ApprovalForAll",
      "type": "event"
    },
    {
      "anonymous": false,
      "inputs": [
        {
          "indexed": true,
          "internalType": "uint256",
          "name": "tokenId",
          "type": "uint256"
        },
        {
          "indexed": true,
          "internalType": "address",
          "name": "market",
          "type": "address"
        },
        {
          "indexed": true,
          "internalType": "address",
          "name": "owner",
          "type": "address"
        },
        {
          "indexed": false,
          "internalType": "uint256",
          "name": "shares",
          "type": "uint256"
        },
        {
          "indexed": false,
          "internalType": "bool",
          "name": "isYes",
          "type": "bool"
        }
      ],
      "name": "BetNFTMinted",
      "type": "event"
    },
    {
      "anonymous": false,
      "inputs": [
        {
          "indexed": true,
          "internalType": "uint256",
          "name": "tokenId",
          "type": "uint256"
        }
      ],
      "name": "ListingCanceled",
      "type": "event"
    },
    {
      "anonymous": false,
      "inputs": [
        {
          "indexed": true,
          "internalType": "uint256",
          "name": "tokenId",
          "type": "uint256"
        },
        {
          "indexed": true,
          "internalType": "address",
          "name": "seller",
          "type": "address"
        },
        {
          "indexed": false,
          "internalType": "uint256",
          "name": "price",
          "type": "uint256"
        }
      ],
      "name": "NFTListed",
      "type": "event"
    },
    {
      "anonymous": false,
      "inputs": [
        {
          "indexed": true,
          "internalType": "uint256",
          "name": "tokenId",
          "type": "uint256"
        },
        {
          "indexed": true,
          "internalType": "address",
          "name": "seller",
          "type": "address"
        },
        {
          "indexed": true,
          "internalType": "address",
          "name": "buyer",
          "type": "address"
        },
        {
          "indexed": false,
          "internalType": "uint256",
          "name": "price",
          "type": "uint256"
        }
      ],
      "name": "NFTSold",
      "type": "event"
    },
    {
      "anonymous": false,
      "inputs": [
        {
          "indexed": true,
          "internalType": "address",
          "name": "previousOwner",
          "type": "address"
        },
        {
          "indexed": true,
          "internalType": "address",
          "name": "newOwner",
          "type": "address"
        }
      ],
      "name": "OwnershipTransferred",
      "type": "event"
    },
    {
      "anonymous": false,
      "inputs": [
        {
          "indexed": true,
          "internalType": "address",
          "name": "from",
          "type": "address"
        },
        {
          "indexed": true,
          "internalType": "address",
          "name": "to",
          "type": "address"
        },
        {
          "indexed": true,
          "internalType": "uint256",
          "name": "tokenId",
          "type": "uint256"
        }
      ],
      "name": "Transfer",
      "type": "event"
    },
    {
      "inputs": [
        {
          "internalType": "address",
          "name": "to",
          "type": "address"
        },
        {
          "internalType": "uint256",
          "name": "tokenId",
          "type": "uint256"
        }
      ],
      "name": "approve",
      "outputs": [],
      "stateMutability": "nonpayable",
      "type": "function"
    },
    {
      "inputs": [
        {
          "internalType": "address",
          "name": "market",
          "type": "address"
        }
      ],
      "name": "authorizeMarket",
      "outputs": [],
      "stateMutability": "nonpayable",
      "type": "function"
    },
    {
      "inputs": [
        {
          "internalType": "address",
          "name": "",
          "type": "address"
        }
      ],
      "name": "authorizedMarkets",
      "outputs": [
        {
          "internalType": "bool",
          "name": "",
          "type": "bool"
        }
      ],
      "stateMutability": "view",
      "type": "function"
    },
    {
      "inputs": [
        {
          "internalType": "address",
          "name": "owner",
          "type": "address"
        }
      ],
      "name": "balanceOf",
      "outputs": [
        {
          "internalType": "uint256",
          "name": "",
          "type": "uint256"
        }
      ],
      "stateMutability": "view",
      "type": "function"
    },
    {
      "inputs": [
        {
          "internalType": "uint256",
          "name": "",
          "type": "uint256"
        }
      ],
      "name": "betMetadata",
      "outputs": [
        {
          "internalType": "address",
          "name": "market",
          "type": "address"
        },
        {
          "internalType": "uint256",
          "name": "shares",
          "type": "uint256"
        },
        {
          "internalType": "bool",
          "name": "isYes",
          "type": "bool"
        },
        {
          "internalType": "uint256",
          "name": "timestamp",
          "type": "uint256"
        }
      ],
      "stateMutability": "view",
      "type": "function"
    },
    {
      "inputs": [
        {
          "internalType": "uint256",
          "name": "tokenId",
          "type": "uint256"
        }
      ],
      "name": "buyNFT",
      "outputs": [],
      "stateMutability": "payable",
      "type": "function"
    },
    {
      "inputs": [
        {
          "internalType": "uint256",
          "name": "tokenId",
          "type": "uint256"
        }
      ],
      "name": "cancelListing",
      "outputs": [],
      "stateMutability": "nonpayable",
      "type": "function"
    },
    {
      "inputs": [
        {
          "internalType": "uint256",
          "name": "tokenId",
          "type": "uint256"
        }
      ],
      "name": "getApproved",
      "outputs": [
        {
          "internalType": "address",
          "name": "",
          "type": "address"
        }
      ],
      "stateMutability": "view",
      "type": "function"
    },
    {
      "inputs": [
        {
          "internalType": "address",
          "name": "owner",
          "type": "address"
        },
        {
          "internalType": "address",
          "name": "operator",
          "type": "address"
        }
      ],
      "name": "isApprovedForAll",
      "outputs": [
        {
          "internalType": "bool",
          "name": "",
          "type": "bool"
        }
      ],
      "stateMutability": "view",
      "type": "function"
    },
    {
      "inputs": [
        {
          "internalType": "uint256",
          "name": "tokenId",
          "type": "uint256"
        },
        {
          "internalType": "uint256",
          "name": "price",
          "type": "uint256"
        }
      ],
      "name": "listNFT",
      "outputs": [],
      "stateMutability": "nonpayable",
      "type": "function"
    },
    {
      "inputs": [
        {
          "internalType": "uint256",
          "name": "",
          "type": "uint256"
        }
      ],
      "name": "listings",
      "outputs": [
        {
          "internalType": "uint256",
          "name": "tokenId",
          "type": "uint256"
        },
        {
          "internalType": "uint256",
          "name": "price",
          "type": "uint256"
        },
        {
          "internalType": "address",
          "name": "seller",
          "type": "address"
        },
        {
          "internalType": "bool",
          "name": "active",
          "type": "bool"
        }
      ],
      "stateMutability": "view",
      "type": "function"
    },
    {
      "inputs": [
        {
          "internalType": "address",
          "name": "to",
          "type": "address"
        },
        {
          "internalType": "address",
          "name": "market",
          "type": "address"
        },
        {
          "internalType": "uint256",
          "name": "shares",
          "type": "uint256"
        },
        {
          "internalType": "bool",
          "name": "isYes",
          "type": "bool"
        }
      ],
      "name": "mintBetNFT",
      "outputs": [
        {
          "internalType": "uint256",
          "name": "",
          "type": "uint256"
        }
      ],
      "stateMutability": "nonpayable",
      "type": "function"
    },
    {
      "inputs": [],
      "name": "name",
      "outputs": [
        {
          "internalType": "string",
          "name": "",
          "type": "string"
        }
      ],
      "stateMutability": "view",
      "type": "function"
    },
    {
      "inputs": [],
      "name": "owner",
      "outputs": [
        {
          "internalType": "address",
          "name": "",
          "type": "address"
        }
      ],
      "stateMutability": "view",
      "type": "function"
    },
    {
      "inputs": [
        {
          "internalType": "uint256",
          "name": "tokenId",
          "type": "uint256"
        }
      ],
      "name": "ownerOf",
      "outputs": [
        {
          "internalType": "address",
          "name": "",
          "type": "address"
        }
      ],
      "stateMutability": "view",
      "type": "function"
    },
    {
      "inputs": [],
      "name": "renounceOwnership",
      "outputs": [],
      "stateMutability": "nonpayable",
      "type": "function"
    },
    {
      "inputs": [
        {
          "internalType": "address",
          "name": "market",
          "type": "address"
        }
      ],
      "name": "revokeMarket",
      "outputs": [],
      "stateMutability": "nonpayable",
      "type": "function"
    },
    {
      "inputs": [
        {
          "internalType": "address",
          "name": "from",
          "type": "address"
        },
        {
          "internalType": "address",
          "name": "to",
          "type": "address"
        },
        {
          "internalType": "uint256",
          "name": "tokenId",
          "type": "uint256"
        }
      ],
      "name": "safeTransferFrom",
      "outputs": [],
      "stateMutability": "nonpayable",
      "type": "function"
    },
    {
      "inputs": [
        {
          "internalType": "address",
          "name": "from",
          "type": "address"
        },
        {
          "internalType": "address",
          "name": "to",
          "type": "address"
        },
        {
          "internalType": "uint256",
          "name": "tokenId",
          "type": "uint256"
        },
        {
          "internalType": "bytes",
          "name": "data",
          "type": "bytes"
        }
      ],
      "name": "safeTransferFrom",
      "outputs": [],
      "stateMutability": "nonpayable",
      "type": "function"
    },
    {
      "inputs": [
        {
          "internalType": "address",
          "name": "operator",
          "type": "address"
        },
        {
          "internalType": "bool",
          "name": "approved",
          "type": "bool"
        }
      ],
      "name": "setApprovalForAll",
      "outputs": [],
      "stateMutability": "nonpayable",
      "type": "function"
    },
    {
      "inputs": [
        {
          "internalType": "bytes4",
          "name": "interfaceId",
          "type": "bytes4"
        }
      ],
      "name": "supportsInterface",
      "outputs": [
        {
          "internalType": "bool",
          "name": "",
          "type": "bool"
        }
      ],
      "stateMutability": "view",
      "type": "function"
    },
    {
      "inputs": [],
      "name": "symbol",
      "outputs": [
        {
          "internalType": "string",
          "name": "",
          "type": "string"
        }
      ],
      "stateMutability": "view",
      "type": "function"
    },
    {
      "inputs": [
        {
          "internalType": "uint256",
          "name": "index",
          "type": "uint256"
        }
      ],
      "name": "tokenByIndex",
      "outputs": [
        {
          "internalType": "uint256",
          "name": "",
          "type": "uint256"
        }
      ],
      "stateMutability": "view",
      "type": "function"
    },
    {
      "inputs": [
        {
          "internalType": "address",
          "name": "owner",
          "type": "address"
        },
        {
          "internalType": "uint256",
          "name": "index",
          "type": "uint256"
        }
      ],
      "name": "tokenOfOwnerByIndex",
      "outputs": [
        {
          "internalType": "uint256",
          "name": "",
          "type": "uint256"
        }
      ],
      "stateMutability": "view",
      "type": "function"
    },
    {
      "inputs": [
        {
          "internalType": "uint256",
          "name": "tokenId",
          "type": "uint256"
        }
      ],
      "name": "tokenURI",
      "outputs": [
        {
          "internalType": "string",
          "name": "",
          "type": "string"
        }
      ],
      "stateMutability": "view",
      "type": "function"
    },
    {
      "inputs": [],
      "name": "totalSupply",
      "outputs": [
        {
          "internalType": "uint256",
          "name": "",
          "type": "uint256"
        }
      ],
      "stateMutability": "view",
      "type": "function"
    },
    {
      "inputs": [
        {
          "internalType": "address",
          "name": "from",
          "type": "address"
        },
        {
          "internalType": "address",
          "name": "to",
          "type": "address"
        },
        {
          "internalType": "uint256",
          "name": "tokenId",
          "type": "uint256"
        }
      ],
      "name": "transferFrom",
      "outputs": [],
      "stateMutability": "nonpayable",
      "type": "function"
    },
    {
      "inputs": [
        {
          "internalType": "address",
          "name": "newOwner",
          "type": "address"
        }
      ],
      "name": "transferOwnership",
      "outputs": [],
      "stateMutability": "nonpayable",
      "type": "function"
    }
  ],
  "bytecode": "0x60806040526001600e5534801562000015575f80fd5b503360405180604001604052806011815260200170109b1bd8dad0d85cdd0810995d08139195607a1b815250604051806040016040528060058152602001641090d0915560da1b815250815f90816200006f9190620001b2565b5060016200007e8282620001b2565b5050506001600160a01b038116620000af57604051631e4fbdf760e01b81525f600482015260240160405180910390fd5b620000ba81620000c1565b506200027a565b600a80546001600160a01b038381166001600160a01b0319831681179093556040519116919082907f8be0079c531659141344cd1fd0a4f28419497f9722a3daafe3b4186f6b6457e0905f90a35050565b634e487b7160e01b5f52604160045260245ffd5b600181811c908216806200013b57607f821691505b6020821081036200015a57634e487b7160e01b5f52602260045260245ffd5b50919050565b601f821115620001ad575f81815260208120601f850160051c81016020861015620001885750805b601f850160051c820191505b81811015620001a95782815560010162000194565b5050505b505050565b81516001600160401b03811115620001ce57620001ce62000112565b620001e681620001df845462000126565b8462000160565b602080601f8311600181146200021c575f8415620002045750858301515b5f19600386901b1c1916600185901b178555620001a9565b5f85815260208120601f198616915b828110156200024c578886015182559484019460019091019084016200022b565b50858210156200026a57878501515f19600388901b60f8161c191681555b5050505050600190811b01905550565b6127dc80620002885f395ff3fe6080604052600436106101af575f3560e01c806351ed8288116100e7578063a22cb46511610087578063de74e57b11610062578063de74e57b14610517578063e985e9c514610597578063f2862e67146105b6578063f2fde38b146105d5575f80fd5b8063a22cb465146104ba578063b88d4fde146104d9578063c87b56dd146104f8575f80fd5b8063715018a6116100c2578063715018a6146104565780638da5cb5b1461046a57806394383f141461048757806395d89b41146104a6575f80fd5b806351ed8288146104055780636352211e1461041857806370a0823114610437575f80fd5b806329527b8211610152578063305a67a81161012d578063305a67a81461037a57806342842e0e146103995780634299b8a2146103b85780634f6ccce7146103e6575f80fd5b806329527b82146102bc5780632a8ab97e146102db5780632f745c591461035b575f80fd5b8063095ea7b31161018d578063095ea7b31461023f57806318160ddd1461026057806323b872dd1461027e57806324d79a431461029d575f80fd5b806301ffc9a7146101b357806306fdde03146101e7578063081812fc14610208575b5f80fd5b3480156101be575f80fd5b506101d26101cd366004612014565b6105f4565b60405190151581526020015b60405180910390f35b3480156101f2575f80fd5b506101fb610604565b6040516101de9190612083565b348015610213575f80fd5b50610227610222366004612095565b610693565b6040516001600160a01b0390911681526020016101de565b34801561024a575f80fd5b5061025e6102593660046120c0565b6106ba565b005b34801561026b575f80fd5b506008545b6040519081526020016101de565b348015610289575f80fd5b5061025e6102983660046120ea565b6106c9565b3480156102a8575f80fd5b506102706102b736600461213c565b610757565b3480156102c7575f80fd5b5061025e6102d636600461218a565b6108a5565b3480156102e6575f80fd5b5061032b6102f5366004612095565b600b6020525f908152604090208054600182015460028301546003909301546001600160a01b0390921692909160ff9091169084565b604080516001600160a01b03909516855260208501939093529015159183019190915260608201526080016101de565b348015610366575f80fd5b506102706103753660046120c0565b6108cd565b348015610385575f80fd5b5061025e610394366004612095565b610930565b3480156103a4575f80fd5b5061025e6103b33660046120ea565b610a2c565b3480156103c3575f80fd5b506101d26103d236600461218a565b600d6020525f908152604090205460ff1681565b3480156103f1575f80fd5b50610270610400366004612095565b610a4b565b61025e610413366004612095565b610aa0565b348015610423575f80fd5b50610227610432366004612095565b610e39565b348015610442575f80fd5b5061027061045136600461218a565b610e43565b348015610461575f80fd5b5061025e610e88565b348015610475575f80fd5b50600a546001600160a01b0316610227565b348015610492575f80fd5b5061025e6104a13660046121a5565b610e9b565b3480156104b1575f80fd5b506101fb61117d565b3480156104c5575f80fd5b5061025e6104d43660046121c5565b61118c565b3480156104e4575f80fd5b5061025e6104f336600461228d565b611197565b348015610503575f80fd5b506101fb610512366004612095565b6111af565b348015610522575f80fd5b50610566610531366004612095565b600c6020525f90815260409020805460018201546002909201549091906001600160a01b03811690600160a01b900460ff1684565b6040516101de949392919093845260208401929092526001600160a01b031660408301521515606082015260800190565b3480156105a2575f80fd5b506101d26105b1366004612335565b611311565b3480156105c1575f80fd5b5061025e6105d036600461218a565b61133e565b3480156105e0575f80fd5b5061025e6105ef36600461218a565b611369565b5f6105fe826113a6565b92915050565b60605f80546106129061236c565b80601f016020809104026020016040519081016040528092919081815260200182805461063e9061236c565b80156106895780601f1061066057610100808354040283529160200191610689565b820191905f5260205f20905b81548152906001019060200180831161066c57829003601f168201915b5050505050905090565b5f61069d826113ca565b505f828152600460205260409020546001600160a01b03166105fe565b6106c5828233611402565b5050565b6001600160a01b0382166106f757604051633250574960e11b81525f60048201526024015b60405180910390fd5b5f61070383833361140f565b9050836001600160a01b0316816001600160a01b031614610751576040516364283d7b60e01b81526001600160a01b03808616600483015260248201849052821660448201526064016106ee565b50505050565b335f908152600d602052604081205460ff166107ad5760405162461bcd60e51b8152602060048201526015602482015274139bdd08185d5d1a1bdc9a5e9959081b585c9ad95d605a1b60448201526064016106ee565b600e80545f91826107bd836123b8565b90915550604080516080810182526001600160a01b038881168252602080830189815288151584860190815242606086019081525f888152600b90945295909220935184546001600160a01b0319169316929092178355905160018301555160028201805460ff1916911515919091179055905160039091015590506108438682611423565b856001600160a01b0316856001600160a01b0316827f4dfc771ccc12cce80e2ec2b4e646cab2e750b37db68e7850f4a3179aa9d9284e87876040516108949291909182521515602082015260400190565b60405180910390a495945050505050565b6108ad611484565b6001600160a01b03165f908152600d60205260409020805460ff19169055565b5f6108d783610e43565b82106109085760405163295f44f760e21b81526001600160a01b0384166004820152602481018390526044016106ee565b506001600160a01b03919091165f908152600660209081526040808320938352929052205490565b5f818152600c60205260409020600201546001600160a01b0316331461098b5760405162461bcd60e51b815260206004820152601060248201526f4e6f7420796f7572206c697374696e6760801b60448201526064016106ee565b5f818152600c6020526040902060020154600160a01b900460ff166109e75760405162461bcd60e51b81526020600482015260126024820152714c697374696e67206e6f742061637469766560701b60448201526064016106ee565b5f818152600c6020526040808220600201805460ff60a01b191690555182917f5d7a33421ffa4bc07eb8929c5ace6393d3aa5ec3775e4e2f442527876b7dbe8891a250565b610a4683838360405180602001604052805f815250611197565b505050565b5f610a5560085490565b8210610a7d5760405163295f44f760e21b81525f6004820152602481018390526044016106ee565b60088281548110610a9057610a906123d0565b905f5260205f2001549050919050565b5f818152600c6020908152604091829020825160808101845281548152600182015492810192909252600201546001600160a01b03811692820192909252600160a01b90910460ff16151560608201819052610b335760405162461bcd60e51b81526020600482015260126024820152714c697374696e67206e6f742061637469766560701b60448201526064016106ee565b8060200151341015610b7e5760405162461bcd60e51b8152602060048201526014602482015273125b9cdd59999a58da595b9d081c185e5b595b9d60621b60448201526064016106ee565b5f828152600b60209081526040808320815160808101835281546001600160a01b0316808252600183015494820194909452600282015460ff16151581840152600390910154606082015281516323341a0560e01b8152915190939183916323341a059160048082019286929091908290030181865afa158015610c04573d5f803e3d5ffd5b505050506040513d5f823e601f3d908101601f19168201604052610c2b91908101906123fd565b9050600181608001516004811115610c4557610c456124d1565b14610c885760405162461bcd60e51b815260206004820152601360248201527226b0b935b2ba1036bab9ba1031329037b832b760691b60448201526064016106ee565b80606001514210610cca5760405162461bcd60e51b815260206004820152600c60248201526b13585c9ad95d08195b99195960a21b60448201526064016106ee565b6040848101516020808701515f898152600c8352849020600201805460ff60a01b19169055908601518684015193516390b1bfc160e01b81526001600160a01b03808516600483015233602483015260448201929092529315156064850152919290918516906390b1bfc1906084015f604051808303815f87803b158015610d50575f80fd5b505af1158015610d62573d5f803e3d5ffd5b50505050610d718233896114b1565b6040516001600160a01b0383169082156108fc029083905f818181858888f19350505050158015610da4573d5f803e3d5ffd5b5080341115610de257336108fc610dbb83346124e5565b6040518115909202915f818181858888f19350505050158015610de0573d5f803e3d5ffd5b505b336001600160a01b0316826001600160a01b0316887f8562eb94748e30bb0071e932744ce902b460c683474fcb3bfd567ffa16b1afb284604051610e2891815260200190565b60405180910390a450505050505050565b5f6105fe826113ca565b5f6001600160a01b038216610e6d576040516322718ad960e21b81525f60048201526024016106ee565b506001600160a01b03165f9081526003602052604090205490565b610e90611484565b610e995f61155e565b565b33610ea583610e39565b6001600160a01b031614610ee75760405162461bcd60e51b81526020600482015260096024820152682737ba1037bbb732b960b91b60448201526064016106ee565b5f8111610f2f5760405162461bcd60e51b81526020600482015260166024820152755072696365206d75737420626520706f73697469766560501b60448201526064016106ee565b5f828152600c6020526040902060020154600160a01b900460ff1615610f885760405162461bcd60e51b815260206004820152600e60248201526d105b1c9958591e481b1a5cdd195960921b60448201526064016106ee565b5f828152600b60209081526040808320815160808101835281546001600160a01b0316808252600183015494820194909452600282015460ff16151581840152600390910154606082015281516323341a0560e01b8152915190939183916323341a059160048082019286929091908290030181865afa15801561100e573d5f803e3d5ffd5b505050506040513d5f823e601f3d908101601f1916820160405261103591908101906123fd565b905060018160800151600481111561104f5761104f6124d1565b146110925760405162461bcd60e51b815260206004820152601360248201527226b0b935b2ba1036bab9ba1031329037b832b760691b60448201526064016106ee565b806060015142106110d45760405162461bcd60e51b815260206004820152600c60248201526b13585c9ad95d08195b99195960a21b60448201526064016106ee565b604080516080810182528681526020808201878152338385018181526001606086018181525f8d8152600c875288902096518755935190860155516002909401805492511515600160a01b026001600160a81b03199093166001600160a01b0390951694909417919091179092559151868152909187917f5f9c03de076f5063cd3ebcfe8ef7aa8af378e4b35a83c77ba9777e97083879a2910160405180910390a35050505050565b6060600180546106129061236c565b6106c53383836115af565b6111a28484846106c9565b610751338585858561164d565b60605f6111bb83610e39565b6001600160a01b0316036112085760405162461bcd60e51b8152602060048201526014602482015273151bdad95b88191bd95cc81b9bdd08195e1a5cdd60621b60448201526064016106ee565b5f828152600b6020908152604091829020825160808101845281546001600160a01b03168152600182015492810192909252600281015460ff16151592820192909252600390910154606082015261125f83611775565b8151611273906001600160a01b0316611805565b611293670de0b6b3a7640000846020015161128e91906124f8565b611775565b83604001516112bc57604051806040016040528060028152602001614e4f60f01b8152506112d9565b6040518060400160405280600381526020016259455360e81b8152505b6112e68560600151611775565b6040516020016112fa959493929190612532565b604051602081830303815290604052915050919050565b6001600160a01b039182165f90815260056020908152604080832093909416825291909152205460ff1690565b611346611484565b6001600160a01b03165f908152600d60205260409020805460ff19166001179055565b611371611484565b6001600160a01b03811661139a57604051631e4fbdf760e01b81525f60048201526024016106ee565b6113a38161155e565b50565b5f6001600160e01b0319821663780e9d6360e01b14806105fe57506105fe8261186f565b5f818152600260205260408120546001600160a01b0316806105fe57604051637e27328960e01b8152600481018490526024016106ee565b610a4683838360016118be565b5f61141b8484846119c2565b949350505050565b6001600160a01b03821661144c57604051633250574960e11b81525f60048201526024016106ee565b5f61145883835f61140f565b90506001600160a01b03811615610a46576040516339e3563760e11b81525f60048201526024016106ee565b600a546001600160a01b03163314610e995760405163118cdaa760e01b81523360048201526024016106ee565b6001600160a01b0382166114da57604051633250574960e11b81525f60048201526024016106ee565b5f6114e683835f61140f565b90506001600160a01b03811661151257604051637e27328960e01b8152600481018390526024016106ee565b836001600160a01b0316816001600160a01b031614610751576040516364283d7b60e01b81526001600160a01b03808616600483015260248201849052821660448201526064016106ee565b600a80546001600160a01b038381166001600160a01b0319831681179093556040519116919082907f8be0079c531659141344cd1fd0a4f28419497f9722a3daafe3b4186f6b6457e0905f90a35050565b6001600160a01b0382166115e157604051630b61174360e31b81526001600160a01b03831660048201526024016106ee565b6001600160a01b038381165f81815260056020908152604080832094871680845294825291829020805460ff191686151590811790915591519182527f17307eab39ab6107e8899845ad3d59bd9653f200f220920489ca2b5937696c31910160405180910390a3505050565b6001600160a01b0383163b1561176e57604051630a85bd0160e11b81526001600160a01b0384169063150b7a029061168f9088908890879087906004016126fc565b6020604051808303815f875af19250505080156116c9575060408051601f3d908101601f191682019092526116c691810190612738565b60015b611730573d8080156116f6576040519150601f19603f3d011682016040523d82523d5f602084013e6116fb565b606091505b5080515f0361172857604051633250574960e11b81526001600160a01b03851660048201526024016106ee565b805160208201fd5b6001600160e01b03198116630a85bd0160e11b1461176c57604051633250574960e11b81526001600160a01b03851660048201526024016106ee565b505b5050505050565b60605f61178183611a8d565b60010190505f8167ffffffffffffffff8111156117a0576117a06121f8565b6040519080825280601f01601f1916602001820160405280156117ca576020820181803683370190505b5090508181016020015b5f19016f181899199a1a9b1b9c1cb0b131b232b360811b600a86061a8153600a85049450846117d457509392505050565b60606105fe82611867845f60076fffffffffffffffffffffffffffffffff8311901b9050600667ffffffffffffffff83831c11901b17600563ffffffff83831c11901b17600461ffff83831c11901b1760ff82821c1160039190911c17919050565b600101611b64565b5f6001600160e01b031982166380ac58cd60e01b148061189f57506001600160e01b03198216635b5e139f60e01b145b806105fe57506301ffc9a760e01b6001600160e01b03198316146105fe565b80806118d257506001600160a01b03821615155b15611993575f6118e1846113ca565b90506001600160a01b0383161580159061190d5750826001600160a01b0316816001600160a01b031614155b8015611920575061191e8184611311565b155b156119495760405163a9fbf51f60e01b81526001600160a01b03841660048201526024016106ee565b81156119915783856001600160a01b0316826001600160a01b03167f8c5be1e5ebec7d5bd14f71427d1e84f3dd0314c0f7b2291e5b200ac8c7c3b92560405160405180910390a45b505b50505f90815260046020526040902080546001600160a01b0319166001600160a01b0392909216919091179055565b5f806119cf858585611cd6565b90506001600160a01b038116611a2b57611a2684600880545f838152600960205260408120829055600182018355919091527ff3f7a9fe364faab93b216da50a3214154f22a0a2b415b23a84c8169e8b636ee30155565b611a4e565b846001600160a01b0316816001600160a01b031614611a4e57611a4e8185611dc8565b6001600160a01b038516611a6a57611a6584611e45565b61141b565b846001600160a01b0316816001600160a01b03161461141b5761141b8585611eec565b5f8072184f03e93ff9f4daa797ed6e38ed64bf6a1f0160401b8310611acb5772184f03e93ff9f4daa797ed6e38ed64bf6a1f0160401b830492506040015b6d04ee2d6d415b85acef81000000008310611af7576d04ee2d6d415b85acef8100000000830492506020015b662386f26fc100008310611b1557662386f26fc10000830492506010015b6305f5e1008310611b2d576305f5e100830492506008015b6127108310611b4157612710830492506004015b60648310611b53576064830492506002015b600a83106105fe5760010192915050565b6060825f611b73846002612753565b611b7e90600261276a565b67ffffffffffffffff811115611b9657611b966121f8565b6040519080825280601f01601f191660200182016040528015611bc0576020820181803683370190505b509050600360fc1b815f81518110611bda57611bda6123d0565b60200101906001600160f81b03191690815f1a905350600f60fb1b81600181518110611c0857611c086123d0565b60200101906001600160f81b03191690815f1a9053505f611c2a856002612753565b611c3590600161276a565b90505b6001811115611cac576f181899199a1a9b1b9c1cb0b131b232b360811b83600f1660108110611c6957611c696123d0565b1a60f81b828281518110611c7f57611c7f6123d0565b60200101906001600160f81b03191690815f1a90535060049290921c91611ca58161277d565b9050611c38565b50811561141b5760405163e22e27eb60e01b815260048101869052602481018590526044016106ee565b5f828152600260205260408120546001600160a01b0390811690831615611d0257611d02818486611f3a565b6001600160a01b03811615611d3c57611d1d5f855f806118be565b6001600160a01b0381165f90815260036020526040902080545f190190555b6001600160a01b03851615611d6a576001600160a01b0385165f908152600360205260409020805460010190555b5f8481526002602052604080822080546001600160a01b0319166001600160a01b0389811691821790925591518793918516917fddf252ad1be2c89b69c2b068fc378daa952ba7f163c4a11628f55a4df523b3ef91a4949350505050565b5f611dd283610e43565b5f838152600760209081526040808320546001600160a01b0388168452600690925290912091925090818314611e27575f83815260208281526040808320548584528184208190558352600790915290208290555b5f938452600760209081526040808620869055938552525081205550565b6008545f90611e56906001906124e5565b5f8381526009602052604081205460088054939450909284908110611e7d57611e7d6123d0565b905f5260205f20015490508060088381548110611e9c57611e9c6123d0565b5f918252602080832090910192909255828152600990915260408082208490558582528120556008805480611ed357611ed3612792565b600190038181905f5260205f20015f9055905550505050565b5f6001611ef884610e43565b611f0291906124e5565b6001600160a01b039093165f908152600660209081526040808320868452825280832085905593825260079052919091209190915550565b611f45838383611f9e565b610a46576001600160a01b038316611f7357604051637e27328960e01b8152600481018290526024016106ee565b60405163177e802f60e01b81526001600160a01b0383166004820152602481018290526044016106ee565b5f6001600160a01b0383161580159061141b5750826001600160a01b0316846001600160a01b03161480611fd75750611fd78484611311565b8061141b5750505f908152600460205260409020546001600160a01b03908116911614919050565b6001600160e01b0319811681146113a3575f80fd5b5f60208284031215612024575f80fd5b813561202f81611fff565b9392505050565b5f5b83811015612050578181015183820152602001612038565b50505f910152565b5f815180845261206f816020860160208601612036565b601f01601f19169290920160200192915050565b602081525f61202f6020830184612058565b5f602082840312156120a5575f80fd5b5035919050565b6001600160a01b03811681146113a3575f80fd5b5f80604083850312156120d1575f80fd5b82356120dc816120ac565b946020939093013593505050565b5f805f606084860312156120fc575f80fd5b8335612107816120ac565b92506020840135612117816120ac565b929592945050506040919091013590565b80358015158114612137575f80fd5b919050565b5f805f806080858703121561214f575f80fd5b843561215a816120ac565b9350602085013561216a816120ac565b92506040850135915061217f60608601612128565b905092959194509250565b5f6020828403121561219a575f80fd5b813561202f816120ac565b5f80604083850312156121b6575f80fd5b50508035926020909101359150565b5f80604083850312156121d6575f80fd5b82356121e1816120ac565b91506121ef60208401612128565b90509250929050565b634e487b7160e01b5f52604160045260245ffd5b60405160a0810167ffffffffffffffff8111828210171561222f5761222f6121f8565b60405290565b604051601f8201601f1916810167ffffffffffffffff8111828210171561225e5761225e6121f8565b604052919050565b5f67ffffffffffffffff82111561227f5761227f6121f8565b50601f01601f191660200190565b5f805f80608085870312156122a0575f80fd5b84356122ab816120ac565b935060208501356122bb816120ac565b925060408501359150606085013567ffffffffffffffff8111156122dd575f80fd5b8501601f810187136122ed575f80fd5b80356123006122fb82612266565b612235565b818152886020838501011115612314575f80fd5b816020840160208301375f6020838301015280935050505092959194509250565b5f8060408385031215612346575f80fd5b8235612351816120ac565b91506020830135612361816120ac565b809150509250929050565b600181811c9082168061238057607f821691505b60208210810361239e57634e487b7160e01b5f52602260045260245ffd5b50919050565b634e487b7160e01b5f52601160045260245ffd5b5f600182016123c9576123c96123a4565b5060010190565b634e487b7160e01b5f52603260045260245ffd5b8051612137816120ac565b805160058110612137575f80fd5b5f602080838503121561240e575f80fd5b825167ffffffffffffffff80821115612425575f80fd5b9084019060a08287031215612438575f80fd5b61244061220c565b825181528383015182811115612454575f80fd5b83019150601f82018713612466575f80fd5b81516124746122fb82612266565b8181528886838601011115612487575f80fd5b61249682878301888701612036565b82860152506124a7604084016123e4565b6040820152606083015160608201526124c2608084016123ef565b60808201529695505050505050565b634e487b7160e01b5f52602160045260245ffd5b818103818111156105fe576105fe6123a4565b5f8261251257634e487b7160e01b5f52601260045260245ffd5b500490565b5f8151612528818560208601612036565b9290920192915050565b7f646174613a6170706c69636174696f6e2f6a736f6e2c7b226e616d65223a224281526d6c6f636b4361737420426574202360901b60208201525f865161258081602e850160208b01612036565b7f222c226465736372697074696f6e223a2250726564696374696f6e206d61726b602e918401918201527f657420706f736974696f6e204e4654222c2261747472696275746573223a5b7b604e8201527f2274726169745f74797065223a224d61726b6574222c2276616c7565223a2200606e820152865161260981608d840160208b01612036565b7f227d2c7b2274726169745f74797065223a22536861726573222c2276616c7565608d929091019182015261111d60f11b60ad82015285516126528160af840160208a01612036565b6126ef6126e06126da6126a361269d60af868801017f7d2c7b2274726169745f74797065223a22506f736974696f6e222c2276616c7581526332911d1160e11b602082015260240190565b8a612517565b7f227d2c7b2274726169745f74797065223a2254696d657374616d70222c227661815264363ab2911d60d91b602082015260250190565b87612517565b627d5d7d60e81b815260030190565b9998505050505050505050565b6001600160a01b03858116825284166020820152604081018390526080606082018190525f9061272e90830184612058565b9695505050505050565b5f60208284031215612748575f80fd5b815161202f81611fff565b80820281158282048414176105fe576105fe6123a4565b808201808211156105fe576105fe6123a4565b5f8161278b5761278b6123a4565b505f190190565b634e487b7160e01b5f52603160045260245ffdfea26469706673582212206adce1fad452dd76f0ae9579815a393bf428b116a1852b2dac5ce1903d8d584d64736f6c63430008140033",
  "linkReferences": {},
  "deployedLinkReferences": {},
  "immutableReferences": {},
  "inputSourceName": "project/contracts/BetNFT.sol",
  "buildInfoId": "solc-0_8_20-4e41314eaa0ebc0f27cb45e1c2d7748172e56a4e"
}