{
  "_format": "hh3-artifact-1",
  "contractName": "AdminManager",
  "sourceName": "contracts/AdminManager.sol",
  "abi": [
    {
      "inputs": [],
      "stateMutability": "nonpayable",
      "type": "constructor"
    },
    {
      "anonymous": false,
      "inputs": [
        {
          "indexed": true,
          "internalType": "address",
          "name": "aiAgent",
          "type": "address"
        }
      ],
      "name": "AIAgentAdded",
      "type": "event"
    },
    {
      "anonymous": false,
      "inputs": [
        {
          "indexed": true,
          "internalType": "address",
          "name": "aiAgent",
          "type": "address"
        }
      ],
      "name": "AIAgentRemoved",
      "type": "event"
    },
    {
      "anonymous": false,
      "inputs": [
        {
          "indexed": true,
          "internalType": "address",
          "name": "admin",
          "type": "address"
        }
      ],
      "name": "AdminAdded",
      "type": "event"
    },
    {
      "anonymous": false,
      "inputs": [
        {
          "indexed": true,
          "internalType": "address",
          "name": "admin",
          "type": "address"
        }
      ],
      "name": "AdminRemoved",
      "type": "event"
    },
    {
      "anonymous": false,
      "inputs": [
        {
          "indexed": false,
          "internalType": "address[]",
          "name": "aiAgents",
          "type": "address[]"
        }
      ],
      "name": "AllAIAgentsRevoked",
      "type": "event"
    },
    {
      "inputs": [
        {
          "internalType": "address",
          "name": "_aiAgent",
          "type": "address"
        }
      ],
      "name": "addAIAgent",
      "outputs": [],
      "stateMutability": "nonpayable",
      "type": "function"
    },
    {
      "inputs": [
        {
          "internalType": "address",
          "name": "_admin",
          "type": "address"
        }
      ],
      "name": "addAdmin",
      "outputs": [],
      "stateMutability": "nonpayable",
      "type": "function"
    },
    {
      "inputs": [
        {
          "internalType": "address",
          "name": "_address",
          "type": "address"
        }
      ],
      "name": "hasAdminPermissions",
      "outputs": [
        {
          "internalType": "bool",
          "name": "",
          "type": "bool"
        }
      ],
      "stateMutability": "view",
      "type": "function"
    },
    {
      "inputs": [
        {
          "internalType": "address",
          "name": "",
          "type": "address"
        }
      ],
      "name": "isAIAgent",
      "outputs": [
        {
          "internalType": "bool",
          "name": "",
          "type": "bool"
        }
      ],
      "stateMutability": "view",
      "type": "function"
    },
    {
      "inputs": [
        {
          "internalType": "address",
          "name": "",
          "type": "address"
        }
      ],
      "name": "isAdmin",
      "outputs": [
        {
          "internalType": "bool",
          "name": "",
          "type": "bool"
        }
      ],
      "stateMutability": "view",
      "type": "function"
    },
    {
      "inputs": [
        {
          "internalType": "address",
          "name": "_aiAgent",
          "type": "address"
        }
      ],
      "name": "removeAIAgent",
      "outputs": [],
      "stateMutability": "nonpayable",
      "type": "function"
    },
    {
      "inputs": [
        {
          "internalType": "address",
          "name": "_admin",
          "type": "address"
        }
      ],
      "name": "removeAdmin",
      "outputs": [],
      "stateMutability": "nonpayable",
      "type": "function"
    },
    {
      "inputs": [
        {
          "internalType": "address[]",
          "name": "_aiAgents",
          "type": "address[]"
        }
      ],
      "name": "revokeAllAIAgents",
      "outputs": [],
      "stateMutability": "nonpayable",
      "type": "function"
    },
    {
      "inputs": [],
      "name": "superAdmin",
      "outputs": [
        {
          "internalType": "address",
          "name": "",
          "type": "address"
        }
      ],
      "stateMutability": "view",
      "type": "function"
    }
  ],
  "bytecode": "0x608060405234801561000f575f80fd5b50600280546001600160a01b031916339081179091555f908152602081905260409020805460ff191660011790556107258061004a5f395ff3fe608060405234801561000f575f80fd5b5060043610610090575f3560e01c806341dde86f1161006357806341dde86f1461011e5780637048027514610131578063b365ed2014610144578063c464d80d14610157578063d4d12ee11461016a575f80fd5b80631785f53c1461009457806324d7806c146100a957806329575f6a146100e0578063344e93491461010b575b5f80fd5b6100a76100a23660046105b4565b61018c565b005b6100cb6100b73660046105b4565b5f6020819052908152604090205460ff1681565b60405190151581526020015b60405180910390f35b6002546100f3906001600160a01b031681565b6040516001600160a01b0390911681526020016100d7565b6100a76101193660046105b4565b610265565b6100cb61012c3660046105b4565b6102d7565b6100a761013f3660046105b4565b610332565b6100a76101523660046105d4565b6103f5565b6100a76101653660046105b4565b6104cb565b6100cb6101783660046105b4565b60016020525f908152604090205460ff1681565b6002546001600160a01b031633146101bf5760405162461bcd60e51b81526004016101b690610643565b60405180910390fd5b6002546001600160a01b039081169082160361021d5760405162461bcd60e51b815260206004820152601960248201527f43616e6e6f742072656d6f76652073757065722061646d696e0000000000000060448201526064016101b6565b6001600160a01b0381165f81815260208190526040808220805460ff19169055517fa3b62bc36326052d97ea62d63c3d60308ed4c3ea8ac079dd8499f1e9c4f80c0f9190a250565b6002546001600160a01b0316331461028f5760405162461bcd60e51b81526004016101b690610643565b6001600160a01b0381165f81815260016020526040808220805460ff19169055517f99ff1f365f0a98d8209b7cf47f45d73d7e2360400b0c942683f7732bc6e2fcf99190a250565b6001600160a01b0381165f9081526020819052604081205460ff168061031457506001600160a01b0382165f9081526001602052604090205460ff165b8061032c57506002546001600160a01b038381169116145b92915050565b6002546001600160a01b0316331461035c5760405162461bcd60e51b81526004016101b690610643565b6001600160a01b0381166103aa5760405162461bcd60e51b8152602060048201526015602482015274496e76616c69642061646d696e206164647265737360581b60448201526064016101b6565b6001600160a01b0381165f81815260208190526040808220805460ff19166001179055517f44d6d25963f097ad14f29f06854a01f575648a1ef82f30e562ccd3889717e3399190a250565b6002546001600160a01b0316331461041f5760405162461bcd60e51b81526004016101b690610643565b5f5b8181101561048d575f60015f85858581811061043f5761043f61066c565b905060200201602081019061045491906105b4565b6001600160a01b0316815260208101919091526040015f20805460ff19169115159190911790558061048581610680565b915050610421565b507fe4466757795e87a59b6f20326ae36b6b13818bcb298f24dbc7e87a5ca671a9c982826040516104bf9291906106a4565b60405180910390a15050565b6002546001600160a01b031633146104f55760405162461bcd60e51b81526004016101b690610643565b6001600160a01b03811661054b5760405162461bcd60e51b815260206004820152601860248201527f496e76616c6964204149206167656e742061646472657373000000000000000060448201526064016101b6565b6001600160a01b0381165f818152600160208190526040808320805460ff1916909217909155517f6479d385bc3900b3f2e49a4d5fce47d7fd80ab1ccd1a19c4c96205e94ff99c5d9190a250565b80356001600160a01b03811681146105af575f80fd5b919050565b5f602082840312156105c4575f80fd5b6105cd82610599565b9392505050565b5f80602083850312156105e5575f80fd5b823567ffffffffffffffff808211156105fc575f80fd5b818501915085601f83011261060f575f80fd5b81358181111561061d575f80fd5b8660208260051b8501011115610631575f80fd5b60209290920196919550909350505050565b6020808252600f908201526e2737ba1039bab832b91030b236b4b760891b604082015260600190565b634e487b7160e01b5f52603260045260245ffd5b5f6001820161069d57634e487b7160e01b5f52601160045260245ffd5b5060010190565b60208082528181018390525f908460408401835b868110156106e4576001600160a01b036106d184610599565b16825291830191908301906001016106b8565b50969550505050505056fea2646970667358221220ff38658929e8876a1786a90439800a86f730f0c63309d2a419619ab95a9280dd64736f6c63430008140033",
  "linkReferences": {},
  "deployedLinkReferences": {},
  "immutableReferences": {},
  "inputSourceName": "project/contracts/AdminManager.sol",
  "buildInfoId": "solc-0_8_20-055c328bf00929f58f74fd9463e38c1974461259"
}