{
  "_format": "hh3-artifact-1",
  "contractName": "AdminManager",
  "sourceName": "contracts/AdminManager.sol",
  "abi": [
    {
      "inputs": [],
      "stateMutability": "nonpayable",
      "type": "constructor"
    },
    {
      "inputs": [
        {
          "internalType": "address",
          "name": "_admin",
          "type": "address"
        }
      ],
      "name": "addAdmin",
      "outputs": [],
      "stateMutability": "nonpayable",
      "type": "function"
    },
    {
      "inputs": [
        {
          "internalType": "address",
          "name": "",
          "type": "address"
        }
      ],
      "name": "isAdmin",
      "outputs": [
        {
          "internalType": "bool",
          "name": "",
          "type": "bool"
        }
      ],
      "stateMutability": "view",
      "type": "function"
    },
    {
      "inputs": [
        {
          "internalType": "address",
          "name": "_admin",
          "type": "address"
        }
      ],
      "name": "removeAdmin",
      "outputs": [],
      "stateMutability": "nonpayable",
      "type": "function"
    },
    {
      "inputs": [],
      "name": "superAdmin",
      "outputs": [
        {
          "internalType": "address",
          "name": "",
          "type": "address"
        }
      ],
      "stateMutability": "view",
      "type": "function"
    }
  ],
  "bytecode": "0x608060405234801561000f575f80fd5b50600180546001600160a01b0319163390811782555f908152602081905260409020805460ff1916909117905561021b806100495f395ff3fe608060405234801561000f575f80fd5b506004361061004a575f3560e01c80631785f53c1461004e57806324d7806c1461006357806329575f6a1461009a57806370480275146100c5575b5f80fd5b61006161005c3660046101b8565b6100d8565b005b6100856100713660046101b8565b5f6020819052908152604090205460ff1681565b60405190151581526020015b60405180910390f35b6001546100ad906001600160a01b031681565b6040516001600160a01b039091168152602001610091565b6100616100d33660046101b8565b610149565b6001546001600160a01b031633146101295760405162461bcd60e51b815260206004820152600f60248201526e2737ba1039bab832b91030b236b4b760891b60448201526064015b60405180910390fd5b6001600160a01b03165f908152602081905260409020805460ff19169055565b6001546001600160a01b031633146101955760405162461bcd60e51b815260206004820152600f60248201526e2737ba1039bab832b91030b236b4b760891b6044820152606401610120565b6001600160a01b03165f908152602081905260409020805460ff19166001179055565b5f602082840312156101c8575f80fd5b81356001600160a01b03811681146101de575f80fd5b939250505056fea26469706673582212203bfc36779676a0ee9c0b6203a9f5ca6f23014a01e3d0796f93544c40613a673e64736f6c63430008140033",
  "linkReferences": {},
  "deployedLinkReferences": {},
  "immutableReferences": {},
  "inputSourceName": "project/contracts/AdminManager.sol",
  "buildInfoId": "solc-0_8_20-6c5bb4731f74581755ba35415c09eb0d4ba5a664"
}