{
  "_format": "hh3-artifact-1",
  "contractName": "CastToken",
  "sourceName": "contracts/CastToken.sol",
  "abi": [
    {
      "inputs": [],
      "stateMutability": "nonpayable",
      "type": "constructor"
    },
    {
      "inputs": [
        {
          "internalType": "address",
          "name": "spender",
          "type": "address"
        },
        {
          "internalType": "uint256",
          "name": "allowance",
          "type": "uint256"
        },
        {
          "internalType": "uint256",
          "name": "needed",
          "type": "uint256"
        }
      ],
      "name": "ERC20InsufficientAllowance",
      "type": "error"
    },
    {
      "inputs": [
        {
          "internalType": "address",
          "name": "sender",
          "type": "address"
        },
        {
          "internalType": "uint256",
          "name": "balance",
          "type": "uint256"
        },
        {
          "internalType": "uint256",
          "name": "needed",
          "type": "uint256"
        }
      ],
      "name": "ERC20InsufficientBalance",
      "type": "error"
    },
    {
      "inputs": [
        {
          "internalType": "address",
          "name": "approver",
          "type": "address"
        }
      ],
      "name": "ERC20InvalidApprover",
      "type": "error"
    },
    {
      "inputs": [
        {
          "internalType": "address",
          "name": "receiver",
          "type": "address"
        }
      ],
      "name": "ERC20InvalidReceiver",
      "type": "error"
    },
    {
      "inputs": [
        {
          "internalType": "address",
          "name": "sender",
          "type": "address"
        }
      ],
      "name": "ERC20InvalidSender",
      "type": "error"
    },
    {
      "inputs": [
        {
          "internalType": "address",
          "name": "spender",
          "type": "address"
        }
      ],
      "name": "ERC20InvalidSpender",
      "type": "error"
    },
    {
      "inputs": [
        {
          "internalType": "address",
          "name": "owner",
          "type": "address"
        }
      ],
      "name": "OwnableInvalidOwner",
      "type": "error"
    },
    {
      "inputs": [
        {
          "internalType": "address",
          "name": "account",
          "type": "address"
        }
      ],
      "name": "OwnableUnauthorizedAccount",
      "type": "error"
    },
    {
      "anonymous": false,
      "inputs": [
        {
          "indexed": true,
          "internalType": "address",
          "name": "owner",
          "type": "address"
        },
        {
          "indexed": true,
          "internalType": "address",
          "name": "spender",
          "type": "address"
        },
        {
          "indexed": false,
          "internalType": "uint256",
          "name": "value",
          "type": "uint256"
        }
      ],
      "name": "Approval",
      "type": "event"
    },
    {
      "anonymous": false,
      "inputs": [
        {
          "indexed": true,
          "internalType": "address",
          "name": "minter",
          "type": "address"
        }
      ],
      "name": "MinterAuthorized",
      "type": "event"
    },
    {
      "anonymous": false,
      "inputs": [
        {
          "indexed": true,
          "internalType": "address",
          "name": "minter",
          "type": "address"
        }
      ],
      "name": "MinterRevoked",
      "type": "event"
    },
    {
      "anonymous": false,
      "inputs": [
        {
          "indexed": true,
          "internalType": "address",
          "name": "previousOwner",
          "type": "address"
        },
        {
          "indexed": true,
          "internalType": "address",
          "name": "newOwner",
          "type": "address"
        }
      ],
      "name": "OwnershipTransferred",
      "type": "event"
    },
    {
      "anonymous": false,
      "inputs": [
        {
          "indexed": true,
          "internalType": "address",
          "name": "from",
          "type": "address"
        },
        {
          "indexed": true,
          "internalType": "address",
          "name": "to",
          "type": "address"
        },
        {
          "indexed": false,
          "internalType": "uint256",
          "name": "value",
          "type": "uint256"
        }
      ],
      "name": "Transfer",
      "type": "event"
    },
    {
      "inputs": [],
      "name": "MAX_SUPPLY",
      "outputs": [
        {
          "internalType": "uint256",
          "name": "",
          "type": "uint256"
        }
      ],
      "stateMutability": "view",
      "type": "function"
    },
    {
      "inputs": [
        {
          "internalType": "address",
          "name": "owner",
          "type": "address"
        },
        {
          "internalType": "address",
          "name": "spender",
          "type": "address"
        }
      ],
      "name": "allowance",
      "outputs": [
        {
          "internalType": "uint256",
          "name": "",
          "type": "uint256"
        }
      ],
      "stateMutability": "view",
      "type": "function"
    },
    {
      "inputs": [
        {
          "internalType": "address",
          "name": "spender",
          "type": "address"
        },
        {
          "internalType": "uint256",
          "name": "value",
          "type": "uint256"
        }
      ],
      "name": "approve",
      "outputs": [
        {
          "internalType": "bool",
          "name": "",
          "type": "bool"
        }
      ],
      "stateMutability": "nonpayable",
      "type": "function"
    },
    {
      "inputs": [
        {
          "internalType": "address",
          "name": "minter",
          "type": "address"
        }
      ],
      "name": "authorizeMinter",
      "outputs": [],
      "stateMutability": "nonpayable",
      "type": "function"
    },
    {
      "inputs": [
        {
          "internalType": "address",
          "name": "",
          "type": "address"
        }
      ],
      "name": "authorizedMinters",
      "outputs": [
        {
          "internalType": "bool",
          "name": "",
          "type": "bool"
        }
      ],
      "stateMutability": "view",
      "type": "function"
    },
    {
      "inputs": [
        {
          "internalType": "address",
          "name": "account",
          "type": "address"
        }
      ],
      "name": "balanceOf",
      "outputs": [
        {
          "internalType": "uint256",
          "name": "",
          "type": "uint256"
        }
      ],
      "stateMutability": "view",
      "type": "function"
    },
    {
      "inputs": [
        {
          "internalType": "uint256",
          "name": "amount",
          "type": "uint256"
        }
      ],
      "name": "burn",
      "outputs": [],
      "stateMutability": "nonpayable",
      "type": "function"
    },
    {
      "inputs": [],
      "name": "decimals",
      "outputs": [
        {
          "internalType": "uint8",
          "name": "",
          "type": "uint8"
        }
      ],
      "stateMutability": "view",
      "type": "function"
    },
    {
      "inputs": [
        {
          "internalType": "address",
          "name": "to",
          "type": "address"
        },
        {
          "internalType": "uint256",
          "name": "amount",
          "type": "uint256"
        }
      ],
      "name": "mint",
      "outputs": [],
      "stateMutability": "nonpayable",
      "type": "function"
    },
    {
      "inputs": [],
      "name": "name",
      "outputs": [
        {
          "internalType": "string",
          "name": "",
          "type": "string"
        }
      ],
      "stateMutability": "view",
      "type": "function"
    },
    {
      "inputs": [],
      "name": "owner",
      "outputs": [
        {
          "internalType": "address",
          "name": "",
          "type": "address"
        }
      ],
      "stateMutability": "view",
      "type": "function"
    },
    {
      "inputs": [
        {
          "internalType": "address",
          "name": "to",
          "type": "address"
        },
        {
          "internalType": "uint256",
          "name": "amount",
          "type": "uint256"
        }
      ],
      "name": "ownerMint",
      "outputs": [],
      "stateMutability": "nonpayable",
      "type": "function"
    },
    {
      "inputs": [],
      "name": "remainingSupply",
      "outputs": [
        {
          "internalType": "uint256",
          "name": "",
          "type": "uint256"
        }
      ],
      "stateMutability": "view",
      "type": "function"
    },
    {
      "inputs": [],
      "name": "renounceOwnership",
      "outputs": [],
      "stateMutability": "nonpayable",
      "type": "function"
    },
    {
      "inputs": [
        {
          "internalType": "address",
          "name": "minter",
          "type": "address"
        }
      ],
      "name": "revokeMinter",
      "outputs": [],
      "stateMutability": "nonpayable",
      "type": "function"
    },
    {
      "inputs": [],
      "name": "symbol",
      "outputs": [
        {
          "internalType": "string",
          "name": "",
          "type": "string"
        }
      ],
      "stateMutability": "view",
      "type": "function"
    },
    {
      "inputs": [],
      "name": "totalSupply",
      "outputs": [
        {
          "internalType": "uint256",
          "name": "",
          "type": "uint256"
        }
      ],
      "stateMutability": "view",
      "type": "function"
    },
    {
      "inputs": [
        {
          "internalType": "address",
          "name": "to",
          "type": "address"
        },
        {
          "internalType": "uint256",
          "name": "value",
          "type": "uint256"
        }
      ],
      "name": "transfer",
      "outputs": [
        {
          "internalType": "bool",
          "name": "",
          "type": "bool"
        }
      ],
      "stateMutability": "nonpayable",
      "type": "function"
    },
    {
      "inputs": [
        {
          "internalType": "address",
          "name": "from",
          "type": "address"
        },
        {
          "internalType": "address",
          "name": "to",
          "type": "address"
        },
        {
          "internalType": "uint256",
          "name": "value",
          "type": "uint256"
        }
      ],
      "name": "transferFrom",
      "outputs": [
        {
          "internalType": "bool",
          "name": "",
          "type": "bool"
        }
      ],
      "stateMutability": "nonpayable",
      "type": "function"
    },
    {
      "inputs": [
        {
          "internalType": "address",
          "name": "newOwner",
          "type": "address"
        }
      ],
      "name": "transferOwnership",
      "outputs": [],
      "stateMutability": "nonpayable",
      "type": "function"
    }
  ],
  "bytecode": "0x608060405234801562000010575f80fd5b50336040518060400160405280600a81526020016921b0b9ba102a37b5b2b760b11b8152506040518060400160405280600481526020016310d054d560e21b815250816003908162000063919062000329565b50600462000072828262000329565b5050506001600160a01b038116620000a457604051631e4fbdf760e01b81525f60048201526024015b60405180910390fd5b620000af81620000cd565b50620000c7336a084595161401484a0000006200011e565b62000417565b600580546001600160a01b038381166001600160a01b0319831681179093556040519116919082907f8be0079c531659141344cd1fd0a4f28419497f9722a3daafe3b4186f6b6457e0905f90a35050565b6001600160a01b038216620001495760405163ec442f0560e01b81525f60048201526024016200009b565b620001565f83836200015a565b5050565b6001600160a01b03831662000188578060025f8282546200017c9190620003f1565b90915550620001fa9050565b6001600160a01b0383165f9081526020819052604090205481811015620001dc5760405163391434e360e21b81526001600160a01b038516600482015260248101829052604481018390526064016200009b565b6001600160a01b0384165f9081526020819052604090209082900390555b6001600160a01b038216620002185760028054829003905562000236565b6001600160a01b0382165f9081526020819052604090208054820190555b816001600160a01b0316836001600160a01b03167fddf252ad1be2c89b69c2b068fc378daa952ba7f163c4a11628f55a4df523b3ef836040516200027c91815260200190565b60405180910390a3505050565b634e487b7160e01b5f52604160045260245ffd5b600181811c90821680620002b257607f821691505b602082108103620002d157634e487b7160e01b5f52602260045260245ffd5b50919050565b601f82111562000324575f81815260208120601f850160051c81016020861015620002ff5750805b601f850160051c820191505b8181101562000320578281556001016200030b565b5050505b505050565b81516001600160401b0381111562000345576200034562000289565b6200035d816200035684546200029d565b84620002d7565b602080601f83116001811462000393575f84156200037b5750858301515b5f19600386901b1c1916600185901b17855562000320565b5f85815260208120601f198616915b82811015620003c357888601518255948401946001909101908401620003a2565b5085821015620003e157878501515f19600388901b60f8161c191681555b5050505050600190811b01905550565b808201808211156200041157634e487b7160e01b5f52601160045260245ffd5b92915050565b610b6b80620004255f395ff3fe608060405234801561000f575f80fd5b5060043610610127575f3560e01c806370a08231116100a9578063aa2fe91b1161006e578063aa2fe91b14610266578063cfbd488514610288578063da0239a61461029b578063dd62ed3e146102a3578063f2fde38b146102db575f80fd5b806370a0823114610200578063715018a6146102285780638da5cb5b1461023057806395d89b411461024b578063a9059cbb14610253575f80fd5b8063313ce567116100ef578063313ce567146101a657806332cb6b0c146101b557806340c10f19146101c757806342966c68146101da578063484b973c146101ed575f80fd5b806306fdde031461012b578063095ea7b3146101495780630c9848321461016c57806318160ddd1461018157806323b872dd14610193575b5f80fd5b6101336102ee565b6040516101409190610994565b60405180910390f35b61015c6101573660046109fa565b61037e565b6040519015158152602001610140565b61017f61017a366004610a22565b610397565b005b6002545b604051908152602001610140565b61015c6101a1366004610a42565b6103ea565b60405160128152602001610140565b6101856a52b7d2dcc80cd2e400000081565b61017f6101d53660046109fa565b61040d565b61017f6101e8366004610a7b565b6104d9565b61017f6101fb3660046109fa565b6104e6565b61018561020e366004610a22565b6001600160a01b03165f9081526020819052604090205490565b61017f6104ee565b6005546040516001600160a01b039091168152602001610140565b610133610501565b61015c6102613660046109fa565b610510565b61015c610274366004610a22565b60066020525f908152604090205460ff1681565b61017f610296366004610a22565b61051d565b61018561056d565b6101856102b1366004610a92565b6001600160a01b039182165f90815260016020908152604080832093909416825291909152205490565b61017f6102e9366004610a22565b610591565b6060600380546102fd90610ac3565b80601f016020809104026020016040519081016040528092919081815260200182805461032990610ac3565b80156103745780601f1061034b57610100808354040283529160200191610374565b820191905f5260205f20905b81548152906001019060200180831161035757829003601f168201915b5050505050905090565b5f3361038b8185856105cb565b60019150505b92915050565b61039f6105dd565b6001600160a01b0381165f81815260066020526040808220805460ff19166001179055517f83b05b6735acd4b85e3bded8e72c851d1a87718f81e3c8e6f0c9d9a2baa88e469190a250565b5f336103f785828561060a565b610402858585610686565b506001949350505050565b335f9081526006602052604090205460ff166104685760405162461bcd60e51b81526020600482015260156024820152742737ba1030baba3437b934bd32b21036b4b73a32b960591b60448201526064015b60405180910390fd5b6a52b7d2dcc80cd2e40000008161047e60025490565b6104889190610b0f565b11156104cb5760405162461bcd60e51b815260206004820152601260248201527145786365656473206d617820737570706c7960701b604482015260640161045f565b6104d582826106e3565b5050565b6104e33382610717565b50565b6104686105dd565b6104f66105dd565b6104ff5f61074b565b565b6060600480546102fd90610ac3565b5f3361038b818585610686565b6105256105dd565b6001600160a01b0381165f81815260066020526040808220805460ff19169055517f44f4322f8daa225d5f4877ad0f7d3dfba248a774396f3ca99405ed40a044fe819190a250565b5f61057760025490565b61058c906a52b7d2dcc80cd2e4000000610b22565b905090565b6105996105dd565b6001600160a01b0381166105c257604051631e4fbdf760e01b81525f600482015260240161045f565b6104e38161074b565b6105d8838383600161079c565b505050565b6005546001600160a01b031633146104ff5760405163118cdaa760e01b815233600482015260240161045f565b6001600160a01b038381165f908152600160209081526040808320938616835292905220545f19811015610680578181101561067257604051637dc7a0d960e11b81526001600160a01b0384166004820152602481018290526044810183905260640161045f565b61068084848484035f61079c565b50505050565b6001600160a01b0383166106af57604051634b637e8f60e11b81525f600482015260240161045f565b6001600160a01b0382166106d85760405163ec442f0560e01b81525f600482015260240161045f565b6105d883838361086e565b6001600160a01b03821661070c5760405163ec442f0560e01b81525f600482015260240161045f565b6104d55f838361086e565b6001600160a01b03821661074057604051634b637e8f60e11b81525f600482015260240161045f565b6104d5825f8361086e565b600580546001600160a01b038381166001600160a01b0319831681179093556040519116919082907f8be0079c531659141344cd1fd0a4f28419497f9722a3daafe3b4186f6b6457e0905f90a35050565b6001600160a01b0384166107c55760405163e602df0560e01b81525f600482015260240161045f565b6001600160a01b0383166107ee57604051634a1406b160e11b81525f600482015260240161045f565b6001600160a01b038085165f908152600160209081526040808320938716835292905220829055801561068057826001600160a01b0316846001600160a01b03167f8c5be1e5ebec7d5bd14f71427d1e84f3dd0314c0f7b2291e5b200ac8c7c3b9258460405161086091815260200190565b60405180910390a350505050565b6001600160a01b038316610898578060025f82825461088d9190610b0f565b909155506109089050565b6001600160a01b0383165f90815260208190526040902054818110156108ea5760405163391434e360e21b81526001600160a01b0385166004820152602481018290526044810183905260640161045f565b6001600160a01b0384165f9081526020819052604090209082900390555b6001600160a01b03821661092457600280548290039055610942565b6001600160a01b0382165f9081526020819052604090208054820190555b816001600160a01b0316836001600160a01b03167fddf252ad1be2c89b69c2b068fc378daa952ba7f163c4a11628f55a4df523b3ef8360405161098791815260200190565b60405180910390a3505050565b5f6020808352835180828501525f5b818110156109bf578581018301518582016040015282016109a3565b505f604082860101526040601f19601f8301168501019250505092915050565b80356001600160a01b03811681146109f5575f80fd5b919050565b5f8060408385031215610a0b575f80fd5b610a14836109df565b946020939093013593505050565b5f60208284031215610a32575f80fd5b610a3b826109df565b9392505050565b5f805f60608486031215610a54575f80fd5b610a5d846109df565b9250610a6b602085016109df565b9150604084013590509250925092565b5f60208284031215610a8b575f80fd5b5035919050565b5f8060408385031215610aa3575f80fd5b610aac836109df565b9150610aba602084016109df565b90509250929050565b600181811c90821680610ad757607f821691505b602082108103610af557634e487b7160e01b5f52602260045260245ffd5b50919050565b634e487b7160e01b5f52601160045260245ffd5b8082018082111561039157610391610afb565b8181038181111561039157610391610afb56fea26469706673582212200b86d03ea158d1fcbd227af48265d7510deac7a6e909e7c8036282a2ecca858f64736f6c63430008140033",
  "linkReferences": {},
  "deployedLinkReferences": {},
  "immutableReferences": {},
  "inputSourceName": "project/contracts/CastToken.sol",
  "buildInfoId": "solc-0_8_20-6c5bb4731f74581755ba35415c09eb0d4ba5a664"
}