{
  "_format": "hh3-artifact-1",
  "contractName": "PredictionMarket",
  "sourceName": "contracts/PredictionMarket.sol",
  "abi": [
    {
      "inputs": [
        {
          "internalType": "bytes32",
          "name": "_id",
          "type": "bytes32"
        },
        {
          "internalType": "string",
          "name": "_question",
          "type": "string"
        },
        {
          "internalType": "address",
          "name": "_creator",
          "type": "address"
        },
        {
          "internalType": "uint256",
          "name": "_endTime",
          "type": "uint256"
        },
        {
          "internalType": "address",
          "name": "_collateral",
          "type": "address"
        },
        {
          "internalType": "address",
          "name": "_adminManager",
          "type": "address"
        },
        {
          "internalType": "address",
          "name": "_treasury",
          "type": "address"
        },
        {
          "internalType": "address",
          "name": "_betNFT",
          "type": "address"
        },
        {
          "internalType": "uint256",
          "name": "_protocolFeeRate",
          "type": "uint256"
        }
      ],
      "stateMutability": "nonpayable",
      "type": "constructor"
    },
    {
      "anonymous": false,
      "inputs": [
        {
          "indexed": false,
          "internalType": "enum PredictionMarket.Outcome",
          "name": "outcome",
          "type": "uint8"
        },
        {
          "indexed": false,
          "internalType": "uint256",
          "name": "confidenceScore",
          "type": "uint256"
        },
        {
          "indexed": false,
          "internalType": "uint256",
          "name": "timestamp",
          "type": "uint256"
        }
      ],
      "name": "FinalResolution",
      "type": "event"
    },
    {
      "anonymous": false,
      "inputs": [
        {
          "indexed": false,
          "internalType": "enum PredictionMarket.Outcome",
          "name": "outcome",
          "type": "uint8"
        },
        {
          "indexed": false,
          "internalType": "uint256",
          "name": "timestamp",
          "type": "uint256"
        }
      ],
      "name": "PreliminaryResolution",
      "type": "event"
    },
    {
      "anonymous": false,
      "inputs": [
        {
          "indexed": false,
          "internalType": "uint256",
          "name": "oldRate",
          "type": "uint256"
        },
        {
          "indexed": false,
          "internalType": "uint256",
          "name": "newRate",
          "type": "uint256"
        },
        {
          "indexed": false,
          "internalType": "address",
          "name": "changedBy",
          "type": "address"
        }
      ],
      "name": "ProtocolFeeRateChanged",
      "type": "event"
    },
    {
      "inputs": [],
      "name": "adminManager",
      "outputs": [
        {
          "internalType": "contract AdminManager",
          "name": "",
          "type": "address"
        }
      ],
      "stateMutability": "view",
      "type": "function"
    },
    {
      "inputs": [],
      "name": "approveMarket",
      "outputs": [],
      "stateMutability": "nonpayable",
      "type": "function"
    },
    {
      "inputs": [],
      "name": "betNFT",
      "outputs": [
        {
          "internalType": "contract BetNFT",
          "name": "",
          "type": "address"
        }
      ],
      "stateMutability": "view",
      "type": "function"
    },
    {
      "inputs": [
        {
          "internalType": "uint256",
          "name": "shares",
          "type": "uint256"
        }
      ],
      "name": "buyNo",
      "outputs": [],
      "stateMutability": "nonpayable",
      "type": "function"
    },
    {
      "inputs": [
        {
          "internalType": "uint256",
          "name": "shares",
          "type": "uint256"
        }
      ],
      "name": "buyYes",
      "outputs": [],
      "stateMutability": "nonpayable",
      "type": "function"
    },
    {
      "inputs": [],
      "name": "cancelMarket",
      "outputs": [],
      "stateMutability": "nonpayable",
      "type": "function"
    },
    {
      "inputs": [],
      "name": "collateral",
      "outputs": [
        {
          "internalType": "contract IERC20",
          "name": "",
          "type": "address"
        }
      ],
      "stateMutability": "view",
      "type": "function"
    },
    {
      "inputs": [],
      "name": "confidenceScore",
      "outputs": [
        {
          "internalType": "uint256",
          "name": "",
          "type": "uint256"
        }
      ],
      "stateMutability": "view",
      "type": "function"
    },
    {
      "inputs": [],
      "name": "factory",
      "outputs": [
        {
          "internalType": "contract IPredictionMarketFactory",
          "name": "",
          "type": "address"
        }
      ],
      "stateMutability": "view",
      "type": "function"
    },
    {
      "inputs": [
        {
          "internalType": "enum PredictionMarket.Outcome",
          "name": "outcome",
          "type": "uint8"
        },
        {
          "internalType": "uint256",
          "name": "_confidenceScore",
          "type": "uint256"
        }
      ],
      "name": "finalResolve",
      "outputs": [],
      "stateMutability": "nonpayable",
      "type": "function"
    },
    {
      "inputs": [],
      "name": "getConfidenceScore",
      "outputs": [
        {
          "internalType": "uint256",
          "name": "",
          "type": "uint256"
        }
      ],
      "stateMutability": "view",
      "type": "function"
    },
    {
      "inputs": [],
      "name": "getCurrentPrice",
      "outputs": [
        {
          "internalType": "uint256",
          "name": "priceYes",
          "type": "uint256"
        },
        {
          "internalType": "uint256",
          "name": "priceNo",
          "type": "uint256"
        }
      ],
      "stateMutability": "view",
      "type": "function"
    },
    {
      "inputs": [],
      "name": "getMarketInfo",
      "outputs": [
        {
          "components": [
            {
              "internalType": "bytes32",
              "name": "id",
              "type": "bytes32"
            },
            {
              "internalType": "string",
              "name": "question",
              "type": "string"
            },
            {
              "internalType": "address",
              "name": "creator",
              "type": "address"
            },
            {
              "internalType": "uint256",
              "name": "endTime",
              "type": "uint256"
            },
            {
              "internalType": "enum PredictionMarket.MarketStatus",
              "name": "status",
              "type": "uint8"
            }
          ],
          "internalType": "struct PredictionMarket.MarketInfo",
          "name": "",
          "type": "tuple"
        }
      ],
      "stateMutability": "view",
      "type": "function"
    },
    {
      "inputs": [],
      "name": "getPreliminaryOutcome",
      "outputs": [
        {
          "internalType": "enum PredictionMarket.Outcome",
          "name": "",
          "type": "uint8"
        }
      ],
      "stateMutability": "view",
      "type": "function"
    },
    {
      "inputs": [
        {
          "internalType": "uint256",
          "name": "sharesToBuy",
          "type": "uint256"
        }
      ],
      "name": "getPriceNo",
      "outputs": [
        {
          "internalType": "uint256",
          "name": "",
          "type": "uint256"
        }
      ],
      "stateMutability": "view",
      "type": "function"
    },
    {
      "inputs": [
        {
          "internalType": "uint256",
          "name": "sharesToBuy",
          "type": "uint256"
        }
      ],
      "name": "getPriceYes",
      "outputs": [
        {
          "internalType": "uint256",
          "name": "",
          "type": "uint256"
        }
      ],
      "stateMutability": "view",
      "type": "function"
    },
    {
      "inputs": [],
      "name": "getProbabilities",
      "outputs": [
        {
          "internalType": "uint256",
          "name": "probYes",
          "type": "uint256"
        },
        {
          "internalType": "uint256",
          "name": "probNo",
          "type": "uint256"
        }
      ],
      "stateMutability": "view",
      "type": "function"
    },
    {
      "inputs": [],
      "name": "getProtocolFeeRate",
      "outputs": [
        {
          "internalType": "uint256",
          "name": "",
          "type": "uint256"
        }
      ],
      "stateMutability": "view",
      "type": "function"
    },
    {
      "inputs": [],
      "name": "isPendingResolution",
      "outputs": [
        {
          "internalType": "bool",
          "name": "",
          "type": "bool"
        }
      ],
      "stateMutability": "view",
      "type": "function"
    },
    {
      "inputs": [],
      "name": "marketInfo",
      "outputs": [
        {
          "internalType": "bytes32",
          "name": "id",
          "type": "bytes32"
        },
        {
          "internalType": "string",
          "name": "question",
          "type": "string"
        },
        {
          "internalType": "address",
          "name": "creator",
          "type": "address"
        },
        {
          "internalType": "uint256",
          "name": "endTime",
          "type": "uint256"
        },
        {
          "internalType": "enum PredictionMarket.MarketStatus",
          "name": "status",
          "type": "uint8"
        }
      ],
      "stateMutability": "view",
      "type": "function"
    },
    {
      "inputs": [
        {
          "internalType": "bool",
          "name": "isYes",
          "type": "bool"
        }
      ],
      "name": "mintNFTForPosition",
      "outputs": [
        {
          "internalType": "uint256",
          "name": "",
          "type": "uint256"
        }
      ],
      "stateMutability": "nonpayable",
      "type": "function"
    },
    {
      "inputs": [
        {
          "internalType": "address",
          "name": "",
          "type": "address"
        }
      ],
      "name": "noBalance",
      "outputs": [
        {
          "internalType": "uint256",
          "name": "",
          "type": "uint256"
        }
      ],
      "stateMutability": "view",
      "type": "function"
    },
    {
      "inputs": [],
      "name": "noShares",
      "outputs": [
        {
          "internalType": "uint256",
          "name": "",
          "type": "uint256"
        }
      ],
      "stateMutability": "view",
      "type": "function"
    },
    {
      "inputs": [],
      "name": "preliminaryOutcome",
      "outputs": [
        {
          "internalType": "enum PredictionMarket.Outcome",
          "name": "",
          "type": "uint8"
        }
      ],
      "stateMutability": "view",
      "type": "function"
    },
    {
      "inputs": [
        {
          "internalType": "enum PredictionMarket.Outcome",
          "name": "outcome",
          "type": "uint8"
        }
      ],
      "name": "preliminaryResolve",
      "outputs": [],
      "stateMutability": "nonpayable",
      "type": "function"
    },
    {
      "inputs": [],
      "name": "preliminaryResolveTime",
      "outputs": [
        {
          "internalType": "uint256",
          "name": "",
          "type": "uint256"
        }
      ],
      "stateMutability": "view",
      "type": "function"
    },
    {
      "inputs": [],
      "name": "protocolFeeRate",
      "outputs": [
        {
          "internalType": "uint256",
          "name": "",
          "type": "uint256"
        }
      ],
      "stateMutability": "view",
      "type": "function"
    },
    {
      "inputs": [],
      "name": "redeem",
      "outputs": [],
      "stateMutability": "nonpayable",
      "type": "function"
    },
    {
      "inputs": [],
      "name": "reserve",
      "outputs": [
        {
          "internalType": "uint256",
          "name": "",
          "type": "uint256"
        }
      ],
      "stateMutability": "view",
      "type": "function"
    },
    {
      "inputs": [
        {
          "internalType": "enum PredictionMarket.Outcome",
          "name": "outcome",
          "type": "uint8"
        }
      ],
      "name": "resolveMarket",
      "outputs": [],
      "stateMutability": "nonpayable",
      "type": "function"
    },
    {
      "inputs": [],
      "name": "resolvedOutcome",
      "outputs": [
        {
          "internalType": "enum PredictionMarket.Outcome",
          "name": "",
          "type": "uint8"
        }
      ],
      "stateMutability": "view",
      "type": "function"
    },
    {
      "inputs": [
        {
          "internalType": "address",
          "name": "_newBetNFT",
          "type": "address"
        }
      ],
      "name": "setBetNFT",
      "outputs": [],
      "stateMutability": "nonpayable",
      "type": "function"
    },
    {
      "inputs": [
        {
          "internalType": "uint256",
          "name": "_newFeeRate",
          "type": "uint256"
        }
      ],
      "name": "setProtocolFeeRate",
      "outputs": [],
      "stateMutability": "nonpayable",
      "type": "function"
    },
    {
      "inputs": [
        {
          "internalType": "address",
          "name": "from",
          "type": "address"
        },
        {
          "internalType": "address",
          "name": "to",
          "type": "address"
        },
        {
          "internalType": "uint256",
          "name": "shares",
          "type": "uint256"
        },
        {
          "internalType": "bool",
          "name": "isYes",
          "type": "bool"
        }
      ],
      "name": "transferShares",
      "outputs": [],
      "stateMutability": "nonpayable",
      "type": "function"
    },
    {
      "inputs": [],
      "name": "treasury",
      "outputs": [
        {
          "internalType": "contract Treasury",
          "name": "",
          "type": "address"
        }
      ],
      "stateMutability": "view",
      "type": "function"
    },
    {
      "inputs": [
        {
          "internalType": "address",
          "name": "",
          "type": "address"
        }
      ],
      "name": "yesBalance",
      "outputs": [
        {
          "internalType": "uint256",
          "name": "",
          "type": "uint256"
        }
      ],
      "stateMutability": "view",
      "type": "function"
    },
    {
      "inputs": [],
      "name": "yesShares",
      "outputs": [
        {
          "internalType": "uint256",
          "name": "",
          "type": "uint256"
        }
      ],
      "stateMutability": "view",
      "type": "function"
    }
  ],
  "bytecode": "0x608060405260c8600d5534801562000015575f80fd5b5060405162002626380380620026268339810160408190526200003891620001ef565b6040518060a001604052808a8152602001898152602001886001600160a01b031681526020018781526020015f600481111562000079576200007962000338565b905280515f9081556020820151600190620000959082620003d8565b5060408201516002820180546001600160a01b0319166001600160a01b0390921691909117905560608201516003820155608082015160048083018054909160ff19909116906001908490811115620000f257620000f262000338565b021790555050600580546001600160a01b038089166001600160a01b0319928316179092556006805488841690831617905560078054878416908316179055600880548216331790556009805492861692909116919091179055506103e8811115620001985760405162461bcd60e51b815260206004820152601160248201527008ccaca40e4c2e8ca40e8dede40d0d2ced607b1b604482015260640160405180910390fd5b600d555050670de0b6b3a7640000600a819055600b5550505f600c5550620004a092505050565b634e487b7160e01b5f52604160045260245ffd5b80516001600160a01b0381168114620001ea575f80fd5b919050565b5f805f805f805f805f6101208a8c03121562000209575f80fd5b895160208b01519099506001600160401b038082111562000228575f80fd5b818c0191508c601f8301126200023c575f80fd5b815181811115620002515762000251620001bf565b604051601f8201601f19908116603f011681019083821181831017156200027c576200027c620001bf565b816040528281528f602084870101111562000295575f80fd5b5f93505b82841015620002bc57602084860101516020858301015260208401935062000299565b5f60208483010152809c505050505050620002da60408b01620001d3565b965060608a01519550620002f160808b01620001d3565b94506200030160a08b01620001d3565b93506200031160c08b01620001d3565b92506200032160e08b01620001d3565b91506101008a015190509295985092959850929598565b634e487b7160e01b5f52602160045260245ffd5b600181811c908216806200036157607f821691505b6020821081036200038057634e487b7160e01b5f52602260045260245ffd5b50919050565b601f821115620003d3575f81815260208120601f850160051c81016020861015620003ae5750805b601f850160051c820191505b81811015620003cf57828155600101620003ba565b5050505b505050565b81516001600160401b03811115620003f457620003f4620001bf565b6200040c816200040584546200034c565b8462000386565b602080601f83116001811462000442575f84156200042a5750858301515b5f19600386901b1c1916600185901b178555620003cf565b5f85815260208120601f198616915b82811015620004725788860151825594840194600190910190840162000451565b50858210156200049057878501515f19600388901b60f8161c191681555b5050505050600190811b01905550565b61217880620004ae5f395ff3fe608060405234801561000f575f80fd5b506004361061021e575f3560e01c80636b6d8dcd1161012a578063cd3293de116100b4578063e47218b611610079578063e47218b61461047a578063eb91d37e1461048c578063f21ffa6b14610494578063f488c999146104a7578063f7fab94f146104ba575f80fd5b8063cd3293de14610425578063d46a77211461042e578063d8dfeb4514610441578063de62967d14610454578063e030663814610467575f80fd5b8063a210b6a4116100fa578063a210b6a4146103dc578063b13aa2d6146103ef578063be040fb014610402578063c2560f2a1461040a578063c45a015514610412575f80fd5b80636b6d8dcd146103af5780636bfefd6b146103b85780638154b6c6146103c057806390b1bfc1146103c9575f80fd5b806327c7ff61116101ab5780635b8839171161017b5780635b8839171461033757806361d027b3146103565780636920f52b1461038157806369ff32c3146103945780636ae5a0321461039c575f80fd5b806327c7ff61146102ff5780634daaac3d1461030857806358c36e5c1461031b57806358f858801461032e575f80fd5b80630ffa9bed116101f15780630ffa9bed1461028f57806316953f02146102bc5780631c371e2b146102c55780632284a82f146102d257806323341a05146102ea575f80fd5b8063031bee0014610222578063061dd98d14610244578063062f7b8c146102595780630e71d8d714610276575b5f80fd5b61022a6104c2565b60405161023b959493929190611dba565b60405180910390f35b610257610252366004611e01565b610577565b005b61026161072a565b6040805192835260208301919091520161023b565b601054610100900460ff165b60405161023b9190611e28565b6102ae61029d366004611e53565b600f6020525f908152604090205481565b60405190815260200161023b565b6102ae600a5481565b6010546102829060ff1681565b6102da61076a565b604051901515815260200161023b565b6102f261078a565b60405161023b9190611e75565b6102ae600b5481565b610257610316366004611e53565b6108b0565b610257610329366004611e01565b610958565b6102ae600d5481565b6102ae610345366004611e53565b600e6020525f908152604090205481565b600754610369906001600160a01b031681565b6040516001600160a01b03909116815260200161023b565b600954610369906001600160a01b031681565b6011546102ae565b6102ae6103aa366004611edf565b610aba565b6102ae60115481565b610257610c1a565b6102ae60125481565b6102576103d7366004611efa565b610d15565b600654610369906001600160a01b031681565b6102576103fd366004611e01565b610f36565b61025761108d565b6102576112d4565b600854610369906001600160a01b031681565b6102ae600c5481565b6102ae61043c366004611e01565b6113cd565b600554610369906001600160a01b031681565b6102ae610462366004611e01565b61148f565b610257610475366004611f5d565b6114f2565b60105461028290610100900460ff1681565b610261611855565b6102576104a2366004611f85565b6118b8565b6102576104b5366004611f85565b611bb8565b600d546102ae565b5f8054600180549192916104d590611f9e565b80601f016020809104026020016040519081016040528092919081815260200182805461050190611f9e565b801561054c5780601f106105235761010080835404028352916020019161054c565b820191905f5260205f20905b81548152906001019060200180831161052f57829003601f168201915b505050506002830154600384015460049094015492936001600160a01b039091169290915060ff1685565b60016004805460ff169081111561059057610590611d92565b146105b65760405162461bcd60e51b81526004016105ad90611fd6565b60405180910390fd5b60035442106105f75760405162461bcd60e51b815260206004820152600d60248201526c13585c9ad95d0818db1bdcd959609a1b60448201526064016105ad565b5f610601826113cd565b90505f81116106415760405162461bcd60e51b815260206004820152600c60248201526b125b9d985b1a590818dbdcdd60a21b60448201526064016105ad565b6005546040516323b872dd60e01b8152336004820152306024820152604481018390526001600160a01b03909116906323b872dd906064016020604051808303815f875af1158015610695573d5f803e3d5ffd5b505050506040513d601f19601f820116820180604052508101906106b99190611fff565b6106d55760405162461bcd60e51b81526004016105ad9061201a565b81600a5f8282546106e69190612057565b9250508190555080600c5f8282546106fe9190612057565b9091555050335f908152600e602052604081208054849290610721908490612057565b90915550505050565b5f805f610735611855565b509050670de0b6b3a764000061074c82606461206a565b6107569190612081565b92506107638360646120a0565b9150509091565b5f60026004805460ff169081111561078457610784611d92565b14905090565b6107b96040805160a0810182525f80825260606020830181905292820181905291810182905290608082015290565b6040805160a081019091525f80548252600180546020840191906107dc90611f9e565b80601f016020809104026020016040519081016040528092919081815260200182805461080890611f9e565b80156108535780601f1061082a57610100808354040283529160200191610853565b820191905f5260205f20905b81548152906001019060200180831161083657829003601f168201915b505050918352505060028201546001600160a01b031660208201526003820154604082015260048083015460609092019160ff169081111561089757610897611d92565b60048111156108a8576108a8611d92565b905250919050565b600654604051630935e01b60e21b81523360048201526001600160a01b03909116906324d7806c90602401602060405180830381865afa1580156108f6573d5f803e3d5ffd5b505050506040513d601f19601f8201168201806040525081019061091a9190611fff565b6109365760405162461bcd60e51b81526004016105ad906120b3565b600980546001600160a01b0319166001600160a01b0392909216919091179055565b60016004805460ff169081111561097157610971611d92565b1461098e5760405162461bcd60e51b81526004016105ad90611fd6565b60035442106109cf5760405162461bcd60e51b815260206004820152600d60248201526c13585c9ad95d0818db1bdcd959609a1b60448201526064016105ad565b5f6109d98261148f565b6005546040516323b872dd60e01b8152336004820152306024820152604481018390529192506001600160a01b0316906323b872dd906064016020604051808303815f875af1158015610a2e573d5f803e3d5ffd5b505050506040513d601f19601f82011682018060405250810190610a529190611fff565b610a6e5760405162461bcd60e51b81526004016105ad9061201a565b81600b5f828254610a7f9190612057565b9250508190555080600c5f828254610a979190612057565b9091555050335f908152600f602052604081208054849290610721908490612057565b5f60016004805460ff1690811115610ad457610ad4611d92565b14610b175760405162461bcd60e51b815260206004820152601360248201527226b0b935b2ba1036bab9ba1031329037b832b760691b60448201526064016105ad565b5f82610b3157335f908152600f6020526040902054610b41565b335f908152600e60205260409020545b90505f8111610b925760405162461bcd60e51b815260206004820152601960248201527f4e6f2073686172657320746f206d696e74204e465420666f720000000000000060448201526064016105ad565b6009546040516324d79a4360e01b81523360048201523060248201526044810183905284151560648201525f916001600160a01b0316906324d79a43906084016020604051808303815f875af1158015610bee573d5f803e3d5ffd5b505050506040513d601f19601f82011682018060405250810190610c1291906120d6565b949350505050565b600654604051630935e01b60e21b81523360048201526001600160a01b03909116906324d7806c90602401602060405180830381865afa158015610c60573d5f803e3d5ffd5b505050506040513d601f19601f82011682018060405250810190610c849190611fff565b610ca05760405162461bcd60e51b81526004016105ad906120b3565b5f6004805460ff1690811115610cb857610cb8611d92565b14610d005760405162461bcd60e51b815260206004820152601860248201527713585c9ad95d081b5d5cdd081899481cdd589b5a5d1d195960421b60448201526064016105ad565b60048054819060ff19166001825b0217905550565b6009546001600160a01b03163314610d6f5760405162461bcd60e51b815260206004820152601f60248201527f4f6e6c79204265744e46542063616e207472616e73666572207368617265730060448201526064016105ad565b60016004805460ff1690811115610d8857610d88611d92565b14610da55760405162461bcd60e51b81526004016105ad90611fd6565b8015610e70576001600160a01b0384165f908152600e6020526040902054821115610e125760405162461bcd60e51b815260206004820152601860248201527f496e73756666696369656e74205945532062616c616e6365000000000000000060448201526064016105ad565b6001600160a01b0384165f908152600e602052604081208054849290610e399084906120a0565b90915550506001600160a01b0383165f908152600e602052604081208054849290610e65908490612057565b90915550610f309050565b6001600160a01b0384165f908152600f6020526040902054821115610ed75760405162461bcd60e51b815260206004820152601760248201527f496e73756666696369656e74204e4f2062616c616e636500000000000000000060448201526064016105ad565b6001600160a01b0384165f908152600f602052604081208054849290610efe9084906120a0565b90915550506001600160a01b0383165f908152600f602052604081208054849290610f2a908490612057565b90915550505b50505050565b60065f9054906101000a90046001600160a01b03166001600160a01b03166329575f6a6040518163ffffffff1660e01b8152600401602060405180830381865afa158015610f86573d5f803e3d5ffd5b505050506040513d601f19601f82011682018060405250810190610faa91906120ed565b6001600160a01b0316336001600160a01b031614610ffc5760405162461bcd60e51b815260206004820152600f60248201526e2737ba1039bab832b91030b236b4b760891b60448201526064016105ad565b6103e88111156110425760405162461bcd60e51b815260206004820152601160248201527008ccaca40e4c2e8ca40e8dede40d0d2ced607b1b60448201526064016105ad565b600d8054908290556040805182815260208101849052338183015290517f4248da20612241eb3bd94c12b3dca31834a452e019bd91f94de1e1bec0eec7d79181900360600190a15050565b60036004805460ff16908111156110a6576110a6611d92565b146110e25760405162461bcd60e51b815260206004820152600c60248201526b139bdd081c995cdbdb1d995960a21b60448201526064016105ad565b5f80600160105460ff1660028111156110fd576110fd611d92565b03611121575050335f908152600e602052604081208054600a54929091559061115a565b600260105460ff16600281111561113a5761113a611d92565b0361115a575050335f908152600f602052604081208054600b5492909155905b5f821161119d5760405162461bcd60e51b81526020600482015260116024820152704e6f7468696e6720746f2072656465656d60781b60448201526064016105ad565b5f81116111e05760405162461bcd60e51b81526020600482015260116024820152704e6f2077696e6e696e672073686172657360781b60448201526064016105ad565b5f81600c54846111f0919061206a565b6111fa9190612081565b90505f81116112415760405162461bcd60e51b81526020600482015260136024820152724e6f207061796f757420617661696c61626c6560681b60448201526064016105ad565b60055460405163a9059cbb60e01b8152336004820152602481018390526001600160a01b039091169063a9059cbb906044016020604051808303815f875af115801561128f573d5f803e3d5ffd5b505050506040513d601f19601f820116820180604052508101906112b39190611fff565b6112cf5760405162461bcd60e51b81526004016105ad9061201a565b505050565b600654604051630935e01b60e21b81523360048201526001600160a01b03909116906324d7806c90602401602060405180830381865afa15801561131a573d5f803e3d5ffd5b505050506040513d601f19601f8201168201806040525081019061133e9190611fff565b61135a5760405162461bcd60e51b81526004016105ad906120b3565b5f6004805460ff169081111561137257611372611d92565b146113ba5760405162461bcd60e51b815260206004820152601860248201527713585c9ad95d081b5d5cdd081899481cdd589b5a5d1d195960421b60448201526064016105ad565b600480546001919060ff19168280610d0e565b5f815f036113dc57505f919050565b5f600b54600a546113ed9190612057565b90505f6113fa8483612057565b90505f82600a54670de0b6b3a7640000611414919061206a565b61141e9190612081565b90505f8286600a546114309190612057565b61144290670de0b6b3a764000061206a565b61144c9190612081565b90505f600261145b8385612057565b6114659190612081565b9050670de0b6b3a764000061147a888361206a565b6114849190612081565b979650505050505050565b5f815f0361149e57505f919050565b5f600b54600a546114af9190612057565b90505f6114bc8483612057565b90505f82600b54670de0b6b3a76400006114d6919061206a565b6114e09190612081565b90505f8286600b546114309190612057565b600654604051630935e01b60e21b81523360048201526001600160a01b03909116906324d7806c90602401602060405180830381865afa158015611538573d5f803e3d5ffd5b505050506040513d601f19601f8201168201806040525081019061155c9190611fff565b6115785760405162461bcd60e51b81526004016105ad906120b3565b60026004805460ff169081111561159157611591611d92565b146115de5760405162461bcd60e51b815260206004820152601d60248201527f4d75737420626520696e2070656e64696e67207265736f6c7574696f6e00000060448201526064016105ad565b606481111561162f5760405162461bcd60e51b815260206004820152601f60248201527f436f6e666964656e63652073636f7265206d757374206265203c3d203130300060448201526064016105ad565b6004805460ff1990811660031790915560108054849216600183600281111561165a5761165a611d92565b02179055506011819055600c54600d545f906127109061167a908461206a565b6116849190612081565b905080156117b85760055460075460405163095ea7b360e01b81526001600160a01b0391821660048201526024810184905291169063095ea7b3906044016020604051808303815f875af11580156116de573d5f803e3d5ffd5b505050506040513d601f19601f820116820180604052508101906117029190611fff565b6117405760405162461bcd60e51b815260206004820152600f60248201526e105c1c1c9bdd985b0819985a5b1959608a1b60448201526064016105ad565b600754600554604051622c4a6960e21b81526001600160a01b0391821660048201526024810184905291169062b129a4906044015f604051808303815f87803b15801561178b575f80fd5b505af115801561179d573d5f803e3d5ffd5b5050505080600c5f8282546117b291906120a0565b90915550505b60085460025460405163033d304360e51b81526001600160a01b0391821660048201529116906367a60860906024015f604051808303815f87803b1580156117fe575f80fd5b505af1158015611810573d5f803e3d5ffd5b505050507fa8ed14be3023745d71c725ff422efc433f40c534e195516b037e08b840428d8984844260405161184793929190612108565b60405180910390a150505050565b5f805f600b54600a546118689190612057565b9050805f0361188357506706f05b59d3b20000928392509050565b80600a54670de0b6b3a764000061189a919061206a565b6118a49190612081565b925061076383670de0b6b3a76400006120a0565b600654604051630935e01b60e21b81523360048201526001600160a01b03909116906324d7806c90602401602060405180830381865afa1580156118fe573d5f803e3d5ffd5b505050506040513d601f19601f820116820180604052508101906119229190611fff565b61193e5760405162461bcd60e51b81526004016105ad906120b3565b60035442101561197c5760405162461bcd60e51b8152602060048201526009602482015268546f6f206561726c7960b81b60448201526064016105ad565b60016004805460ff169081111561199557611995611d92565b146119d35760405162461bcd60e51b815260206004820152600e60248201526d496e76616c69642073746174757360901b60448201526064016105ad565b6004805460ff199081166003179091556010805483921660018360028111156119fe576119fe611d92565b0217905550600c54600d545f9061271090611a19908461206a565b611a239190612081565b90508015611b575760055460075460405163095ea7b360e01b81526001600160a01b0391821660048201526024810184905291169063095ea7b3906044016020604051808303815f875af1158015611a7d573d5f803e3d5ffd5b505050506040513d601f19601f82011682018060405250810190611aa19190611fff565b611adf5760405162461bcd60e51b815260206004820152600f60248201526e105c1c1c9bdd985b0819985a5b1959608a1b60448201526064016105ad565b600754600554604051622c4a6960e21b81526001600160a01b0391821660048201526024810184905291169062b129a4906044015f604051808303815f87803b158015611b2a575f80fd5b505af1158015611b3c573d5f803e3d5ffd5b5050505080600c5f828254611b5191906120a0565b90915550505b60085460025460405163033d304360e51b81526001600160a01b0391821660048201529116906367a60860906024015f604051808303815f87803b158015611b9d575f80fd5b505af1158015611baf573d5f803e3d5ffd5b50505050505050565b600654604051630935e01b60e21b81523360048201526001600160a01b03909116906324d7806c90602401602060405180830381865afa158015611bfe573d5f803e3d5ffd5b505050506040513d601f19601f82011682018060405250810190611c229190611fff565b611c3e5760405162461bcd60e51b81526004016105ad906120b3565b600354421015611c7c5760405162461bcd60e51b8152602060048201526009602482015268546f6f206561726c7960b81b60448201526064016105ad565b60016004805460ff1690811115611c9557611c95611d92565b14611cd35760405162461bcd60e51b815260206004820152600e60248201526d496e76616c69642073746174757360901b60448201526064016105ad565b600480546002919060ff191660018302179055506010805482919061ff001916610100836002811115611d0857611d08611d92565b02179055504260128190556040517f5302b11a955c3c6b08397d6d74bfee6754ae7e504d5c618eb07d6290e4970bcd91611d4491849190612127565b60405180910390a150565b5f81518084525f5b81811015611d7357602081850181015186830182015201611d57565b505f602082860101526020601f19601f83011685010191505092915050565b634e487b7160e01b5f52602160045260245ffd5b60058110611db657611db6611d92565b9052565b85815260a060208201525f611dd260a0830187611d4f565b6001600160a01b0386166040840152606083018590529050611df76080830184611da6565b9695505050505050565b5f60208284031215611e11575f80fd5b5035919050565b60038110611db657611db6611d92565b60208101611e368284611e18565b92915050565b6001600160a01b0381168114611e50575f80fd5b50565b5f60208284031215611e63575f80fd5b8135611e6e81611e3c565b9392505050565b60208152815160208201525f602083015160a06040840152611e9a60c0840182611d4f565b905060018060a01b036040850151166060840152606084015160808401526080840151611eca60a0850182611da6565b509392505050565b8015158114611e50575f80fd5b5f60208284031215611eef575f80fd5b8135611e6e81611ed2565b5f805f8060808587031215611f0d575f80fd5b8435611f1881611e3c565b93506020850135611f2881611e3c565b9250604085013591506060850135611f3f81611ed2565b939692955090935050565b803560038110611f58575f80fd5b919050565b5f8060408385031215611f6e575f80fd5b611f7783611f4a565b946020939093013593505050565b5f60208284031215611f95575f80fd5b611e6e82611f4a565b600181811c90821680611fb257607f821691505b602082108103611fd057634e487b7160e01b5f52602260045260245ffd5b50919050565b6020808252600f908201526e26b0b935b2ba103737ba1037b832b760891b604082015260600190565b5f6020828403121561200f575f80fd5b8151611e6e81611ed2565b6020808252600f908201526e151c985b9cd9995c8819985a5b1959608a1b604082015260600190565b634e487b7160e01b5f52601160045260245ffd5b80820180821115611e3657611e36612043565b8082028115828204841417611e3657611e36612043565b5f8261209b57634e487b7160e01b5f52601260045260245ffd5b500490565b81810381811115611e3657611e36612043565b6020808252600990820152682737ba1030b236b4b760b91b604082015260600190565b5f602082840312156120e6575f80fd5b5051919050565b5f602082840312156120fd575f80fd5b8151611e6e81611e3c565b606081016121168286611e18565b602082019390935260400152919050565b604081016121358285611e18565b826020830152939250505056fea2646970667358221220620656c754363e78142eb781d660f21e0851b153f9fe29bcdf9cdec6b629dfb764736f6c63430008140033",
  "linkReferences": {},
  "deployedLinkReferences": {},
  "immutableReferences": {},
  "inputSourceName": "project/contracts/PredictionMarket.sol",
  "buildInfoId": "solc-0_8_20-ae6ce6d7e32a32260c0a423de9eeebe654c4232a"
}