{
  "_format": "hh3-artifact-1",
  "contractName": "DisputeManager",
  "sourceName": "contracts/DisputeManager.sol",
  "abi": [
    {
      "inputs": [
        {
          "internalType": "address",
          "name": "_adminManager",
          "type": "address"
        },
        {
          "internalType": "address",
          "name": "_bondToken",
          "type": "address"
        }
      ],
      "stateMutability": "nonpayable",
      "type": "constructor"
    },
    {
      "inputs": [],
      "name": "ReentrancyGuardReentrantCall",
      "type": "error"
    },
    {
      "anonymous": false,
      "inputs": [
        {
          "indexed": true,
          "internalType": "uint256",
          "name": "disputeId",
          "type": "uint256"
        },
        {
          "indexed": true,
          "internalType": "address",
          "name": "disputer",
          "type": "address"
        },
        {
          "indexed": false,
          "internalType": "uint256",
          "name": "amount",
          "type": "uint256"
        }
      ],
      "name": "BondForfeited",
      "type": "event"
    },
    {
      "anonymous": false,
      "inputs": [
        {
          "indexed": true,
          "internalType": "uint256",
          "name": "disputeId",
          "type": "uint256"
        },
        {
          "indexed": true,
          "internalType": "address",
          "name": "disputer",
          "type": "address"
        },
        {
          "indexed": false,
          "internalType": "uint256",
          "name": "amount",
          "type": "uint256"
        }
      ],
      "name": "BondReturned",
      "type": "event"
    },
    {
      "anonymous": false,
      "inputs": [
        {
          "indexed": true,
          "internalType": "uint256",
          "name": "disputeId",
          "type": "uint256"
        },
        {
          "indexed": true,
          "internalType": "address",
          "name": "disputer",
          "type": "address"
        },
        {
          "indexed": true,
          "internalType": "address",
          "name": "marketAddress",
          "type": "address"
        },
        {
          "indexed": false,
          "internalType": "uint256",
          "name": "bondAmount",
          "type": "uint256"
        },
        {
          "indexed": false,
          "internalType": "string",
          "name": "reason",
          "type": "string"
        }
      ],
      "name": "DisputeCreated",
      "type": "event"
    },
    {
      "anonymous": false,
      "inputs": [
        {
          "indexed": true,
          "internalType": "uint256",
          "name": "disputeId",
          "type": "uint256"
        },
        {
          "indexed": true,
          "internalType": "address",
          "name": "marketAddress",
          "type": "address"
        }
      ],
      "name": "DisputePeriodExpired",
      "type": "event"
    },
    {
      "anonymous": false,
      "inputs": [
        {
          "indexed": true,
          "internalType": "uint256",
          "name": "disputeId",
          "type": "uint256"
        },
        {
          "indexed": false,
          "internalType": "enum DisputeManager.DisputeOutcome",
          "name": "outcome",
          "type": "uint8"
        },
        {
          "indexed": true,
          "internalType": "address",
          "name": "resolvedBy",
          "type": "address"
        },
        {
          "indexed": false,
          "internalType": "string",
          "name": "adminNotes",
          "type": "string"
        }
      ],
      "name": "DisputeResolved",
      "type": "event"
    },
    {
      "inputs": [],
      "name": "DISPUTE_BOND_AMOUNT",
      "outputs": [
        {
          "internalType": "uint256",
          "name": "",
          "type": "uint256"
        }
      ],
      "stateMutability": "view",
      "type": "function"
    },
    {
      "inputs": [],
      "name": "DISPUTE_PERIOD_HOURS",
      "outputs": [
        {
          "internalType": "uint256",
          "name": "",
          "type": "uint256"
        }
      ],
      "stateMutability": "view",
      "type": "function"
    },
    {
      "inputs": [],
      "name": "adminManager",
      "outputs": [
        {
          "internalType": "contract AdminManager",
          "name": "",
          "type": "address"
        }
      ],
      "stateMutability": "view",
      "type": "function"
    },
    {
      "inputs": [],
      "name": "bondToken",
      "outputs": [
        {
          "internalType": "contract IERC20",
          "name": "",
          "type": "address"
        }
      ],
      "stateMutability": "view",
      "type": "function"
    },
    {
      "inputs": [
        {
          "internalType": "address",
          "name": "marketAddress",
          "type": "address"
        },
        {
          "internalType": "string",
          "name": "reason",
          "type": "string"
        },
        {
          "internalType": "string",
          "name": "evidence",
          "type": "string"
        },
        {
          "internalType": "bytes32",
          "name": "evidenceHash",
          "type": "bytes32"
        }
      ],
      "name": "createDispute",
      "outputs": [
        {
          "internalType": "uint256",
          "name": "",
          "type": "uint256"
        }
      ],
      "stateMutability": "nonpayable",
      "type": "function"
    },
    {
      "inputs": [
        {
          "internalType": "uint256",
          "name": "",
          "type": "uint256"
        }
      ],
      "name": "disputes",
      "outputs": [
        {
          "internalType": "uint256",
          "name": "id",
          "type": "uint256"
        },
        {
          "internalType": "address",
          "name": "disputer",
          "type": "address"
        },
        {
          "internalType": "address",
          "name": "marketAddress",
          "type": "address"
        },
        {
          "internalType": "uint256",
          "name": "bondAmount",
          "type": "uint256"
        },
        {
          "internalType": "string",
          "name": "evidence",
          "type": "string"
        },
        {
          "internalType": "string",
          "name": "reason",
          "type": "string"
        },
        {
          "internalType": "bytes32",
          "name": "evidenceHash",
          "type": "bytes32"
        },
        {
          "internalType": "uint256",
          "name": "createdAt",
          "type": "uint256"
        },
        {
          "internalType": "uint256",
          "name": "resolveBy",
          "type": "uint256"
        },
        {
          "internalType": "enum DisputeManager.DisputeStatus",
          "name": "status",
          "type": "uint8"
        },
        {
          "internalType": "enum DisputeManager.DisputeOutcome",
          "name": "outcome",
          "type": "uint8"
        },
        {
          "internalType": "address",
          "name": "resolvedBy",
          "type": "address"
        },
        {
          "internalType": "uint256",
          "name": "resolvedAt",
          "type": "uint256"
        },
        {
          "internalType": "string",
          "name": "adminNotes",
          "type": "string"
        }
      ],
      "stateMutability": "view",
      "type": "function"
    },
    {
      "inputs": [
        {
          "internalType": "address",
          "name": "",
          "type": "address"
        },
        {
          "internalType": "uint256",
          "name": "",
          "type": "uint256"
        }
      ],
      "name": "disputesByMarket",
      "outputs": [
        {
          "internalType": "uint256",
          "name": "",
          "type": "uint256"
        }
      ],
      "stateMutability": "view",
      "type": "function"
    },
    {
      "inputs": [
        {
          "internalType": "address",
          "name": "",
          "type": "address"
        },
        {
          "internalType": "uint256",
          "name": "",
          "type": "uint256"
        }
      ],
      "name": "disputesByUser",
      "outputs": [
        {
          "internalType": "uint256",
          "name": "",
          "type": "uint256"
        }
      ],
      "stateMutability": "view",
      "type": "function"
    },
    {
      "inputs": [
        {
          "internalType": "address",
          "name": "token",
          "type": "address"
        },
        {
          "internalType": "uint256",
          "name": "amount",
          "type": "uint256"
        }
      ],
      "name": "emergencyRecoverTokens",
      "outputs": [],
      "stateMutability": "nonpayable",
      "type": "function"
    },
    {
      "inputs": [],
      "name": "getActiveDisputes",
      "outputs": [
        {
          "internalType": "uint256[]",
          "name": "",
          "type": "uint256[]"
        }
      ],
      "stateMutability": "view",
      "type": "function"
    },
    {
      "inputs": [
        {
          "internalType": "uint256",
          "name": "disputeId",
          "type": "uint256"
        }
      ],
      "name": "getDispute",
      "outputs": [
        {
          "components": [
            {
              "internalType": "uint256",
              "name": "id",
              "type": "uint256"
            },
            {
              "internalType": "address",
              "name": "disputer",
              "type": "address"
            },
            {
              "internalType": "address",
              "name": "marketAddress",
              "type": "address"
            },
            {
              "internalType": "uint256",
              "name": "bondAmount",
              "type": "uint256"
            },
            {
              "internalType": "string",
              "name": "evidence",
              "type": "string"
            },
            {
              "internalType": "string",
              "name": "reason",
              "type": "string"
            },
            {
              "internalType": "bytes32",
              "name": "evidenceHash",
              "type": "bytes32"
            },
            {
              "internalType": "uint256",
              "name": "createdAt",
              "type": "uint256"
            },
            {
              "internalType": "uint256",
              "name": "resolveBy",
              "type": "uint256"
            },
            {
              "internalType": "enum DisputeManager.DisputeStatus",
              "name": "status",
              "type": "uint8"
            },
            {
              "internalType": "enum DisputeManager.DisputeOutcome",
              "name": "outcome",
              "type": "uint8"
            },
            {
              "internalType": "address",
              "name": "resolvedBy",
              "type": "address"
            },
            {
              "internalType": "uint256",
              "name": "resolvedAt",
              "type": "uint256"
            },
            {
              "internalType": "string",
              "name": "adminNotes",
              "type": "string"
            }
          ],
          "internalType": "struct DisputeManager.Dispute",
          "name": "",
          "type": "tuple"
        }
      ],
      "stateMutability": "view",
      "type": "function"
    },
    {
      "inputs": [
        {
          "internalType": "address",
          "name": "marketAddress",
          "type": "address"
        }
      ],
      "name": "getMarketDisputes",
      "outputs": [
        {
          "internalType": "uint256[]",
          "name": "",
          "type": "uint256[]"
        }
      ],
      "stateMutability": "view",
      "type": "function"
    },
    {
      "inputs": [
        {
          "internalType": "address",
          "name": "user",
          "type": "address"
        }
      ],
      "name": "getUserActiveBonds",
      "outputs": [
        {
          "internalType": "uint256",
          "name": "",
          "type": "uint256"
        }
      ],
      "stateMutability": "view",
      "type": "function"
    },
    {
      "inputs": [
        {
          "internalType": "address",
          "name": "user",
          "type": "address"
        }
      ],
      "name": "getUserDisputes",
      "outputs": [
        {
          "internalType": "uint256[]",
          "name": "",
          "type": "uint256[]"
        }
      ],
      "stateMutability": "view",
      "type": "function"
    },
    {
      "inputs": [
        {
          "internalType": "address",
          "name": "marketAddress",
          "type": "address"
        }
      ],
      "name": "hasActiveDisputes",
      "outputs": [
        {
          "internalType": "bool",
          "name": "",
          "type": "bool"
        }
      ],
      "stateMutability": "view",
      "type": "function"
    },
    {
      "inputs": [
        {
          "internalType": "uint256",
          "name": "disputeId",
          "type": "uint256"
        }
      ],
      "name": "markDisputeExpired",
      "outputs": [],
      "stateMutability": "nonpayable",
      "type": "function"
    },
    {
      "inputs": [
        {
          "internalType": "uint256",
          "name": "disputeId",
          "type": "uint256"
        },
        {
          "internalType": "enum DisputeManager.DisputeOutcome",
          "name": "outcome",
          "type": "uint8"
        },
        {
          "internalType": "string",
          "name": "adminNotes",
          "type": "string"
        }
      ],
      "name": "resolveDispute",
      "outputs": [],
      "stateMutability": "nonpayable",
      "type": "function"
    },
    {
      "inputs": [
        {
          "internalType": "address",
          "name": "newAdminManager",
          "type": "address"
        }
      ],
      "name": "updateAdminManager",
      "outputs": [],
      "stateMutability": "nonpayable",
      "type": "function"
    },
    {
      "inputs": [
        {
          "internalType": "address",
          "name": "",
          "type": "address"
        }
      ],
      "name": "userActiveBonds",
      "outputs": [
        {
          "internalType": "uint256",
          "name": "",
          "type": "uint256"
        }
      ],
      "stateMutability": "view",
      "type": "function"
    }
  ],
  "bytecode": "0x608060405234801562000010575f80fd5b5060405162002d7f38038062002d7f833981016040819052620000339162000152565b60015f556001600160a01b038216620000a15760405162461bcd60e51b815260206004820152602560248201527f446973707574654d616e616765723a20496e76616c69642061646d696e206d616044820152643730b3b2b960d91b60648201526084015b60405180910390fd5b6001600160a01b038116620001045760405162461bcd60e51b815260206004820152602260248201527f446973707574654d616e616765723a20496e76616c696420626f6e6420746f6b60448201526132b760f11b606482015260840162000098565b600180546001600160a01b039384166001600160a01b0319918216179091556002805492909316911617905562000188565b80516001600160a01b03811681146200014d575f80fd5b919050565b5f806040838503121562000164575f80fd5b6200016f8362000136565b91506200017f6020840162000136565b90509250929050565b612be980620001965f395ff3fe608060405234801561000f575f80fd5b506004361061011c575f3560e01c806373954e79116100a9578063bfb0a55b1161006e578063bfb0a55b14610286578063c28f439214610299578063c316939c146102ac578063d82224d6146102bf578063e3a96cbd146102e2575f80fd5b806373954e79146101ee5780638b889bb6146102165780638c0231e2146102295780638c62e59414610248578063a210b6a41461025b575f80fd5b80633dcd2c1d116100ef5780633dcd2c1d146101735780633f64d85914610188578063564a565d1461019b5780636e795bbe146101c85780636eceae2c146101db575f80fd5b8063036351701461012057806303a09d18146101465780630457eeff1461015b57806325733dae14610163575b5f80fd5b61013361012e36600461236b565b610302565b6040519081526020015b60405180910390f35b61014e61032d565b60405161013d9190612393565b61013360a881565b61013368056bc75e2d6310000081565b61018661018136600461236b565b6104ac565b005b61013361019636600461241b565b61061f565b6101ae6101a936600461249e565b61115b565b60405161013d9e9d9c9b9a99989796959493929190612530565b6101866101d636600461249e565b611377565b6101336101e936600461236b565b6115b8565b6101336101fc3660046125f1565b6001600160a01b03165f9081526007602052604090205490565b61014e6102243660046125f1565b6115d1565b6101336102373660046125f1565b60076020525f908152604090205481565b6101866102563660046125f1565b61163a565b60015461026e906001600160a01b031681565b6040516001600160a01b03909116815260200161013d565b61014e6102943660046125f1565b611746565b60025461026e906001600160a01b031681565b6101866102ba366004612611565b6117ad565b6102d26102cd3660046125f1565b611c26565b604051901515815260200161013d565b6102f56102f036600461249e565b611fcf565b60405161013d919061266c565b6005602052815f5260405f20818154811061031b575f80fd5b905f5260205f20015f91509150505481565b6003546060905f8167ffffffffffffffff81111561034d5761034d61278c565b604051908082528060200260200182016040528015610376578160200160208202803683370190505b5090505f60015b838111610409575f8181526004602052604081206009015460ff1660038111156103a9576103a96124f8565b1480156103c657505f818152600460205260409020600801544211155b156103f757808383815181106103de576103de6127a0565b6020908102919091010152816103f3816127c8565b9250505b80610401816127c8565b91505061037d565b505f8167ffffffffffffffff8111156104245761042461278c565b60405190808252806020026020018201604052801561044d578160200160208202803683370190505b5090505f5b828110156104a35783818151811061046c5761046c6127a0565b6020026020010151828281518110610486576104866127a0565b60209081029190910101528061049b816127c8565b915050610452565b50949350505050565b600154604051630935e01b60e21b81523360048201526001600160a01b03909116906324d7806c90602401602060405180830381865afa1580156104f2573d5f803e3d5ffd5b505050506040513d601f19601f8201168201806040525081019061051691906127e0565b61053b5760405162461bcd60e51b8152600401610532906127ff565b60405180910390fd5b6002546001600160a01b03908116908316036105ac5760405162461bcd60e51b815260206004820152602a60248201527f446973707574654d616e616765723a2043616e6e6f74207265636f76657220626044820152696f6e6420746f6b656e7360b01b6064820152608401610532565b60405163a9059cbb60e01b8152336004820152602481018290526001600160a01b0383169063a9059cbb906044016020604051808303815f875af11580156105f6573d5f803e3d5ffd5b505050506040513d601f19601f8201168201806040525081019061061a91906127e0565b505050565b5f866001600160a01b0381166106865760405162461bcd60e51b815260206004820152602660248201527f446973707574654d616e616765723a20496e76616c6964206d61726b6574206160448201526564647265737360d01b6064820152608401610532565b61068e612328565b600a86116106de5760405162461bcd60e51b815260206004820181905260248201527f446973707574654d616e616765723a20526561736f6e20746f6f2073686f72746044820152606401610532565b601484116107395760405162461bcd60e51b815260206004820152602260248201527f446973707574654d616e616765723a2045766964656e636520746f6f2073686f6044820152611c9d60f21b6064820152608401610532565b5f889050806001600160a01b0316632284a82f6040518163ffffffff1660e01b8152600401602060405180830381865afa158015610779573d5f803e3d5ffd5b505050506040513d601f19601f8201168201806040525081019061079d91906127e0565b6108005760405162461bcd60e51b815260206004820152602e60248201527f446973707574654d616e616765723a204d61726b6574206e6f7420696e20646960448201526d7370757461626c6520737461746560901b6064820152608401610532565b6002546040516370a0823160e01b815233600482015268056bc75e2d63100000916001600160a01b0316906370a0823190602401602060405180830381865afa15801561084f573d5f803e3d5ffd5b505050506040513d601f19601f820116820180604052508101906108739190612836565b10156108d75760405162461bcd60e51b815260206004820152602d60248201527f446973707574654d616e616765723a20496e73756666696369656e742062616c60448201526c185b98d948199bdc88189bdb99609a1b6064820152608401610532565b6001600160a01b0389165f9081526006602090815260408083208054825181850281018501909352808352919290919083018282801561093457602002820191905f5260205f20905b815481526020019060010190808311610920575b505050505090505f5b8151811015610cdc575f60045f84848151811061095c5761095c6127a0565b60209081029190910181015182528181019290925260409081015f2081516101c0810183528154815260018201546001600160a01b0390811694820194909452600282015490931691830191909152600381015460608301526004810180546080840191906109ca9061284d565b80601f01602080910402602001604051908101604052809291908181526020018280546109f69061284d565b8015610a415780601f10610a1857610100808354040283529160200191610a41565b820191905f5260205f20905b815481529060010190602001808311610a2457829003601f168201915b50505050508152602001600582018054610a5a9061284d565b80601f0160208091040260200160405190810160405280929190818152602001828054610a869061284d565b8015610ad15780601f10610aa857610100808354040283529160200191610ad1565b820191905f5260205f20905b815481529060010190602001808311610ab457829003601f168201915b5050509183525050600682015460208201526007820154604082015260088201546060820152600982015460809091019060ff166003811115610b1657610b166124f8565b6003811115610b2757610b276124f8565b81526020016009820160019054906101000a900460ff166002811115610b4f57610b4f6124f8565b6002811115610b6057610b606124f8565b815260098201546201000090046001600160a01b03166020820152600a8201546040820152600b82018054606090920191610b9a9061284d565b80601f0160208091040260200160405190810160405280929190818152602001828054610bc69061284d565b8015610c115780601f10610be857610100808354040283529160200191610c11565b820191905f5260205f20905b815481529060010190602001808311610bf457829003601f168201915b5050505050815250509050336001600160a01b031681602001516001600160a01b0316141580610c5757505f8161012001516003811115610c5457610c546124f8565b14155b610cc95760405162461bcd60e51b815260206004820152603f60248201527f446973707574654d616e616765723a205573657220616c72656164792068617360448201527f20616374697665206469737075746520666f722074686973206d61726b6574006064820152608401610532565b5080610cd4816127c8565b91505061093d565b506002546040516323b872dd60e01b815233600482015230602482015268056bc75e2d6310000060448201526001600160a01b03909116906323b872dd906064016020604051808303815f875af1158015610d39573d5f803e3d5ffd5b505050506040513d601f19601f82011682018060405250810190610d5d91906127e0565b610db55760405162461bcd60e51b8152602060048201526024808201527f446973707574654d616e616765723a20426f6e64207472616e736665722066616044820152631a5b195960e21b6064820152608401610532565b60038054905f610dc4836127c8565b90915550506003545f610dda60a8610e1061287f565b610de4904261289c565b9050604051806101c00160405280838152602001336001600160a01b031681526020018d6001600160a01b0316815260200168056bc75e2d6310000081526020018a8a8080601f0160208091040260200160405190810160405280939291908181526020018383808284375f92019190915250505090825250604080516020601f8f018190048102820181019092528d815291810191908e908e90819084018382808284375f920182905250938552505050602082018a90524260408301526060820184905260809091019081526020015f81525f602080830182905260408084018390528051808301825283815260609485015286835260048083529281902085518155918501516001830180546001600160a01b03199081166001600160a01b0393841617909155918601516002840180549093169116179055918301516003830155608083015190820190610f3c90826128f4565b5060a08201516005820190610f5190826128f4565b5060c0820151600682015560e08201516007820155610100820151600882015561012082015160098201805460ff19166001836003811115610f9557610f956124f8565b021790555061014082015160098201805461ff001916610100836002811115610fc057610fc06124f8565b02179055506101608201516009820180546001600160a01b03909216620100000262010000600160b01b0319909216919091179055610180820151600a8201556101a0820151600b82019061101590826128f4565b5090505060055f336001600160a01b03166001600160a01b031681526020019081526020015f2082908060018154018082558091505060019003905f5260205f20015f909190919091505560065f8d6001600160a01b03166001600160a01b031681526020019081526020015f2082908060018154018082558091505060019003905f5260205f20015f909190919091505568056bc75e2d6310000060075f336001600160a01b03166001600160a01b031681526020019081526020015f205f8282546110e2919061289c565b925050819055508b6001600160a01b0316336001600160a01b0316837f181c24d3031a458c8583ca42c7567d2a0390531903555ee75f857f7b62ecb1ed68056bc75e2d631000008f8f60405161113a939291906129d8565b60405180910390a4509350505061115060015f55565b509695505050505050565b600460208190525f91825260409091208054600182015460028301546003840154948401805493956001600160a01b0393841695929093169361119d9061284d565b80601f01602080910402602001604051908101604052809291908181526020018280546111c99061284d565b80156112145780601f106111eb57610100808354040283529160200191611214565b820191905f5260205f20905b8154815290600101906020018083116111f757829003601f168201915b5050505050908060050180546112299061284d565b80601f01602080910402602001604051908101604052809291908181526020018280546112559061284d565b80156112a05780601f10611277576101008083540402835291602001916112a0565b820191905f5260205f20905b81548152906001019060200180831161128357829003601f168201915b505050506006830154600784015460088501546009860154600a870154600b8801805497989597949650929460ff80841695610100850490911694620100009094046001600160a01b031693906112f69061284d565b80601f01602080910402602001604051908101604052809291908181526020018280546113229061284d565b801561136d5780601f106113445761010080835404028352916020019161136d565b820191905f5260205f20905b81548152906001019060200180831161135057829003601f168201915b505050505090508e565b5f818152600460205260408120548291036113a45760405162461bcd60e51b8152600401610532906129fa565b5f82815260046020526040812090600982015460ff1660038111156113cb576113cb6124f8565b146113e85760405162461bcd60e51b815260040161053290612a40565b8060080154421161144e5760405162461bcd60e51b815260206004820152602a60248201527f446973707574654d616e616765723a204469737075746520706572696f64206e6044820152691bdd08195e1c1a5c995960b21b6064820152608401610532565b60098101805460ff1916600390811790915581015460018201546001600160a01b03165f908152600760205260408120805490919061148e908490612a82565b90915550506002546001820154600383015460405163a9059cbb60e01b81526001600160a01b039283166004820152602481019190915291169063a9059cbb906044016020604051808303815f875af11580156114ed573d5f803e3d5ffd5b505050506040513d601f19601f8201168201806040525081019061151191906127e0565b61152d5760405162461bcd60e51b815260040161053290612a95565b60028101546040516001600160a01b039091169084907fca61d52f34a455bd736029c7edaab0d24d68fff479da8a27d6f7ed9aeb319925905f90a3600181015460038201546040519081526001600160a01b039091169084907f5042ec6be4814281f6554f4e4f4f75cdc6eb4e4ce0efef7b0f9bd3d4a40428c99060200160405180910390a3505050565b6006602052815f5260405f20818154811061031b575f80fd5b6001600160a01b0381165f9081526006602090815260409182902080548351818402810184019094528084526060939283018282801561162e57602002820191905f5260205f20905b81548152602001906001019080831161161a575b50505050509050919050565b600154604051630935e01b60e21b81523360048201526001600160a01b03909116906324d7806c90602401602060405180830381865afa158015611680573d5f803e3d5ffd5b505050506040513d601f19601f820116820180604052508101906116a491906127e0565b6116c05760405162461bcd60e51b8152600401610532906127ff565b6001600160a01b0381166117245760405162461bcd60e51b815260206004820152602560248201527f446973707574654d616e616765723a20496e76616c69642061646d696e206d616044820152643730b3b2b960d91b6064820152608401610532565b600180546001600160a01b0319166001600160a01b0392909216919091179055565b6001600160a01b0381165f9081526005602090815260409182902080548351818402810184019094528084526060939283018282801561162e57602002820191905f5260205f209081548152602001906001019080831161161a5750505050509050919050565b600154604051630935e01b60e21b81523360048201526001600160a01b03909116906324d7806c90602401602060405180830381865afa1580156117f3573d5f803e3d5ffd5b505050506040513d601f19601f8201168201806040525081019061181791906127e0565b6118335760405162461bcd60e51b8152600401610532906127ff565b5f848152600460205260408120548591036118605760405162461bcd60e51b8152600401610532906129fa565b845f808281526004602052604090206009015460ff166003811115611887576118876124f8565b146118a45760405162461bcd60e51b815260040161053290612a40565b5f818152600460205260409020600801544211156119135760405162461bcd60e51b815260206004820152602660248201527f446973707574654d616e616765723a204469737075746520706572696f6420656044820152651e1c1a5c995960d21b6064820152608401610532565b61191b612328565b5f85600281111561192e5761192e6124f8565b0361197b5760405162461bcd60e51b815260206004820152601f60248201527f446973707574654d616e616765723a20496e76616c6964206f7574636f6d65006044820152606401610532565b600583116119d75760405162461bcd60e51b8152602060048201526024808201527f446973707574654d616e616765723a2041646d696e206e6f74657320726571756044820152631a5c995960e21b6064820152608401610532565b5f868152600460205260409020600981018054600160ff1982168117835588929161ffff191617610100836002811115611a1357611a136124f8565b021790555060098101805462010000600160b01b03191633620100000217905542600a820155600b8101611a48858783612ad7565b50600381015460018201546001600160a01b03165f9081526007602052604081208054909190611a79908490612a82565b9091555060019050866002811115611a9357611a936124f8565b03611b82576002546001820154600383015460405163a9059cbb60e01b81526001600160a01b039283166004820152602481019190915291169063a9059cbb906044016020604051808303815f875af1158015611af2573d5f803e3d5ffd5b505050506040513d601f19601f82011682018060405250810190611b1691906127e0565b611b325760405162461bcd60e51b815260040161053290612a95565b600181015460038201546040519081526001600160a01b039091169088907f5042ec6be4814281f6554f4e4f4f75cdc6eb4e4ce0efef7b0f9bd3d4a40428c99060200160405180910390a3611bce565b600181015460038201546040519081526001600160a01b039091169088907f16dd876919f5a1d3a62d34d0c40f4f6bd9f269ef564d21d1939452cd57f50b849060200160405180910390a35b336001600160a01b0316877f5da486cab6a1910eb90036db1524819f88f18b7fef20ff00177a1e5bb023e758888888604051611c0c93929190612b93565b60405180910390a350611c1e60015f55565b505050505050565b6001600160a01b0381165f90815260066020908152604080832080548251818502810185019093528083528493830182828015611c8057602002820191905f5260205f20905b815481526020019060010190808311611c6c575b505050505090505f5b8151811015611fc6575f60045f848481518110611ca857611ca86127a0565b60209081029190910181015182528181019290925260409081015f2081516101c0810183528154815260018201546001600160a01b039081169482019490945260028201549093169183019190915260038101546060830152600481018054608084019190611d169061284d565b80601f0160208091040260200160405190810160405280929190818152602001828054611d429061284d565b8015611d8d5780601f10611d6457610100808354040283529160200191611d8d565b820191905f5260205f20905b815481529060010190602001808311611d7057829003601f168201915b50505050508152602001600582018054611da69061284d565b80601f0160208091040260200160405190810160405280929190818152602001828054611dd29061284d565b8015611e1d5780601f10611df457610100808354040283529160200191611e1d565b820191905f5260205f20905b815481529060010190602001808311611e0057829003601f168201915b5050509183525050600682015460208201526007820154604082015260088201546060820152600982015460809091019060ff166003811115611e6257611e626124f8565b6003811115611e7357611e736124f8565b81526020016009820160019054906101000a900460ff166002811115611e9b57611e9b6124f8565b6002811115611eac57611eac6124f8565b815260098201546201000090046001600160a01b03166020820152600a8201546040820152600b82018054606090920191611ee69061284d565b80601f0160208091040260200160405190810160405280929190818152602001828054611f129061284d565b8015611f5d5780601f10611f3457610100808354040283529160200191611f5d565b820191905f5260205f20905b815481529060010190602001808311611f4057829003601f168201915b50505050508152505090505f6003811115611f7a57611f7a6124f8565b8161012001516003811115611f9157611f916124f8565b148015611fa357508061010001514211155b15611fb357506001949350505050565b5080611fbe816127c8565b915050611c89565b505f9392505050565b61203d604080516101c0810182525f8082526020820181905291810182905260608082018390526080820181905260a082015260c0810182905260e0810182905261010081018290529061012082019081526020015f81525f60208201819052604082015260609081015290565b5f8281526004602052604081205483910361206a5760405162461bcd60e51b8152600401610532906129fa565b5f8381526004602081815260409283902083516101c0810185528154815260018201546001600160a01b03908116938201939093526002820154909216938201939093526003830154606082015290820180549192916080840191906120cf9061284d565b80601f01602080910402602001604051908101604052809291908181526020018280546120fb9061284d565b80156121465780601f1061211d57610100808354040283529160200191612146565b820191905f5260205f20905b81548152906001019060200180831161212957829003601f168201915b5050505050815260200160058201805461215f9061284d565b80601f016020809104026020016040519081016040528092919081815260200182805461218b9061284d565b80156121d65780601f106121ad576101008083540402835291602001916121d6565b820191905f5260205f20905b8154815290600101906020018083116121b957829003601f168201915b5050509183525050600682015460208201526007820154604082015260088201546060820152600982015460809091019060ff16600381111561221b5761221b6124f8565b600381111561222c5761222c6124f8565b81526020016009820160019054906101000a900460ff166002811115612254576122546124f8565b6002811115612265576122656124f8565b815260098201546201000090046001600160a01b03166020820152600a8201546040820152600b8201805460609092019161229f9061284d565b80601f01602080910402602001604051908101604052809291908181526020018280546122cb9061284d565b80156123165780601f106122ed57610100808354040283529160200191612316565b820191905f5260205f20905b8154815290600101906020018083116122f957829003601f168201915b50505050508152505091505b50919050565b60025f540361234a57604051633ee5aeb560e01b815260040160405180910390fd5b60025f55565b80356001600160a01b0381168114612366575f80fd5b919050565b5f806040838503121561237c575f80fd5b61238583612350565b946020939093013593505050565b602080825282518282018190525f9190848201906040850190845b818110156123ca578351835292840192918401916001016123ae565b50909695505050505050565b5f8083601f8401126123e6575f80fd5b50813567ffffffffffffffff8111156123fd575f80fd5b602083019150836020828501011115612414575f80fd5b9250929050565b5f805f805f8060808789031215612430575f80fd5b61243987612350565b9550602087013567ffffffffffffffff80821115612455575f80fd5b6124618a838b016123d6565b90975095506040890135915080821115612479575f80fd5b5061248689828a016123d6565b979a9699509497949695606090950135949350505050565b5f602082840312156124ae575f80fd5b5035919050565b5f81518084525f5b818110156124d9576020818501810151868301820152016124bd565b505f602082860101526020601f19601f83011685010191505092915050565b634e487b7160e01b5f52602160045260245ffd5b6004811061251c5761251c6124f8565b9052565b6003811061251c5761251c6124f8565b8e81526001600160a01b038e1660208201526001600160a01b038d1660408201528b60608201526101c060808201525f61256e6101c083018d6124b5565b82810360a0840152612580818d6124b5565b90508a60c08401528960e0840152886101008401526125a361012084018961250c565b6125b1610140840188612520565b6001600160a01b038616610160840152846101808401528281036101a08401526125db81856124b5565b9150509f9e505050505050505050505050505050565b5f60208284031215612601575f80fd5b61260a82612350565b9392505050565b5f805f8060608587031215612624575f80fd5b84359350602085013560038110612639575f80fd5b9250604085013567ffffffffffffffff811115612654575f80fd5b612660878288016123d6565b95989497509550505050565b60208152815160208201525f602083015161269260408401826001600160a01b03169052565b5060408301516001600160a01b0381166060840152506060830151608083015260808301516101c08060a08501526126ce6101e08501836124b5565b915060a0850151601f19808685030160c08701526126ec84836124b5565b935060c087015160e087015260e0870151915061010082818801528088015192505061012082818801528088015192505061014061272c8188018461250c565b870151915061016061274087820184612520565b870151915061018061275c878201846001600160a01b03169052565b8701516101a08781019190915287015186850390910183870152905061278283826124b5565b9695505050505050565b634e487b7160e01b5f52604160045260245ffd5b634e487b7160e01b5f52603260045260245ffd5b634e487b7160e01b5f52601160045260245ffd5b5f600182016127d9576127d96127b4565b5060010190565b5f602082840312156127f0575f80fd5b8151801515811461260a575f80fd5b6020808252601a908201527f446973707574654d616e616765723a204f6e6c792061646d696e000000000000604082015260600190565b5f60208284031215612846575f80fd5b5051919050565b600181811c9082168061286157607f821691505b60208210810361232257634e487b7160e01b5f52602260045260245ffd5b8082028115828204841417612896576128966127b4565b92915050565b80820180821115612896576128966127b4565b601f82111561061a575f81815260208120601f850160051c810160208610156128d55750805b601f850160051c820191505b81811015611c1e578281556001016128e1565b815167ffffffffffffffff81111561290e5761290e61278c565b6129228161291c845461284d565b846128af565b602080601f831160018114612955575f841561293e5750858301515b5f19600386901b1c1916600185901b178555611c1e565b5f85815260208120601f198616915b8281101561298357888601518255948401946001909101908401612964565b50858210156129a057878501515f19600388901b60f8161c191681555b5050505050600190811b01905550565b81835281816020850137505f828201602090810191909152601f909101601f19169091010190565b838152604060208201525f6129f16040830184866129b0565b95945050505050565b60208082526026908201527f446973707574654d616e616765723a204469737075746520646f6573206e6f7460408201526508195e1a5cdd60d21b606082015260800190565b60208082526022908201527f446973707574654d616e616765723a2044697370757465206e6f742061637469604082015261766560f01b606082015260800190565b81810381811115612896576128966127b4565b60208082526022908201527f446973707574654d616e616765723a20426f6e642072657475726e206661696c604082015261195960f21b606082015260800190565b67ffffffffffffffff831115612aef57612aef61278c565b612b0383612afd835461284d565b836128af565b5f601f841160018114612b34575f8515612b1d5750838201355b5f19600387901b1c1916600186901b178355612b8c565b5f83815260209020601f19861690835b82811015612b645786850135825560209485019460019092019101612b44565b5086821015612b80575f1960f88860031b161c19848701351681555b505060018560011b0183555b5050505050565b612b9d8185612520565b604060208201525f6129f16040830184866129b056fea26469706673582212201c0300b4f554a406249208cfcaed0db08b210c5554df9a83ec46c6f76ce5af5664736f6c63430008140033",
  "linkReferences": {},
  "deployedLinkReferences": {},
  "immutableReferences": {},
  "inputSourceName": "project/contracts/DisputeManager.sol",
  "buildInfoId": "solc-0_8_20-4e41314eaa0ebc0f27cb45e1c2d7748172e56a4e"
}