{
  "_format": "hh3-artifact-1",
  "contractName": "DisputeManager",
  "sourceName": "contracts/DisputeManager.sol",
  "abi": [
    {
      "inputs": [
        {
          "internalType": "address",
          "name": "_adminManager",
          "type": "address"
        },
        {
          "internalType": "address",
          "name": "_bondToken",
          "type": "address"
        }
      ],
      "stateMutability": "nonpayable",
      "type": "constructor"
    },
    {
      "inputs": [],
      "name": "ReentrancyGuardReentrantCall",
      "type": "error"
    },
    {
      "anonymous": false,
      "inputs": [
        {
          "indexed": true,
          "internalType": "uint256",
          "name": "disputeId",
          "type": "uint256"
        },
        {
          "indexed": true,
          "internalType": "address",
          "name": "disputer",
          "type": "address"
        },
        {
          "indexed": false,
          "internalType": "uint256",
          "name": "amount",
          "type": "uint256"
        }
      ],
      "name": "BondForfeited",
      "type": "event"
    },
    {
      "anonymous": false,
      "inputs": [
        {
          "indexed": true,
          "internalType": "uint256",
          "name": "disputeId",
          "type": "uint256"
        },
        {
          "indexed": true,
          "internalType": "address",
          "name": "disputer",
          "type": "address"
        },
        {
          "indexed": false,
          "internalType": "uint256",
          "name": "amount",
          "type": "uint256"
        }
      ],
      "name": "BondReturned",
      "type": "event"
    },
    {
      "anonymous": false,
      "inputs": [
        {
          "indexed": true,
          "internalType": "uint256",
          "name": "disputeId",
          "type": "uint256"
        },
        {
          "indexed": true,
          "internalType": "address",
          "name": "disputer",
          "type": "address"
        },
        {
          "indexed": true,
          "internalType": "address",
          "name": "marketAddress",
          "type": "address"
        },
        {
          "indexed": false,
          "internalType": "uint256",
          "name": "bondAmount",
          "type": "uint256"
        },
        {
          "indexed": false,
          "internalType": "string",
          "name": "reason",
          "type": "string"
        }
      ],
      "name": "DisputeCreated",
      "type": "event"
    },
    {
      "anonymous": false,
      "inputs": [
        {
          "indexed": true,
          "internalType": "uint256",
          "name": "disputeId",
          "type": "uint256"
        },
        {
          "indexed": true,
          "internalType": "address",
          "name": "marketAddress",
          "type": "address"
        }
      ],
      "name": "DisputePeriodExpired",
      "type": "event"
    },
    {
      "anonymous": false,
      "inputs": [
        {
          "indexed": true,
          "internalType": "uint256",
          "name": "disputeId",
          "type": "uint256"
        },
        {
          "indexed": false,
          "internalType": "enum DisputeManager.DisputeOutcome",
          "name": "outcome",
          "type": "uint8"
        },
        {
          "indexed": true,
          "internalType": "address",
          "name": "resolvedBy",
          "type": "address"
        },
        {
          "indexed": false,
          "internalType": "string",
          "name": "adminNotes",
          "type": "string"
        }
      ],
      "name": "DisputeResolved",
      "type": "event"
    },
    {
      "inputs": [],
      "name": "DISPUTE_BOND_AMOUNT",
      "outputs": [
        {
          "internalType": "uint256",
          "name": "",
          "type": "uint256"
        }
      ],
      "stateMutability": "view",
      "type": "function"
    },
    {
      "inputs": [],
      "name": "DISPUTE_PERIOD_HOURS",
      "outputs": [
        {
          "internalType": "uint256",
          "name": "",
          "type": "uint256"
        }
      ],
      "stateMutability": "view",
      "type": "function"
    },
    {
      "inputs": [],
      "name": "adminManager",
      "outputs": [
        {
          "internalType": "contract AdminManager",
          "name": "",
          "type": "address"
        }
      ],
      "stateMutability": "view",
      "type": "function"
    },
    {
      "inputs": [],
      "name": "bondToken",
      "outputs": [
        {
          "internalType": "contract IERC20",
          "name": "",
          "type": "address"
        }
      ],
      "stateMutability": "view",
      "type": "function"
    },
    {
      "inputs": [
        {
          "internalType": "address",
          "name": "marketAddress",
          "type": "address"
        },
        {
          "internalType": "string",
          "name": "reason",
          "type": "string"
        },
        {
          "internalType": "string",
          "name": "evidence",
          "type": "string"
        },
        {
          "internalType": "bytes32",
          "name": "evidenceHash",
          "type": "bytes32"
        }
      ],
      "name": "createDispute",
      "outputs": [
        {
          "internalType": "uint256",
          "name": "",
          "type": "uint256"
        }
      ],
      "stateMutability": "nonpayable",
      "type": "function"
    },
    {
      "inputs": [
        {
          "internalType": "uint256",
          "name": "",
          "type": "uint256"
        }
      ],
      "name": "disputes",
      "outputs": [
        {
          "internalType": "uint256",
          "name": "id",
          "type": "uint256"
        },
        {
          "internalType": "address",
          "name": "disputer",
          "type": "address"
        },
        {
          "internalType": "address",
          "name": "marketAddress",
          "type": "address"
        },
        {
          "internalType": "uint256",
          "name": "bondAmount",
          "type": "uint256"
        },
        {
          "internalType": "string",
          "name": "evidence",
          "type": "string"
        },
        {
          "internalType": "string",
          "name": "reason",
          "type": "string"
        },
        {
          "internalType": "bytes32",
          "name": "evidenceHash",
          "type": "bytes32"
        },
        {
          "internalType": "uint256",
          "name": "createdAt",
          "type": "uint256"
        },
        {
          "internalType": "uint256",
          "name": "resolveBy",
          "type": "uint256"
        },
        {
          "internalType": "enum DisputeManager.DisputeStatus",
          "name": "status",
          "type": "uint8"
        },
        {
          "internalType": "enum DisputeManager.DisputeOutcome",
          "name": "outcome",
          "type": "uint8"
        },
        {
          "internalType": "address",
          "name": "resolvedBy",
          "type": "address"
        },
        {
          "internalType": "uint256",
          "name": "resolvedAt",
          "type": "uint256"
        },
        {
          "internalType": "string",
          "name": "adminNotes",
          "type": "string"
        }
      ],
      "stateMutability": "view",
      "type": "function"
    },
    {
      "inputs": [
        {
          "internalType": "address",
          "name": "",
          "type": "address"
        },
        {
          "internalType": "uint256",
          "name": "",
          "type": "uint256"
        }
      ],
      "name": "disputesByMarket",
      "outputs": [
        {
          "internalType": "uint256",
          "name": "",
          "type": "uint256"
        }
      ],
      "stateMutability": "view",
      "type": "function"
    },
    {
      "inputs": [
        {
          "internalType": "address",
          "name": "",
          "type": "address"
        },
        {
          "internalType": "uint256",
          "name": "",
          "type": "uint256"
        }
      ],
      "name": "disputesByUser",
      "outputs": [
        {
          "internalType": "uint256",
          "name": "",
          "type": "uint256"
        }
      ],
      "stateMutability": "view",
      "type": "function"
    },
    {
      "inputs": [
        {
          "internalType": "address",
          "name": "token",
          "type": "address"
        },
        {
          "internalType": "uint256",
          "name": "amount",
          "type": "uint256"
        }
      ],
      "name": "emergencyRecoverTokens",
      "outputs": [],
      "stateMutability": "nonpayable",
      "type": "function"
    },
    {
      "inputs": [],
      "name": "getActiveDisputes",
      "outputs": [
        {
          "internalType": "uint256[]",
          "name": "",
          "type": "uint256[]"
        }
      ],
      "stateMutability": "view",
      "type": "function"
    },
    {
      "inputs": [
        {
          "internalType": "uint256",
          "name": "disputeId",
          "type": "uint256"
        }
      ],
      "name": "getDispute",
      "outputs": [
        {
          "components": [
            {
              "internalType": "uint256",
              "name": "id",
              "type": "uint256"
            },
            {
              "internalType": "address",
              "name": "disputer",
              "type": "address"
            },
            {
              "internalType": "address",
              "name": "marketAddress",
              "type": "address"
            },
            {
              "internalType": "uint256",
              "name": "bondAmount",
              "type": "uint256"
            },
            {
              "internalType": "string",
              "name": "evidence",
              "type": "string"
            },
            {
              "internalType": "string",
              "name": "reason",
              "type": "string"
            },
            {
              "internalType": "bytes32",
              "name": "evidenceHash",
              "type": "bytes32"
            },
            {
              "internalType": "uint256",
              "name": "createdAt",
              "type": "uint256"
            },
            {
              "internalType": "uint256",
              "name": "resolveBy",
              "type": "uint256"
            },
            {
              "internalType": "enum DisputeManager.DisputeStatus",
              "name": "status",
              "type": "uint8"
            },
            {
              "internalType": "enum DisputeManager.DisputeOutcome",
              "name": "outcome",
              "type": "uint8"
            },
            {
              "internalType": "address",
              "name": "resolvedBy",
              "type": "address"
            },
            {
              "internalType": "uint256",
              "name": "resolvedAt",
              "type": "uint256"
            },
            {
              "internalType": "string",
              "name": "adminNotes",
              "type": "string"
            }
          ],
          "internalType": "struct DisputeManager.Dispute",
          "name": "",
          "type": "tuple"
        }
      ],
      "stateMutability": "view",
      "type": "function"
    },
    {
      "inputs": [
        {
          "internalType": "address",
          "name": "marketAddress",
          "type": "address"
        }
      ],
      "name": "getMarketDisputes",
      "outputs": [
        {
          "internalType": "uint256[]",
          "name": "",
          "type": "uint256[]"
        }
      ],
      "stateMutability": "view",
      "type": "function"
    },
    {
      "inputs": [
        {
          "internalType": "address",
          "name": "user",
          "type": "address"
        }
      ],
      "name": "getUserActiveBonds",
      "outputs": [
        {
          "internalType": "uint256",
          "name": "",
          "type": "uint256"
        }
      ],
      "stateMutability": "view",
      "type": "function"
    },
    {
      "inputs": [
        {
          "internalType": "address",
          "name": "user",
          "type": "address"
        }
      ],
      "name": "getUserDisputes",
      "outputs": [
        {
          "internalType": "uint256[]",
          "name": "",
          "type": "uint256[]"
        }
      ],
      "stateMutability": "view",
      "type": "function"
    },
    {
      "inputs": [
        {
          "internalType": "address",
          "name": "marketAddress",
          "type": "address"
        }
      ],
      "name": "hasActiveDisputes",
      "outputs": [
        {
          "internalType": "bool",
          "name": "",
          "type": "bool"
        }
      ],
      "stateMutability": "view",
      "type": "function"
    },
    {
      "inputs": [
        {
          "internalType": "uint256",
          "name": "disputeId",
          "type": "uint256"
        }
      ],
      "name": "markDisputeExpired",
      "outputs": [],
      "stateMutability": "nonpayable",
      "type": "function"
    },
    {
      "inputs": [
        {
          "internalType": "uint256",
          "name": "disputeId",
          "type": "uint256"
        },
        {
          "internalType": "enum DisputeManager.DisputeOutcome",
          "name": "outcome",
          "type": "uint8"
        },
        {
          "internalType": "string",
          "name": "adminNotes",
          "type": "string"
        }
      ],
      "name": "resolveDispute",
      "outputs": [],
      "stateMutability": "nonpayable",
      "type": "function"
    },
    {
      "inputs": [
        {
          "internalType": "address",
          "name": "newAdminManager",
          "type": "address"
        }
      ],
      "name": "updateAdminManager",
      "outputs": [],
      "stateMutability": "nonpayable",
      "type": "function"
    },
    {
      "inputs": [
        {
          "internalType": "address",
          "name": "",
          "type": "address"
        }
      ],
      "name": "userActiveBonds",
      "outputs": [
        {
          "internalType": "uint256",
          "name": "",
          "type": "uint256"
        }
      ],
      "stateMutability": "view",
      "type": "function"
    }
  ],
  "bytecode": "0x608060405234801562000010575f80fd5b5060405162002d7938038062002d79833981016040819052620000339162000152565b60015f556001600160a01b038216620000a15760405162461bcd60e51b815260206004820152602560248201527f446973707574654d616e616765723a20496e76616c69642061646d696e206d616044820152643730b3b2b960d91b60648201526084015b60405180910390fd5b6001600160a01b038116620001045760405162461bcd60e51b815260206004820152602260248201527f446973707574654d616e616765723a20496e76616c696420626f6e6420746f6b60448201526132b760f11b606482015260840162000098565b600180546001600160a01b039384166001600160a01b0319918216179091556002805492909316911617905562000188565b80516001600160a01b03811681146200014d575f80fd5b919050565b5f806040838503121562000164575f80fd5b6200016f8362000136565b91506200017f6020840162000136565b90509250929050565b612be380620001965f395ff3fe608060405234801561000f575f80fd5b506004361061011c575f3560e01c806373954e79116100a9578063bfb0a55b1161006e578063bfb0a55b14610285578063c28f439214610298578063c316939c146102ab578063d82224d6146102be578063e3a96cbd146102e1575f80fd5b806373954e79146101ed5780638b889bb6146102155780638c0231e2146102285780638c62e59414610247578063a210b6a41461025a575f80fd5b80633dcd2c1d116100ef5780633dcd2c1d146101725780633f64d85914610187578063564a565d1461019a5780636e795bbe146101c75780636eceae2c146101da575f80fd5b8063036351701461012057806303a09d18146101465780630457eeff1461015b57806325733dae14610163575b5f80fd5b61013361012e366004612365565b610301565b6040519081526020015b60405180910390f35b61014e61032c565b60405161013d919061238d565b61013360a881565b610133670de0b6b3a764000081565b610185610180366004612365565b6104ab565b005b610133610195366004612415565b61061e565b6101ad6101a8366004612498565b611155565b60405161013d9e9d9c9b9a9998979695949392919061252a565b6101856101d5366004612498565b611371565b6101336101e8366004612365565b6115b2565b6101336101fb3660046125eb565b6001600160a01b03165f9081526007602052604090205490565b61014e6102233660046125eb565b6115cb565b6101336102363660046125eb565b60076020525f908152604090205481565b6101856102553660046125eb565b611634565b60015461026d906001600160a01b031681565b6040516001600160a01b03909116815260200161013d565b61014e6102933660046125eb565b611740565b60025461026d906001600160a01b031681565b6101856102b936600461260b565b6117a7565b6102d16102cc3660046125eb565b611c20565b604051901515815260200161013d565b6102f46102ef366004612498565b611fc9565b60405161013d9190612666565b6005602052815f5260405f20818154811061031a575f80fd5b905f5260205f20015f91509150505481565b6003546060905f8167ffffffffffffffff81111561034c5761034c612786565b604051908082528060200260200182016040528015610375578160200160208202803683370190505b5090505f60015b838111610408575f8181526004602052604081206009015460ff1660038111156103a8576103a86124f2565b1480156103c557505f818152600460205260409020600801544211155b156103f657808383815181106103dd576103dd61279a565b6020908102919091010152816103f2816127c2565b9250505b80610400816127c2565b91505061037c565b505f8167ffffffffffffffff81111561042357610423612786565b60405190808252806020026020018201604052801561044c578160200160208202803683370190505b5090505f5b828110156104a25783818151811061046b5761046b61279a565b60200260200101518282815181106104855761048561279a565b60209081029190910101528061049a816127c2565b915050610451565b50949350505050565b600154604051630935e01b60e21b81523360048201526001600160a01b03909116906324d7806c90602401602060405180830381865afa1580156104f1573d5f803e3d5ffd5b505050506040513d601f19601f8201168201806040525081019061051591906127da565b61053a5760405162461bcd60e51b8152600401610531906127f9565b60405180910390fd5b6002546001600160a01b03908116908316036105ab5760405162461bcd60e51b815260206004820152602a60248201527f446973707574654d616e616765723a2043616e6e6f74207265636f76657220626044820152696f6e6420746f6b656e7360b01b6064820152608401610531565b60405163a9059cbb60e01b8152336004820152602481018290526001600160a01b0383169063a9059cbb906044016020604051808303815f875af11580156105f5573d5f803e3d5ffd5b505050506040513d601f19601f8201168201806040525081019061061991906127da565b505050565b5f866001600160a01b0381166106855760405162461bcd60e51b815260206004820152602660248201527f446973707574654d616e616765723a20496e76616c6964206d61726b6574206160448201526564647265737360d01b6064820152608401610531565b61068d612322565b600a86116106dd5760405162461bcd60e51b815260206004820181905260248201527f446973707574654d616e616765723a20526561736f6e20746f6f2073686f72746044820152606401610531565b601484116107385760405162461bcd60e51b815260206004820152602260248201527f446973707574654d616e616765723a2045766964656e636520746f6f2073686f6044820152611c9d60f21b6064820152608401610531565b5f889050806001600160a01b0316632284a82f6040518163ffffffff1660e01b8152600401602060405180830381865afa158015610778573d5f803e3d5ffd5b505050506040513d601f19601f8201168201806040525081019061079c91906127da565b6107ff5760405162461bcd60e51b815260206004820152602e60248201527f446973707574654d616e616765723a204d61726b6574206e6f7420696e20646960448201526d7370757461626c6520737461746560901b6064820152608401610531565b6002546040516370a0823160e01b8152336004820152670de0b6b3a7640000916001600160a01b0316906370a0823190602401602060405180830381865afa15801561084d573d5f803e3d5ffd5b505050506040513d601f19601f820116820180604052508101906108719190612830565b10156108d55760405162461bcd60e51b815260206004820152602d60248201527f446973707574654d616e616765723a20496e73756666696369656e742062616c60448201526c185b98d948199bdc88189bdb99609a1b6064820152608401610531565b6001600160a01b0389165f9081526006602090815260408083208054825181850281018501909352808352919290919083018282801561093257602002820191905f5260205f20905b81548152602001906001019080831161091e575b505050505090505f5b8151811015610cda575f60045f84848151811061095a5761095a61279a565b60209081029190910181015182528181019290925260409081015f2081516101c0810183528154815260018201546001600160a01b0390811694820194909452600282015490931691830191909152600381015460608301526004810180546080840191906109c890612847565b80601f01602080910402602001604051908101604052809291908181526020018280546109f490612847565b8015610a3f5780601f10610a1657610100808354040283529160200191610a3f565b820191905f5260205f20905b815481529060010190602001808311610a2257829003601f168201915b50505050508152602001600582018054610a5890612847565b80601f0160208091040260200160405190810160405280929190818152602001828054610a8490612847565b8015610acf5780601f10610aa657610100808354040283529160200191610acf565b820191905f5260205f20905b815481529060010190602001808311610ab257829003601f168201915b5050509183525050600682015460208201526007820154604082015260088201546060820152600982015460809091019060ff166003811115610b1457610b146124f2565b6003811115610b2557610b256124f2565b81526020016009820160019054906101000a900460ff166002811115610b4d57610b4d6124f2565b6002811115610b5e57610b5e6124f2565b815260098201546201000090046001600160a01b03166020820152600a8201546040820152600b82018054606090920191610b9890612847565b80601f0160208091040260200160405190810160405280929190818152602001828054610bc490612847565b8015610c0f5780601f10610be657610100808354040283529160200191610c0f565b820191905f5260205f20905b815481529060010190602001808311610bf257829003601f168201915b5050505050815250509050336001600160a01b031681602001516001600160a01b0316141580610c5557505f8161012001516003811115610c5257610c526124f2565b14155b610cc75760405162461bcd60e51b815260206004820152603f60248201527f446973707574654d616e616765723a205573657220616c72656164792068617360448201527f20616374697665206469737075746520666f722074686973206d61726b6574006064820152608401610531565b5080610cd2816127c2565b91505061093b565b506002546040516323b872dd60e01b8152336004820152306024820152670de0b6b3a764000060448201526001600160a01b03909116906323b872dd906064016020604051808303815f875af1158015610d36573d5f803e3d5ffd5b505050506040513d601f19601f82011682018060405250810190610d5a91906127da565b610db25760405162461bcd60e51b8152602060048201526024808201527f446973707574654d616e616765723a20426f6e64207472616e736665722066616044820152631a5b195960e21b6064820152608401610531565b60038054905f610dc1836127c2565b90915550506003545f610dd760a8610e10612879565b610de19042612896565b9050604051806101c00160405280838152602001336001600160a01b031681526020018d6001600160a01b03168152602001670de0b6b3a764000081526020018a8a8080601f0160208091040260200160405190810160405280939291908181526020018383808284375f92019190915250505090825250604080516020601f8f018190048102820181019092528d815291810191908e908e90819084018382808284375f920182905250938552505050602082018a90524260408301526060820184905260809091019081526020015f81525f602080830182905260408084018390528051808301825283815260609485015286835260048083529281902085518155918501516001830180546001600160a01b03199081166001600160a01b0393841617909155918601516002840180549093169116179055918301516003830155608083015190820190610f3890826128ee565b5060a08201516005820190610f4d90826128ee565b5060c0820151600682015560e08201516007820155610100820151600882015561012082015160098201805460ff19166001836003811115610f9157610f916124f2565b021790555061014082015160098201805461ff001916610100836002811115610fbc57610fbc6124f2565b02179055506101608201516009820180546001600160a01b03909216620100000262010000600160b01b0319909216919091179055610180820151600a8201556101a0820151600b82019061101190826128ee565b5090505060055f336001600160a01b03166001600160a01b031681526020019081526020015f2082908060018154018082558091505060019003905f5260205f20015f909190919091505560065f8d6001600160a01b03166001600160a01b031681526020019081526020015f2082908060018154018082558091505060019003905f5260205f20015f9091909190915055670de0b6b3a764000060075f336001600160a01b03166001600160a01b031681526020019081526020015f205f8282546110dd9190612896565b925050819055508b6001600160a01b0316336001600160a01b0316837f181c24d3031a458c8583ca42c7567d2a0390531903555ee75f857f7b62ecb1ed670de0b6b3a76400008f8f604051611134939291906129d2565b60405180910390a4509350505061114a60015f55565b509695505050505050565b600460208190525f91825260409091208054600182015460028301546003840154948401805493956001600160a01b0393841695929093169361119790612847565b80601f01602080910402602001604051908101604052809291908181526020018280546111c390612847565b801561120e5780601f106111e55761010080835404028352916020019161120e565b820191905f5260205f20905b8154815290600101906020018083116111f157829003601f168201915b50505050509080600501805461122390612847565b80601f016020809104026020016040519081016040528092919081815260200182805461124f90612847565b801561129a5780601f106112715761010080835404028352916020019161129a565b820191905f5260205f20905b81548152906001019060200180831161127d57829003601f168201915b505050506006830154600784015460088501546009860154600a870154600b8801805497989597949650929460ff80841695610100850490911694620100009094046001600160a01b031693906112f090612847565b80601f016020809104026020016040519081016040528092919081815260200182805461131c90612847565b80156113675780601f1061133e57610100808354040283529160200191611367565b820191905f5260205f20905b81548152906001019060200180831161134a57829003601f168201915b505050505090508e565b5f8181526004602052604081205482910361139e5760405162461bcd60e51b8152600401610531906129f4565b5f82815260046020526040812090600982015460ff1660038111156113c5576113c56124f2565b146113e25760405162461bcd60e51b815260040161053190612a3a565b806008015442116114485760405162461bcd60e51b815260206004820152602a60248201527f446973707574654d616e616765723a204469737075746520706572696f64206e6044820152691bdd08195e1c1a5c995960b21b6064820152608401610531565b60098101805460ff1916600390811790915581015460018201546001600160a01b03165f9081526007602052604081208054909190611488908490612a7c565b90915550506002546001820154600383015460405163a9059cbb60e01b81526001600160a01b039283166004820152602481019190915291169063a9059cbb906044016020604051808303815f875af11580156114e7573d5f803e3d5ffd5b505050506040513d601f19601f8201168201806040525081019061150b91906127da565b6115275760405162461bcd60e51b815260040161053190612a8f565b60028101546040516001600160a01b039091169084907fca61d52f34a455bd736029c7edaab0d24d68fff479da8a27d6f7ed9aeb319925905f90a3600181015460038201546040519081526001600160a01b039091169084907f5042ec6be4814281f6554f4e4f4f75cdc6eb4e4ce0efef7b0f9bd3d4a40428c99060200160405180910390a3505050565b6006602052815f5260405f20818154811061031a575f80fd5b6001600160a01b0381165f9081526006602090815260409182902080548351818402810184019094528084526060939283018282801561162857602002820191905f5260205f20905b815481526020019060010190808311611614575b50505050509050919050565b600154604051630935e01b60e21b81523360048201526001600160a01b03909116906324d7806c90602401602060405180830381865afa15801561167a573d5f803e3d5ffd5b505050506040513d601f19601f8201168201806040525081019061169e91906127da565b6116ba5760405162461bcd60e51b8152600401610531906127f9565b6001600160a01b03811661171e5760405162461bcd60e51b815260206004820152602560248201527f446973707574654d616e616765723a20496e76616c69642061646d696e206d616044820152643730b3b2b960d91b6064820152608401610531565b600180546001600160a01b0319166001600160a01b0392909216919091179055565b6001600160a01b0381165f9081526005602090815260409182902080548351818402810184019094528084526060939283018282801561162857602002820191905f5260205f20908154815260200190600101908083116116145750505050509050919050565b600154604051630935e01b60e21b81523360048201526001600160a01b03909116906324d7806c90602401602060405180830381865afa1580156117ed573d5f803e3d5ffd5b505050506040513d601f19601f8201168201806040525081019061181191906127da565b61182d5760405162461bcd60e51b8152600401610531906127f9565b5f8481526004602052604081205485910361185a5760405162461bcd60e51b8152600401610531906129f4565b845f808281526004602052604090206009015460ff166003811115611881576118816124f2565b1461189e5760405162461bcd60e51b815260040161053190612a3a565b5f8181526004602052604090206008015442111561190d5760405162461bcd60e51b815260206004820152602660248201527f446973707574654d616e616765723a204469737075746520706572696f6420656044820152651e1c1a5c995960d21b6064820152608401610531565b611915612322565b5f856002811115611928576119286124f2565b036119755760405162461bcd60e51b815260206004820152601f60248201527f446973707574654d616e616765723a20496e76616c6964206f7574636f6d65006044820152606401610531565b600583116119d15760405162461bcd60e51b8152602060048201526024808201527f446973707574654d616e616765723a2041646d696e206e6f74657320726571756044820152631a5c995960e21b6064820152608401610531565b5f868152600460205260409020600981018054600160ff1982168117835588929161ffff191617610100836002811115611a0d57611a0d6124f2565b021790555060098101805462010000600160b01b03191633620100000217905542600a820155600b8101611a42858783612ad1565b50600381015460018201546001600160a01b03165f9081526007602052604081208054909190611a73908490612a7c565b9091555060019050866002811115611a8d57611a8d6124f2565b03611b7c576002546001820154600383015460405163a9059cbb60e01b81526001600160a01b039283166004820152602481019190915291169063a9059cbb906044016020604051808303815f875af1158015611aec573d5f803e3d5ffd5b505050506040513d601f19601f82011682018060405250810190611b1091906127da565b611b2c5760405162461bcd60e51b815260040161053190612a8f565b600181015460038201546040519081526001600160a01b039091169088907f5042ec6be4814281f6554f4e4f4f75cdc6eb4e4ce0efef7b0f9bd3d4a40428c99060200160405180910390a3611bc8565b600181015460038201546040519081526001600160a01b039091169088907f16dd876919f5a1d3a62d34d0c40f4f6bd9f269ef564d21d1939452cd57f50b849060200160405180910390a35b336001600160a01b0316877f5da486cab6a1910eb90036db1524819f88f18b7fef20ff00177a1e5bb023e758888888604051611c0693929190612b8d565b60405180910390a350611c1860015f55565b505050505050565b6001600160a01b0381165f90815260066020908152604080832080548251818502810185019093528083528493830182828015611c7a57602002820191905f5260205f20905b815481526020019060010190808311611c66575b505050505090505f5b8151811015611fc0575f60045f848481518110611ca257611ca261279a565b60209081029190910181015182528181019290925260409081015f2081516101c0810183528154815260018201546001600160a01b039081169482019490945260028201549093169183019190915260038101546060830152600481018054608084019190611d1090612847565b80601f0160208091040260200160405190810160405280929190818152602001828054611d3c90612847565b8015611d875780601f10611d5e57610100808354040283529160200191611d87565b820191905f5260205f20905b815481529060010190602001808311611d6a57829003601f168201915b50505050508152602001600582018054611da090612847565b80601f0160208091040260200160405190810160405280929190818152602001828054611dcc90612847565b8015611e175780601f10611dee57610100808354040283529160200191611e17565b820191905f5260205f20905b815481529060010190602001808311611dfa57829003601f168201915b5050509183525050600682015460208201526007820154604082015260088201546060820152600982015460809091019060ff166003811115611e5c57611e5c6124f2565b6003811115611e6d57611e6d6124f2565b81526020016009820160019054906101000a900460ff166002811115611e9557611e956124f2565b6002811115611ea657611ea66124f2565b815260098201546201000090046001600160a01b03166020820152600a8201546040820152600b82018054606090920191611ee090612847565b80601f0160208091040260200160405190810160405280929190818152602001828054611f0c90612847565b8015611f575780601f10611f2e57610100808354040283529160200191611f57565b820191905f5260205f20905b815481529060010190602001808311611f3a57829003601f168201915b50505050508152505090505f6003811115611f7457611f746124f2565b8161012001516003811115611f8b57611f8b6124f2565b148015611f9d57508061010001514211155b15611fad57506001949350505050565b5080611fb8816127c2565b915050611c83565b505f9392505050565b612037604080516101c0810182525f8082526020820181905291810182905260608082018390526080820181905260a082015260c0810182905260e0810182905261010081018290529061012082019081526020015f81525f60208201819052604082015260609081015290565b5f828152600460205260408120548391036120645760405162461bcd60e51b8152600401610531906129f4565b5f8381526004602081815260409283902083516101c0810185528154815260018201546001600160a01b03908116938201939093526002820154909216938201939093526003830154606082015290820180549192916080840191906120c990612847565b80601f01602080910402602001604051908101604052809291908181526020018280546120f590612847565b80156121405780601f1061211757610100808354040283529160200191612140565b820191905f5260205f20905b81548152906001019060200180831161212357829003601f168201915b5050505050815260200160058201805461215990612847565b80601f016020809104026020016040519081016040528092919081815260200182805461218590612847565b80156121d05780601f106121a7576101008083540402835291602001916121d0565b820191905f5260205f20905b8154815290600101906020018083116121b357829003601f168201915b5050509183525050600682015460208201526007820154604082015260088201546060820152600982015460809091019060ff166003811115612215576122156124f2565b6003811115612226576122266124f2565b81526020016009820160019054906101000a900460ff16600281111561224e5761224e6124f2565b600281111561225f5761225f6124f2565b815260098201546201000090046001600160a01b03166020820152600a8201546040820152600b8201805460609092019161229990612847565b80601f01602080910402602001604051908101604052809291908181526020018280546122c590612847565b80156123105780601f106122e757610100808354040283529160200191612310565b820191905f5260205f20905b8154815290600101906020018083116122f357829003601f168201915b50505050508152505091505b50919050565b60025f540361234457604051633ee5aeb560e01b815260040160405180910390fd5b60025f55565b80356001600160a01b0381168114612360575f80fd5b919050565b5f8060408385031215612376575f80fd5b61237f8361234a565b946020939093013593505050565b602080825282518282018190525f9190848201906040850190845b818110156123c4578351835292840192918401916001016123a8565b50909695505050505050565b5f8083601f8401126123e0575f80fd5b50813567ffffffffffffffff8111156123f7575f80fd5b60208301915083602082850101111561240e575f80fd5b9250929050565b5f805f805f806080878903121561242a575f80fd5b6124338761234a565b9550602087013567ffffffffffffffff8082111561244f575f80fd5b61245b8a838b016123d0565b90975095506040890135915080821115612473575f80fd5b5061248089828a016123d0565b979a9699509497949695606090950135949350505050565b5f602082840312156124a8575f80fd5b5035919050565b5f81518084525f5b818110156124d3576020818501810151868301820152016124b7565b505f602082860101526020601f19601f83011685010191505092915050565b634e487b7160e01b5f52602160045260245ffd5b60048110612516576125166124f2565b9052565b60038110612516576125166124f2565b8e81526001600160a01b038e1660208201526001600160a01b038d1660408201528b60608201526101c060808201525f6125686101c083018d6124af565b82810360a084015261257a818d6124af565b90508a60c08401528960e08401528861010084015261259d610120840189612506565b6125ab61014084018861251a565b6001600160a01b038616610160840152846101808401528281036101a08401526125d581856124af565b9150509f9e505050505050505050505050505050565b5f602082840312156125fb575f80fd5b6126048261234a565b9392505050565b5f805f806060858703121561261e575f80fd5b84359350602085013560038110612633575f80fd5b9250604085013567ffffffffffffffff81111561264e575f80fd5b61265a878288016123d0565b95989497509550505050565b60208152815160208201525f602083015161268c60408401826001600160a01b03169052565b5060408301516001600160a01b0381166060840152506060830151608083015260808301516101c08060a08501526126c86101e08501836124af565b915060a0850151601f19808685030160c08701526126e684836124af565b935060c087015160e087015260e0870151915061010082818801528088015192505061012082818801528088015192505061014061272681880184612506565b870151915061016061273a8782018461251a565b8701519150610180612756878201846001600160a01b03169052565b8701516101a08781019190915287015186850390910183870152905061277c83826124af565b9695505050505050565b634e487b7160e01b5f52604160045260245ffd5b634e487b7160e01b5f52603260045260245ffd5b634e487b7160e01b5f52601160045260245ffd5b5f600182016127d3576127d36127ae565b5060010190565b5f602082840312156127ea575f80fd5b81518015158114612604575f80fd5b6020808252601a908201527f446973707574654d616e616765723a204f6e6c792061646d696e000000000000604082015260600190565b5f60208284031215612840575f80fd5b5051919050565b600181811c9082168061285b57607f821691505b60208210810361231c57634e487b7160e01b5f52602260045260245ffd5b8082028115828204841417612890576128906127ae565b92915050565b80820180821115612890576128906127ae565b601f821115610619575f81815260208120601f850160051c810160208610156128cf5750805b601f850160051c820191505b81811015611c18578281556001016128db565b815167ffffffffffffffff81111561290857612908612786565b61291c816129168454612847565b846128a9565b602080601f83116001811461294f575f84156129385750858301515b5f19600386901b1c1916600185901b178555611c18565b5f85815260208120601f198616915b8281101561297d5788860151825594840194600190910190840161295e565b508582101561299a57878501515f19600388901b60f8161c191681555b5050505050600190811b01905550565b81835281816020850137505f828201602090810191909152601f909101601f19169091010190565b838152604060208201525f6129eb6040830184866129aa565b95945050505050565b60208082526026908201527f446973707574654d616e616765723a204469737075746520646f6573206e6f7460408201526508195e1a5cdd60d21b606082015260800190565b60208082526022908201527f446973707574654d616e616765723a2044697370757465206e6f742061637469604082015261766560f01b606082015260800190565b81810381811115612890576128906127ae565b60208082526022908201527f446973707574654d616e616765723a20426f6e642072657475726e206661696c604082015261195960f21b606082015260800190565b67ffffffffffffffff831115612ae957612ae9612786565b612afd83612af78354612847565b836128a9565b5f601f841160018114612b2e575f8515612b175750838201355b5f19600387901b1c1916600186901b178355612b86565b5f83815260209020601f19861690835b82811015612b5e5786850135825560209485019460019092019101612b3e565b5086821015612b7a575f1960f88860031b161c19848701351681555b505060018560011b0183555b5050505050565b612b97818561251a565b604060208201525f6129eb6040830184866129aa56fea2646970667358221220a0161ed900de897b1980e718b0b9155fb060f585d7713c7ad130e4a7b7459f0c64736f6c63430008140033",
  "linkReferences": {},
  "deployedLinkReferences": {},
  "immutableReferences": {},
  "inputSourceName": "project/contracts/DisputeManager.sol",
  "buildInfoId": "solc-0_8_20-ae6ce6d7e32a32260c0a423de9eeebe654c4232a"
}