{
  "_format": "hh3-artifact-1",
  "contractName": "BuyCAST",
  "sourceName": "contracts/BuyCAST.sol",
  "abi": [
    {
      "inputs": [
        {
          "internalType": "address",
          "name": "_castTokenAddress",
          "type": "address"
        }
      ],
      "stateMutability": "nonpayable",
      "type": "constructor"
    },
    {
      "anonymous": false,
      "inputs": [
        {
          "indexed": true,
          "internalType": "address",
          "name": "buyer",
          "type": "address"
        },
        {
          "indexed": false,
          "internalType": "uint256",
          "name": "hbarAmount",
          "type": "uint256"
        },
        {
          "indexed": false,
          "internalType": "uint256",
          "name": "castAmount",
          "type": "uint256"
        }
      ],
      "name": "CastPurchased",
      "type": "event"
    },
    {
      "anonymous": false,
      "inputs": [
        {
          "indexed": false,
          "internalType": "string",
          "name": "message",
          "type": "string"
        },
        {
          "indexed": false,
          "internalType": "uint256",
          "name": "value",
          "type": "uint256"
        }
      ],
      "name": "Debug",
      "type": "event"
    },
    {
      "anonymous": false,
      "inputs": [
        {
          "indexed": false,
          "internalType": "uint256",
          "name": "newRate",
          "type": "uint256"
        }
      ],
      "name": "ExchangeRateUpdated",
      "type": "event"
    },
    {
      "inputs": [],
      "name": "EXCHANGE_RATE",
      "outputs": [
        {
          "internalType": "uint256",
          "name": "",
          "type": "uint256"
        }
      ],
      "stateMutability": "view",
      "type": "function"
    },
    {
      "inputs": [],
      "name": "MAX_PURCHASE",
      "outputs": [
        {
          "internalType": "uint256",
          "name": "",
          "type": "uint256"
        }
      ],
      "stateMutability": "view",
      "type": "function"
    },
    {
      "inputs": [],
      "name": "MIN_PURCHASE",
      "outputs": [
        {
          "internalType": "uint256",
          "name": "",
          "type": "uint256"
        }
      ],
      "stateMutability": "view",
      "type": "function"
    },
    {
      "inputs": [],
      "name": "buyCAST",
      "outputs": [],
      "stateMutability": "payable",
      "type": "function"
    },
    {
      "inputs": [
        {
          "internalType": "uint256",
          "name": "amountHBAR",
          "type": "uint256"
        }
      ],
      "name": "buyCAST",
      "outputs": [],
      "stateMutability": "payable",
      "type": "function"
    },
    {
      "inputs": [],
      "name": "castToken",
      "outputs": [
        {
          "internalType": "contract CastToken",
          "name": "",
          "type": "address"
        }
      ],
      "stateMutability": "view",
      "type": "function"
    },
    {
      "inputs": [
        {
          "internalType": "uint256",
          "name": "hbarAmount",
          "type": "uint256"
        }
      ],
      "name": "getCastAmount",
      "outputs": [
        {
          "internalType": "uint256",
          "name": "",
          "type": "uint256"
        }
      ],
      "stateMutability": "pure",
      "type": "function"
    },
    {
      "inputs": [],
      "name": "getExchangeRate",
      "outputs": [
        {
          "internalType": "uint256",
          "name": "",
          "type": "uint256"
        }
      ],
      "stateMutability": "pure",
      "type": "function"
    },
    {
      "inputs": [],
      "name": "getHBARBalance",
      "outputs": [
        {
          "internalType": "uint256",
          "name": "",
          "type": "uint256"
        }
      ],
      "stateMutability": "view",
      "type": "function"
    },
    {
      "inputs": [],
      "name": "getInfo",
      "outputs": [
        {
          "internalType": "address",
          "name": "castTokenAddress",
          "type": "address"
        },
        {
          "internalType": "uint256",
          "name": "exchangeRate",
          "type": "uint256"
        },
        {
          "internalType": "uint256",
          "name": "minPurchase",
          "type": "uint256"
        },
        {
          "internalType": "uint256",
          "name": "maxPurchase",
          "type": "uint256"
        },
        {
          "internalType": "uint256",
          "name": "contractBalance",
          "type": "uint256"
        }
      ],
      "stateMutability": "view",
      "type": "function"
    },
    {
      "inputs": [],
      "name": "owner",
      "outputs": [
        {
          "internalType": "address",
          "name": "",
          "type": "address"
        }
      ],
      "stateMutability": "view",
      "type": "function"
    },
    {
      "inputs": [
        {
          "internalType": "address",
          "name": "newOwner",
          "type": "address"
        }
      ],
      "name": "transferOwnership",
      "outputs": [],
      "stateMutability": "nonpayable",
      "type": "function"
    },
    {
      "inputs": [
        {
          "internalType": "address payable",
          "name": "to",
          "type": "address"
        },
        {
          "internalType": "uint256",
          "name": "amount",
          "type": "uint256"
        }
      ],
      "name": "withdrawHBAR",
      "outputs": [],
      "stateMutability": "nonpayable",
      "type": "function"
    },
    {
      "stateMutability": "payable",
      "type": "receive"
    }
  ],
  "bytecode": "0x60a060405234801561000f575f80fd5b50604051610d36380380610d3683398101604081905261002e91610050565b6001600160a01b03166080525f80546001600160a01b0319163317905561007d565b5f60208284031215610060575f80fd5b81516001600160a01b0381168114610076575f80fd5b9392505050565b608051610c856100b15f395f81816101ef01528181610300015281816103ee015281816105e801526108520152610c855ff3fe6080604052600436106100c2575f3560e01c80638da5cb5b1161007c578063dfb6695311610057578063dfb66953146103dd578063e44fa8a014610410578063e6aa216c1461042f578063f2fde38b14610449575f80fd5b80638da5cb5b1461037e578063b16a2f2f146103b4578063d439390c146103c7575f80fd5b806314a8bd0d1461028f5780631ae43f2f146102bd57806334a78b49146102c75780635a9b0b89146102e65780637146bd0814610354578063868dc1971461036c575f80fd5b3661028b576040805181815260138183015272726563656976652829206d73672e76616c756560681b606082015234602082015290515f80516020610c308339815191529181900360800190a16040805181815260168183015275726563656976652829204d494e5f505552434841534560501b6060820152620f4240602082015290515f80516020610c308339815191529181900360800190a1620f42403410156101895760405162461bcd60e51b815260040161018090610b17565b60405180910390fd5b64174876e8003411156101ae5760405162461bcd60e51b815260040161018090610b45565b5f6305f5e1006101c634670de0b6b3a7640000610b73565b6101d09190610b96565b6040516340c10f1960e01b8152336004820152602481018290529091507f00000000000000000000000000000000000000000000000000000000000000006001600160a01b0316906340c10f19906044015f604051808303815f87803b158015610238575f80fd5b505af115801561024a573d5f803e3d5ffd5b505060408051348152602081018590523393507fb65d4debb92b11726c3478ec5624c47542849c62a0622a377ae38e959789eb8b92500160405180910390a2005b5f80fd5b34801561029a575f80fd5b506102aa670de0b6b3a764000081565b6040519081526020015b60405180910390f35b6102c5610468565b005b3480156102d2575f80fd5b506102aa6102e1366004610bb5565b610685565b3480156102f1575f80fd5b50604080516001600160a01b037f0000000000000000000000000000000000000000000000000000000000000000168152670de0b6b3a76400006020820152620f42409181019190915264174876e800606082015247608082015260a0016102b4565b34801561035f575f80fd5b506102aa64174876e80081565b348015610377575f80fd5b50476102aa565b348015610389575f80fd5b505f5461039c906001600160a01b031681565b6040516001600160a01b0390911681526020016102b4565b6102c56103c2366004610bb5565b6106a9565b3480156103d2575f80fd5b506102aa620f424081565b3480156103e8575f80fd5b5061039c7f000000000000000000000000000000000000000000000000000000000000000081565b34801561041b575f80fd5b506102c561042a366004610be3565b6108f0565b34801561043a575f80fd5b50670de0b6b3a76400006102aa565b348015610454575f80fd5b506102c5610463366004610c0d565b610a68565b6040805181815260138183015272627579434153542829206d73672e76616c756560681b606082015234602082015290515f80516020610c308339815191529181900360800190a16040805181815260168183015275627579434153542829204d494e5f505552434841534560501b6060820152620f4240602082015290515f80516020610c308339815191529181900360800190a15f80516020610c30833981519152620f424034101561051d575f610520565b60015b6040805181815260148183015273313abca1a0a9aa14149031b7b6b830b934b9b7b760611b606082015260ff929092166020830152519081900360800190a1620f42403410156105825760405162461bcd60e51b815260040161018090610b17565b64174876e8003411156105a75760405162461bcd60e51b815260040161018090610b45565b5f6305f5e1006105bf34670de0b6b3a7640000610b73565b6105c99190610b96565b6040516340c10f1960e01b8152336004820152602481018290529091507f00000000000000000000000000000000000000000000000000000000000000006001600160a01b0316906340c10f19906044015f604051808303815f87803b158015610631575f80fd5b505af1158015610643573d5f803e3d5ffd5b505060408051348152602081018590523393507fb65d4debb92b11726c3478ec5624c47542849c62a0622a377ae38e959789eb8b92500160405180910390a250565b5f670de0b6b3a76400006106998184610b73565b6106a39190610b96565b92915050565b60408051818152601281830152711b5cd9cb9d985b1d59481c9958d95a5d995960721b606082015234602082015290515f80516020610c308339815191529181900360800190a1604080518181526014818301527330b6b7bab73a242120a9103830b930b6b2ba32b960611b60608201526020810183905290515f80516020610c308339815191529181900360800190a1604080518181526015818301527413525397d4155490d21054d14818dbdb9cdd185b9d605a1b6060820152620f4240602082015290515f80516020610c308339815191529181900360800190a18034146107cd5760405162461bcd60e51b81526020600482015260146024820152730908482a440c2dadeeadce840dad2e6dac2e8c6d60631b6044820152606401610180565b620f42408110156107f05760405162461bcd60e51b815260040161018090610b17565b64174876e8008111156108155760405162461bcd60e51b815260040161018090610b45565b5f670de0b6b3a76400006108298184610b73565b6108339190610b96565b6040516340c10f1960e01b8152336004820152602481018290529091507f00000000000000000000000000000000000000000000000000000000000000006001600160a01b0316906340c10f19906044015f604051808303815f87803b15801561089b575f80fd5b505af11580156108ad573d5f803e3d5ffd5b505060408051858152602081018590523393507fb65d4debb92b11726c3478ec5624c47542849c62a0622a377ae38e959789eb8b92500160405180910390a25050565b5f546001600160a01b031633146109365760405162461bcd60e51b815260206004820152600a60248201526927b7363c9037bbb732b960b11b6044820152606401610180565b6001600160a01b03821661097e5760405162461bcd60e51b815260206004820152600f60248201526e496e76616c6964206164647265737360881b6044820152606401610180565b805f81900361098a5750475b478111156109d15760405162461bcd60e51b8152602060048201526014602482015273496e73756666696369656e742062616c616e636560601b6044820152606401610180565b5f836001600160a01b0316826040515f6040518083038185875af1925050503d805f8114610a1a576040519150601f19603f3d011682016040523d82523d5f602084013e610a1f565b606091505b5050905080610a625760405162461bcd60e51b815260206004820152600f60248201526e151c985b9cd9995c8819985a5b1959608a1b6044820152606401610180565b50505050565b5f546001600160a01b03163314610aae5760405162461bcd60e51b815260206004820152600a60248201526927b7363c9037bbb732b960b11b6044820152606401610180565b6001600160a01b038116610af65760405162461bcd60e51b815260206004820152600f60248201526e496e76616c6964206164647265737360881b6044820152606401610180565b5f80546001600160a01b0319166001600160a01b0392909216919091179055565b602080825260149082015273416d6f756e742062656c6f77206d696e696d756d60601b604082015260600190565b602080825260149082015273416d6f756e742061626f7665206d6178696d756d60601b604082015260600190565b80820281158282048414176106a357634e487b7160e01b5f52601160045260245ffd5b5f82610bb057634e487b7160e01b5f52601260045260245ffd5b500490565b5f60208284031215610bc5575f80fd5b5035919050565b6001600160a01b0381168114610be0575f80fd5b50565b5f8060408385031215610bf4575f80fd5b8235610bff81610bcc565b946020939093013593505050565b5f60208284031215610c1d575f80fd5b8135610c2881610bcc565b939250505056fe3c5ad147104e56be34a9176a6692f7df8d2f4b29a5af06bc6b98970d329d6577a26469706673582212206e2fda3d7a87093d90c20729c328edc8caea2aa2d8cce24c752c03a79af7dcc664736f6c63430008140033",
  "linkReferences": {},
  "deployedLinkReferences": {},
  "immutableReferences": {
    "940": [
      {
        "length": 32,
        "start": 495
      },
      {
        "length": 32,
        "start": 768
      },
      {
        "length": 32,
        "start": 1006
      },
      {
        "length": 32,
        "start": 1512
      },
      {
        "length": 32,
        "start": 2130
      }
    ]
  },
  "inputSourceName": "project/contracts/BuyCAST.sol",
  "buildInfoId": "solc-0_8_20-d4423be6c6d34ef925b0626e553cbb67f630cd09"
}